:020000040000FA
:10000000700100208D0100009101000093010000AB
:1000100000000000000000000000000000000000E0
:10002000000000000000000000000000950100003A
:10003000000000000000000097010000990100008E
:100040009B0100005D0C00009B010000000000000F
:100050009B01000000000000000000000000000004
:10006000000000009B0100000000000000000000F4
:10007000000000009B010000000000009B01000048
:100080009B010000000000009B0100000000000038
:100090009B010000000000000000000000000000C4
:1000A0009B0100009B010000000000000000000018
:1000B0000000000000000000000000009B010000A4
:1000C00000F002F800F052F812A030C808382418E6
:1000D0002D18AC4201D100F049F80FCCA246AB4636
:1000E0000CA730CF2D1B083F3F197C427F1E544484
:1000F0002D090426F441641EAC4201D300F036F809
:100100000126334200D0FB1A3343984754465D46DC
:10011000DFE700004C0E00006C0E00000000000045
:10012000103A02D378C878C1FAD8520701D330C840
:1001300030C101D504680C60704700000000000069
:100140007047000000000000002300240025002666
:10015000103A01D378C1FBD8520700D330C100D583
:100160000B6070471FB51FBD10B510BD00F0C0FB80
:100170001146FFF7F7FF00F011FE00F0D8FB03B4C3
:10018000FFF7F2FF03BC00F0DFFB0000064800476A
:10019000FEE7FEE7FEE7FEE7FEE7FEE70348044969
:1001A000024A044B70470000C100000070000020AC
:1001B00070010020700000207047704770470000F9
:1001C000F0B5F94D0C091E092C402E402F468BB07E
:1001D000A7437DD0B543FCD0002E7AD0002CFCD0B4
:1001E0000D465D40ED0F2543AC1BFF25AD046419A2
:1001F0000894C502440DC9022143500DDC0204439A
:100200000120C00701430443D2020191200C110CCC
:1002100000958C46010423468B430A9161460904EC
:10022000E24D8A430991010A7D44491980390978D0
:1002300005464D4301266D18F605751B6943C90C2B
:10024000640B891C4C436418B5012C1B250C2E042F
:10025000B4434C434D43210C691889090591009D15
:10026000E90701D00121C90704912C4601996708CB
:10027000CD072F434C08059DE10B4D432D0C29461E
:100280006646754302950D4645432E46029D7D1BED
:10029000B44100950D465D4301942C0C2F040D468E
:1002A0005543AE462D0C3D43029503947546049C80
:1002B0002D04641B049406D2029C039D641C00263A
:1002C00075410395029401AC70CC009F7D1B01E049
:1002D0003EE162E1B441090400950791019405995A
:1002E000A4086143090C0C464443650BE7040C4623
:1002F00066467443A646640B3C43039502947446D9
:10030000049DE4042C1B049406D2029C039D641CEF
:10031000002675410395029401AC70CC009F7D1BB3
:10032000B44101940C465C430095650FE7000C4610
:100330005443A646640F3C43039502947446049DBF
:10034000E4002C1B049406D2029C039D641C00262E
:1003500075410395029401AC70CC009F7D1BB441A4
:10036000AE09AF06049DC900AD092F43049DA40644
:10037000AD060495079D344369180791059DE10B6F
:100380004D432D0C29466646754302950D4645435F
:100390002E46029D7D1BB44100950D465D430194A0
:1003A0002C0C2F040D465543AE462D0C3D430295B3
:1003B00003947546049C2D04641B049406D2029C8D
:1003C000039D641C002675410395029401AC70CC1A
:1003D000009F7D1BB44101948C050694079C890AFB
:1003E000611800950791019C0599A4086143090CC7
:1003F0000D464543680BEF040D46644665436C0BA0
:100400003C43049FED047D1BAC4602D20025641CD6
:100410006841009E019D371B854108465843019560
:100420000C46460FC5005443600F28436546E40060
:100430002C1B02D20025401C6E41019D3F1AB54184
:100440002846BD09800628438446A009BF064E02FF
:100450000699A40676180743079D002068410A996B
:10046000079019430020099B00906046FF19134331
:100470004041E20F64003A43A4460446D71A8C4137
:10048000A04203D90120009020463A46C70F941895
:1004900040416246D20F2243644664000494009CAB
:1004A000BE466400D71AA446044602978C4177469C
:1004B000002F01D1A04204D96046401C8446029A14
:1004C0002046C40FA64694184041049A0546D20F10
:1004D000224364466400D31A8D417146002901D13C
:1004E000A84202D928461A46641C1043012200285B
:1004F00000D0164361020020079B891904465C4125
:100500000223002C02DB491813466441089DCE0AE1
:100510002D145D194B056705E10A2C050D19089985
:100520003E43C9076940002B08D0934006D3002200
:10053000761C5141002B01D1760876001C4A002D13
:1005400043DB154241D0AA433FD030460BB0F0BD4B
:1005500006180D464D41174C7642AC411AD39518FA
:100560001C465C41134A6D42A24113D3012252053D
:100570004C00D4420AD15C00D4420BD04B4002D58F
:1005800092021143E2E749004908DFE75940C90FE9
:10059000C90718E000200849D8E7054801420DD1F5
:1005A0000342F7D0F2E700000000FF07B40C0000A0
:1005B0000000F07F0000E0FF0000F87F1148594084
:1005C0000143C01241400020C0E70123089A9B0666
:1005D0009A4205DC032252078918C90FC907B5E7FB
:1005E000052252078918074A1143D2125140ADE73C
:1005F00070B515461C4602460B4628462146FFF7B5
:10060000DFFD70BDFFFFFF7F0346CA02400D10B53E
:1006100010430A1504D00124E4072043002A05DB17
:100620000A4CA21A04D4D040FF2A00DD002010BDDD
:100630004A00002B01D0012000E000201018012208
:100640005205D042F2D8C817C04310BD1E040000A6
:100650001F22030C02D10F22000402D0030E03D08C
:1006600004E00020014670470002083A030F01D160
:100670000001121F830F01D18000921E002801DBB0
:100680004000521E120551184205C0124118104672
:100690007047C10FC90700D04042012292071143A1
:1006A000D6E701218907D3E7F0B58B4C0F09254622
:1006B00089B0BD437BD01D092646AE43FAD00E4615
:1006C0005E402740F60F3E43254071D02401214271
:1006D000FBD0FF24AD19A4042D1B039501252D0586
:1006E000DB02DB0AC9022B43C90A29431E010901A7
:1006F000040F130F050121431701880B8203914357
:100700002D098C46A90B1E438A039543B30B9A030C
:1007100096433F09BA0B9403A74302962E467E43A5
:100720000497B6464E19D7190C46019654430597BF
:100730007E43371B7646BF1B3601B646BE0B3619C5
:1007400000967646BC043719009C01D3641C0094C3
:100750006400002F01D001263443029E049F75439C
:1007600066467E430496760034196E003419009470
:10077000029C019E1C196643751BAE460694654695
:100780004519059C05956C43594375460891691AAE
:100790000191049E01465143A41B0491611A009CDF
:1007A0000791E10605D061090122114302E072E0E0
:1007B0006EE06109089D00272C0A2D066918049D2A
:1007C0007C412A0A2D066918019D6241AC0DAD02DB
:1007D0006D185441079A910D920255196141029A80
:1007E000644658435443069B059A5A43121A131BF6
:1007F0009A0E9B015B187A41010B0005C318514109
:10080000220A200644195A419A4200D2491C01206A
:100810004002814203D315230226F64302E014234B
:100820000326F6432020C51AA9401746AF40DA40F8
:100830000A4320460399D840091473181905511822
:10084000039A3843D2075140AC4009D0012294406A
:1008500006D30022401C5141002C01D14008400029
:100860001E4A934212D3012203989206904207DB5C
:100870000520400709181A480143C012414004E00E
:10088000032040070818C10FC907002009B0F0BDB8
:100890000020F107FAE705180C464C4111486D425B
:1008A000A04115D394181A465A410E48644290410B
:1008B0000ED301204A004005824209D35A008242E9
:1008C00006D35940C90F084AC90700201143DDE784
:1008D00000200649DAE700000000FF07FE070000DD
:1008E000FFFFFF7F0000E0FF0000F07F0000F87FC7
:1008F000754600F025F8AE46050069465346C00827
:10090000C000854618B020B5FFF748FC60BCB6466D
:1009100000260027C0C5C0C5C0C5C0C5C0C5C0C56C
:10092000C0C5C0C5403D490849008D46704710B557
:100930000446C046C0462046FFF721FC10BD00001B
:10094000004870470800002001491820ABBEFEE7B0
:1009500026000200704781B00090801E001F00BF7B
:10096000FCD201B0704784B00390029101920398C9
:1009700000680090009801998843009000980299BF
:10098000019A114008430399086004B0704784B08D
:1009900003900291019203980068009000980199D9
:1009A0008843009000980299019A114008430399E6
:1009B000086004B0704784B00390029101920398DC
:1009C000006800900098019988430090009802996F
:1009D000019A114008430399086004B07047000071
:1009E00082B001900091009B0199034A88581843F6
:1009F000885002B07047C0464810000082B0019095
:100A000000910098019995225201885002B07047D8
:100A100082B001900091009B0199034A88581843C5
:100A2000885002B07047C0462810000082B0019084
:100A3000009100980199024A885002B07047C04660
:100A4000D012000081B0009000990120C20202483B
:100A5000885001B07047C0460100002681B0009068
:100A600000988100084A0248885001B07047C0468B
:100A70008100040081B0009000988100024A81202A
:100A8000885001B07047C0460480424082B0019057
:100A9000009101982721C90140580099084002B0EF
:100AA0007047000081B000900099024A02488850C7
:100AB00001B0704704080000030000B182B001904B
:100AC0000091009B0199034A88581843885002B04E
:100AD0007047C0469013000082B0019000910098CA
:100AE0000199074A885002B07047C04682B0019011
:100AF000009100980199024A885002B07047C046A0
:100B00009012000082B00190009100980199024A71
:100B1000885002B07047C046B012000081B0014654
:100B2000684601700178302048430249405801B0BE
:100B30007047C04600114040024908681022104327
:100B4000086070473C010B40014800687047C04690
:100B500004020B4081B001466846017000780249EA
:100B6000086001B07047C04608030B4080B582B0F2
:100B7000014601A80170017837480F22FFF7F3FE04
:100B800002B080BD80B582B0014601A80170017835
:100B900030480322FFF7E7FE02B080BD80B582B087
:100BA000014601A8017001782A480322FFF7EFFEF1
:100BB00002B080BD80B582B0014601A80170017805
:100BC00024480322FFF7F7FE02B080BD80B521491B
:100BD000086801229302984308601F4908681205BB
:100BE00090430860FFE7FFF7AFFF8003002801D5BF
:100BF000FFE7F8E780BDC04680B582B0014601A896
:100C000001700078C00700280AD1FFE70020FFF735
:100C1000D1FF10490868012292029043086006E063
:100C20000C4908680122920210430860FFE70A4954
:100C300008680122120510430860FFE7FFF784FFF0
:100C4000012149040840884201D0FFE7F6E702B0DD
:100C500080BDC04600010B4004010B4080B501205F
:100C6000FFF75CFF012815D1FFE70A2000F078F8B4
:100C700096480221FFF70AFF00280AD1FFE79249B0
:100C80000878401C0322104008708E49012008702B
:100C9000FFE700E0FFE780BD80B584B00120FFF7EB
:100CA000DDFE0320FFF7E6FE08200190FFF7E2FEDD
:100CB0000920FFF7DFFE6120C10000918348029008
:100CC000FFF714FF00990298FFF7B0FE0199029810
:100CD000FFF7F4FE029802210391FFF781FE0298CC
:100CE0000399FFF795FE04B080BDC04680B582B081
:100CF00000200190FFF72EFF0198FFF74FFFFFF74D
:100D00001BFF02B080BD80B500F006F8FFF7C4FFFE
:100D1000FFF7ECFF80BD000080B582B06B4801900A
:100D2000FFF7C0FE0198FFF78DFE1020FFF713FEBE
:100D300002B080BD81B00146684601700021405676
:100D4000002809D4FFE7684601781F2001400120F0
:100D5000884002490860FFE701B0704700E100E009
:100D600080B584B003905A480068FFF79AFC0022CF
:100D7000094BFFF725FA019002910398FFF789FCD0
:100D8000024601980B460299FFF78EFCFFF73CFCE8
:100D9000FFF7E1FD04B080BD00408F4080B58CB00E
:100DA00000200B90FFF7AFFF0120FFF7C3FFFFE725
:100DB0004448007800287CD0FFE7434800780A9038
:100DC000032871D80A98810001A040588746C04680
:100DD000E10D0000130E0000430E0000790E00002C
:100DE00001200790010239480890FFF775FE079926
:100DF00008984902FFF770FE35493848086000201E
:100E00000990FFF7B3FE0998FFF7BCFEFFF7DEFE7F
:100E10004BE00120069001022C480590FFF75CFE94
:100E2000059806994902FFF7E9FD29492A48086013
:100E30000020FFF79BFE0698FFF7A4FEFFF7C6FE13
:100E400033E001200490010220480390FFF7D6FD13
:100E5000039804994902FFF73FFE1D491D480860A9
:100E60000020FFF783FE0498FFF78CFE0320FFF7B6
:100E70007DFEFFF7ABFE18E0012001900102134850
:100E80000090FFF7BBFD009801994902FFF7B6FDFE
:100E900001980F49C003086000200290FFF766FE2A
:100EA0000298FFF7A9FE00E0FFE70649002008705E
:100EB000FFE77D208000FFF753FF04480821FFF77C
:100EC00021FE75E7000000206800002000000A40B5
:100ED0000400002040420F0000093D000048E801E6
:100EE00080807F7E7D7C7B7A797877767675747367
:100EF000727171706F6E6E6D6C6C6B6A6A69686826
:100F0000676666656464636362616160605F5F5EBB
:100F10005E5D5D5C5C5B5B5A5A5959585857575631
:100F20005655555554545353525252515150505096
:100F30004F4F4F4E4E4D4D4D4C4C4C4B4B4B4A4AE8
:100F40004A4949494848484747474746464645452C
:100F50004544444444434343434242424241414165
:100F6000800F0000000000200800000020010000A9
:100F7000880F000008000020680100004801000000
:080F8000010000000048E80137
:04000005000000C136
:00000001FF
