:020000040000FA
:10000000680100206D010000710100007301000013
:1000100000000000000000000000000000000000E0
:10002000000000000000000000000000750100005A
:1000300000000000000000007701000079010000CE
:100040007B0100007B0100007B010000000000003C
:100050007D0E000000000000000000000000000015
:10006000000000007B010000000000000000000014
:10007000000000007B010000000000007B01000088
:100080007B010000000000007B0100000000000078
:100090007B010000000000000000000000000000E4
:1000A0007B0100007B010000000000000000000058
:1000B0000000000000000000000000007B010000C4
:1000C00000F002F800F042F812A030C808382418F6
:1000D0002D18AC4201D100F039F80FCCA246AB4646
:1000E0000CA730CF2D1B083F3F197C427F1E544484
:1000F0002D090426F441641EAC4201D300F026F819
:100100000126334200D0FB1A3343984754465D46DC
:10011000DFE70000142000002420000000000000A1
:100120007047000000000000002300240025002686
:10013000103A01D378C1FBD8520700D330C100D5A3
:100140000B6070471FB51FBD10B510BD00F062FEFB
:100150001146FFF7F7FF01F0F7FB00F07AFE03B45A
:10016000FFF7F2FF03BC00F081FE000006480047E5
:10017000FEE7FEE7FEE7FEE7FEE7FEE70348044989
:10018000024A044B70470000C100000068000020D4
:100190006801002068000020002203098B422CD354
:1001A000030A8B4211D300239C464EE003460B43C7
:1001B0003CD4002243088B4231D303098B421CD329
:1001C000030A8B4201D394463FE0C3098B4201D31B
:1001D000CB01C01A524183098B4201D38B01C01A53
:1001E000524143098B4201D34B01C01A52410309CA
:1001F0008B4201D30B01C01A5241C3088B4201D379
:10020000CB00C01A524183088B4201D38B00C01A25
:10021000524143088B4201D34B00C01A5241411A4C
:1002200000D201465241104670475DE0CA0F00D02F
:100230004942031000D3404253409C460022030928
:100240008B422DD3030A8B4212D38901FC2212BAAE
:10025000030A8B420CD3890192118B4208D3890186
:1002600092118B4204D389013AD0921100E089099E
:10027000C3098B4201D3CB01C01A524183098B427F
:1002800001D38B01C01A524143098B4201D34B0168
:10029000C01A524103098B4201D30B01C01A5241CB
:1002A000C3088B4201D3CB00C01A524183088B4252
:1002B00001D38B00C01A5241D9D243088B4201D3DB
:1002C0004B00C01A5241411A00D201465241104619
:1002D00063465B1001D34042002B00D54942704772
:1002E00063465B1000D3404201B50549002802DC9B
:1002F000491C084000E00846C046C04602BD00BF99
:10030000FFFFFF7F70477047704700000246C80F2D
:10031000C00781434B0030B54B405B009B0D20D0A4
:100320001923DB06C91801231B05994220DB03248E
:10033000A40704251346AB400BD3002B04D1EB06D6
:1003400013409B00E34204D40124640700231219E4
:100350005941FF231B0599420BD2C9000143500F9D
:1003600009E0CB0204D501430803024305D0054848
:1003700030BDFF21C905084330BD084607210905E6
:10038000884330BD0000C07FF0B50C46871A9C4101
:100390000D46861A9D4103D2C01BA141D21963416B
:1003A0000D0D1F0DC94EEC1BAE435CD07F057F0DBC
:1003B0000026002F51D02D05AC46A943DD020123B4
:1003C000ED0A1B051D4320231B1B24D41746E740C1
:1003D000381871412F46E740CC199D402818314606
:1003E00061410C0D27D161449A4013D50023401C74
:1003F000594152000ED14008400001224B005205E5
:10040000D34207D305204007C14201D5B04900E0DF
:10041000B0493046F0BD6B00002A00D001229A1886
:100420001F23203C1B1B01D5002302E0E5402818B8
:1004300071410C0DD7D0012424050919C407CD073B
:1004400040084908E40F28436144002CD5D000241B
:10045000401C61419A40D0D1CDE76A05520DD9D1F7
:10046000C90FC907D5E79C4D4E00002801D00124D3
:1004700000E0002434195F00002A01D0012600E0CA
:100480000026BE19954FAC420CD8AE420AD8B442F1
:1004900006D001256D05EC42BCD010461946F0BDD2
:1004A0009942FCD000203946F0BDF0B51FB40C468F
:1004B0000F46811A9F412546861A9D4106D2012585
:1004C000ED076F40401ABC4152187B41210D1E0DB3
:1004D0008D1BAC467D4D8D437ED075056D0D7CD05A
:1004E0000D05AE46AC431B031B0B794D52429D419B
:1004F000202366469B1B14D31746F7403818002666
:100500000090744160462F460741E41900989D40D1
:100510002818664116D4714671189A4025D50123D2
:1005200020E093182A466A415200002B00D0521C4A
:100530001E23203E9B1B002B61DD3541EE17281842
:100540006641E8D5001876415B1C9A4000D3401CF8
:100550004B05F3181524E34010D3002B52D07146FD
:100560007118D30FC01802D3491C05B0F0BD012388
:10057000DB079A42F9D140084000F6E70122520514
:10058000B21801D1002853D00123CC0ADB029943D1
:10059000891E002A08D1020C03D0020C0004103975
:1005A00002E00246002020390023550B05D112023B
:1005B0000823550B01D152010D23550C01D1120115
:1005C0001B1DD50C01D192009B1C150D01D15200B1
:1005D0005B1C2025EE1A01E02CE022E00546F540E8
:1005E00015439840CA1AE10769181305C918002A6B
:1005F000BBDA032040070818C10FC9070FE0714696
:100600006118B2E7F10740080843711071444A00CD
:100610000CD001235B059A42A7D2C90FC90700205D
:10062000A3E74905490D26D1002001E00028F4D1B7
:1006300000219AE7284D6600002801D0012100E042
:10064000002171185F00002A01D0012600E0002679
:10065000BE19224FA94210D8AE420ED8B14208D0DE
:1006600001256D05E94206D01946A8024140104611
:100670007BE79C4201D0214677E70020394674E7AA
:1006800010B50C465C4005D50124E4076340FFF734
:100690000CFF10BDFFF778FE10BD30B40C465C4077
:1006A00004D50124E407634030BC6DE630BCFCE6B1
:1006B00070B50124E40761400D465D4002D4FFF7A8
:1006C00063FE70BD6340FFF7F0FE70BDFF070000E2
:1006D0000000F0FF0000F07F0000E0FF0000F87F66
:1006E000F0B5F94D0C091E092C402E402F468BB059
:1006F000A7437DD0B543FCD0002E7AD0002CFCD08F
:100700000D465D40ED0F2543AC1BFF25AD0464197C
:100710000894C502440DC9022143500DDC02044374
:100720000120C00701430443D2020191200C110CA7
:1007300000958C46010423468B430A9161460904C7
:10074000E24D8A430991010A7D44491980390978AB
:1007500005464D4301266D18F605751B6943C90C06
:10076000640B891C4C436418B5012C1B250C2E040A
:10077000B4434C434D43210C691889090591009DF0
:10078000E90701D00121C90704912C4601996708A6
:10079000CD072F434C08059DE10B4D432D0C2946F9
:1007A0006646754302950D4645432E46029D7D1BC8
:1007B000B44100950D465D4301942C0C2F040D4669
:1007C0005543AE462D0C3D43029503947546049C5B
:1007D0002D04641B049406D2029C039D641C002615
:1007E00075410395029401AC70CC009F7D1B01E024
:1007F0003EE162E1B4410904009507910194059935
:10080000A4086143090C0C464443650BE7040C46FD
:1008100066467443A646640B3C43039502947446B3
:10082000049DE4042C1B049406D2029C039D641CCA
:10083000002675410395029401AC70CC009F7D1B8E
:10084000B44101940C465C430095650FE7000C46EB
:100850005443A646640F3C43039502947446049D9A
:10086000E4002C1B049406D2029C039D641C002609
:1008700075410395029401AC70CC009F7D1BB4417F
:10088000AE09AF06049DC900AD092F43049DA4061F
:10089000AD060495079D344369180791059DE10B4A
:1008A0004D432D0C29466646754302950D4645433A
:1008B0002E46029D7D1BB44100950D465D4301947B
:1008C0002C0C2F040D465543AE462D0C3D4302958E
:1008D00003947546049C2D04641B049406D2029C68
:1008E000039D641C002675410395029401AC70CCF5
:1008F000009F7D1BB44101948C050694079C890AD6
:10090000611800950791019C0599A4086143090CA1
:100910000D464543680BEF040D46644665436C0B7A
:100920003C43049FED047D1BAC4602D20025641CB1
:100930006841009E019D371B85410846584301953B
:100940000C46460FC5005443600F28436546E4003B
:100950002C1B02D20025401C6E41019D3F1AB5415F
:100960002846BD09800628438446A009BF064E02DA
:100970000699A40676180743079D002068410A9946
:10098000079019430020099B00906046FF1913430C
:100990004041E20F64003A43A4460446D71A8C4112
:1009A000A04203D90120009020463A46C70F941870
:1009B00040416246D20F2243644664000494009C86
:1009C000BE466400D71AA446044602978C41774677
:1009D000002F01D1A04204D96046401C8446029AEF
:1009E0002046C40FA64694184041049A0546D20FEB
:1009F000224364466400D31A8D417146002901D117
:100A0000A84202D928461A46641C10430122002835
:100A100000D0164361020020079B891904465C41FF
:100A20000223002C02DB491813466441089DCE0ABC
:100A30002D145D194B056705E10A2C050D19089960
:100A40003E43C9076940002B08D0934006D30022DB
:100A5000761C5141002B01D1760876001C4A002DEE
:100A600043DB154241D0AA433FD030460BB0F0BD26
:100A700006180D464D41174C7642AC411AD39518D5
:100A80001C465C41134A6D42A24113D30122520518
:100A90004C00D4420AD15C00D4420BD04B4002D56A
:100AA00092021143E2E749004908DFE75940C90FC4
:100AB000C90718E000200849D8E7054801420DD1D0
:100AC0000342F7D0F2E700000000FF073C130000EC
:100AD0000000F07F0000E0FF0000F87F114859405F
:100AE0000143C01241400020C0E70123089A9B0641
:100AF0009A4205DC032252078918C90FC907B5E7D6
:100B0000052252078918074A1143D2125140ADE716
:100B100070B515461C4602460B4628462146FFF78F
:100B2000DFFD70BDFFFFFF7F1F22030C02D10F22EC
:100B3000000402D0030E03D004E0002001467047F9
:100B40000002083A030F01D10001121F830F01D1E7
:100B50008000921E002801DB4000521E1205511831
:100B60004205C012411810467047C10FC90700D096
:100B70004042012292071143D6E701218907D3E7BA
:100B8000F0B58B4C0F09254689B0BD437BD01D09BC
:100B90002646AE43FAD00E465E402740F60F3E434F
:100BA000254071D024012142FBD0FF24AD19A404BB
:100BB0002D1B039501252D05DB02DB0AC9022B4302
:100BC000C90A29431E010901040F130F050121431E
:100BD0001701880B820391432D098C46A90B1E43F4
:100BE0008A039543B30B9A0396433F09BA0B9403C8
:100BF000A74302962E467E430497B6464E19D71950
:100C00000C460196544305977E43371B7646BF1B1F
:100C10003601B646BE0B361900967646BC04371927
:100C2000009C01D3641C00946400002F01D00126B5
:100C30003443029E049F754366467E4304967600C5
:100C400034196E0034190094029C019E1C196643ED
:100C5000751BAE46069465464519059C05956C4383
:100C6000594375460891691A0191049E0146514302
:100C7000A41B0491611A009C0791E10605D061094B
:100C80000122114302E072E06EE06109089D002735
:100C90002C0A2D066918049D7C412A0A2D06691824
:100CA000019D6241AC0DAD026D185441079A910D42
:100CB000920255196141029A644658435443069B77
:100CC000059A5A43121A131B9A0E9B015B187A411C
:100CD000010B0005C3185141220A200644195A414C
:100CE0009A4200D2491C01204002814203D31523BD
:100CF0000226F64302E014230326F6432020C51AF9
:100D0000A9401746AF40DA400A4320460399D8402D
:100D10000914731819055118039A3843D207514022
:100D2000AC4009D00122944006D30022401C51411E
:100D3000002C01D1400840001E4A934212D30122E8
:100D400003989206904207DB0520400709181A48CD
:100D50000143C012414004E0032040070818C10FBE
:100D6000C907002009B0F0BD0020F107FAE7051817
:100D70000C464C4111486D42A04115D394181A46B7
:100D80005A410E48644290410ED301204A0040056A
:100D9000824209D35A00824206D35940C90F084AF9
:100DA000C90700201143DDE700200649DAE700000B
:100DB0000000FF07FE070000FFFFFF7F0000E0FFCD
:100DC0000000F07F0000F87F10B501469E2400026D
:100DD000CA15A307002A02D01843002A04DBA21A6E
:100DE000002A0CDDD04010BD1206120E01D14000C9
:100DF0004008A21A03D4D04040420028F3DDFF226D
:100E000048001206904201D9002010BDC817C04307
:100E1000584010BD754600F025F8AE4605006946FD
:100E20005346C008C000854618B020B5FFF7A6F9A4
:100E300060BCB64600260027C0C5C0C5C0C5C0C539
:100E4000C0C5C0C5C0C5C0C5403D490849008D46A4
:100E5000704710B50446C046C0462046FFF77FF9EC
:100E600010BD000000487047000000200149182014
:100E7000ABBEFEE7260002007047000080B50648C2
:100E800000F088F8092804D1FFE704490120087020
:100E900000E0FFE780BDC046004000406000002049
:100EA00082B001900091009B0199034A8858184331
:100EB000885002B07047C0464810000010B585B099
:100EC0000092024600980B9C0A9C099C089C079C77
:100ED000049203AA117002900193029801990843A9
:100EE0000799084308990843099908430A99084350
:100EF0000B99084304991278920089182322D20191
:100F0000885005B010BD81B00090009911200202F8
:100F1000885801231843885001B0704781B0009071
:100F2000009911200202885801231843885001B00B
:100F30007047000082B001900091009B0199034A24
:100F400088581843885002B07047C04628100000E7
:100F500081B0009000990120C202C948885001B0B8
:100F60007047C04684B0009101460098039102A9E1
:100F7000087003980978890040182521C901401894
:100F8000019001980249405880B204B07047C046B1
:100F90000050550081B000900098812149014058CF
:100FA000C0B201B07047000010B584B0079C069C29
:100FB00003900291019200930398B7494018029957
:100FC000019A1143009A1143064A00F05DF8039814
:100FD000A54940180699079A1143034A00F054F8AE
:100FE00004B010BD0100130007001F1F81B0009066
:100FF0000099AE4A6E48885001B0704780B582B003
:101000000190009101980D49401800990978A92292
:10101000120689180A4A00F04BF8019811210902BA
:101020004018009949680722120600F041F800981C
:1010300040780199034A885002B080BD080800003A
:10104000030000FF1011000082B00190684601808B
:1010500000880199014A885002B0704714110000BD
:1010600081B0009000998C4A885801231B021843D4
:10107000885001B07047C04681B00090801E001FAC
:1010800000BFFCD201B0704784B00390029101927E
:101090000398006800900098019988430090009898
:1010A0000299019A114008430399086004B07047FF
:1010B00084B0039002910192039800680090009818
:1010C00001998843009000980299019A11400843C1
:1010D0000399086004B0704782B0019000910098B5
:1010E000019995225201885002B0704782B0019058
:1010F00000910098019995225201885002B07047E2
:1011000082B00190009100980199024A885002B083
:101110007047C046D012000081B0009000990120B5
:10112000C2025748885001B07047C04610B584B01D
:10113000069C039002910192009302980199084342
:101140000099084306990843034908430399890015
:10115000124A885004B010BD8100040081B0009094
:10116000009881000D4A8120885001B07047C04628
:1011700010B584B0069C03900291019200930298EE
:1011800001990843009908430699084381210843BF
:1011900003998900014A885004B010BD0480424080
:1011A00081B000900099414A0148885001B07047D1
:1011B000030000B182B00190009100980199074AA4
:1011C000885002B07047C04682B0019000910098EC
:1011D0000199024A885002B07047C0469012000040
:1011E0000349086801221203104308607047C04693
:1011F00004010B4002490868102210430860704740
:101200003C010B4081B001466846017000780249FC
:10121000086001B07047C04608030B4080B582B03B
:10122000014601A80170017802480322FFF72CFF54
:1012300002B080BD00010B4082B001900091009986
:1012400008784A781043498808430199112212020C
:101250008850009948688968090408430199024A3E
:10126000885002B07047C0460811000081B000905D
:1012700000990120C2020248885001B07047C04660
:101280000100002681B000900098034940580121D8
:10129000084001B07047C0460411000081B00090C2
:1012A0000099024A0248885001B0704704080000C3
:1012B000010000B182B0019000910098007801997E
:1012C000044A8850009840780199012212038850FE
:1012D00002B070470810000080B584B003A9002058
:1012E0000870FFE703A80078072828DCFFE70398C9
:1012F000B030C0B20021019100F0CEF90199022076
:1013000000F0CAF90199102000F0C6F9019802A96D
:101310000870FFE702A800787F280ADCFFE70020BA
:10132000012100F0B9F9FFE70298401C02A90870FA
:10133000F0E7FFE70398401C03A90870D2E704B068
:1013400080BD80B586B06420009000F0E5FA00987A
:1013500000F0E2FAAE200021059100F09DF9059918
:101360000220029000F098F90599102000F094F9FD
:1013700005994020019000F08FF90599812000F037
:101380008BF90599CF2000F087F90599A12000F08D
:1013900083F90599C82000F07FF90599A6200390EC
:1013A00000F07AF90599A82000F076F905993F2018
:1013B00000F072F90599D32000F06EF905990846FE
:1013C00000F06AF90599D52000F066F905998020AA
:1013D00000F062F90599D92000F05EF90599F12035
:1013E00000F05AF90599DA2000F056F90599122013
:1013F00000F052F90599DB2000F04EF901980599AB
:1014000000F04AF90599202000F046F90298059964
:1014100000F042F905998D2000F03EF9059914205D
:1014200000F03AF90599A42000F036F903980599DF
:1014300000F032F90599AF20049000F02DF90498DE
:10144000059900F029F9FFF747FF0599084600F0D4
:1014500002F806B080BD80B584B003AA0092107077
:1014600002A801700298B030C0B20021019100F0D2
:1014700013F90098019900780009103000F00CF978
:1014800001990398012210430F22104000F004F943
:1014900004B080BD80B586B0034605A8037004ABD8
:1014A000197003A90A7002AA0021117001AB19700A
:1014B0000399203911700078802808DBFFE705A91F
:1014C000002008700498801C04A90870FFE705A894
:1014D000007804A90978FFF7BEFF01A90020087071
:1014E000FFE701A80078072811DCFFE702A80078D1
:1014F000000101A9097841181748405C012100F05A
:10150000CBF8FFE70198401C01A90870E9E705A89E
:1015100000780499491CC9B2FFF79DFF01A900207A
:101520000870FFE701A80078072812DCFFE702A88F
:101530000078000101A90978401807494018007A8D
:10154000012100F0A9F8FFE70198401C01A90870EB
:10155000E8E706B080BDC046081B0000B0B58AB001
:1015600004460E9809AD2C7008AC2170079206A9AC
:101570000B7005A9087002A90020087004A9087062
:10158000FFE704A8007806A9097888424EDAFFE749
:101590000798009006990498C0434018C1B20A20E9
:1015A000019000F059FA01460098FEF7F5FD019907
:1015B000FEF7F2FD03A8017002A80078002820D1F0
:1015C000FFE704A8007806A90978491E884218DABE
:1015D000FFE703A8007800280ED1FFE7099805A9C6
:1015E00009784A0804995143401808A90978C0B2FB
:1015F0002022FFF74FFF14E002A901200870FFE747
:10160000FFE7099805A909784A0804995143401849
:1016100008A90978039A3032C0B2D2B2FFF73AFF74
:10162000FFE70498401C04A90870AAE70AB0B0BDFF
:1016300080B586B005AB187004A80170039202A9AA
:1016400000200870FFE7039802A90978405C002891
:1016500020D0FFE705A80190007804A90978039A33
:1016600002AB1B78D25CFFF715FF01980599083192
:1016700001700078792808DBFFE705A900200870D1
:101680000498801C04A90870FFE70298401C02A976
:101690000870D8E706B080BD80B584B003AA10708A
:1016A00002A801700078002805D0FFE78E481021BD
:1016B000FFF78AFD04E08C481021FFF717FDFFE7D4
:1016C00089480421FFF712FD01A900200870FFE7F7
:1016D00001A80078072822DCFFE783484021FFF7B4
:1016E00005FD03A800780006002805D5FFE77E4821
:1016F0002021FFF769FD04E07B482021FFF7F6FC7D
:10170000FFE779484021FFF75FFD0398400003A9F8
:101710000870FFE70198401C01A90870D8E77248DB
:1017200000900421FFF750FD00981021FFF74CFDB9
:1017300004B080BD80B58AB01749C2480990FFF750
:101740005DFC099800230693019300930121079102
:1017500049041A46FFF728FC069A0799099804924B
:1017600003920292019200924B021146FFF7A6FBF0
:1017700009987D218900FFF767FC079909980902FC
:101780000891FFF78DFB08990998FFF7D3FB09989B
:10179000FFF7C4FB0AB080BDF820000080B586B01A
:1017A0000820FFF7DBFC0220FFF7D8FC0420FFF73E
:1017B000D5FC0620FFF7D2FC0520FFF7CFFC002365
:1017C00003930093012004904204019218461946A5
:1017D000FFF7CEFC019A039B049800931946FFF78C
:1017E000C7FC0720FFF7BAFC0C20FFF7B7FC039BF0
:1017F00004980093020402920D201946FFF796FC0C
:10180000029A039B00930E201946FFF78FFC029A61
:10181000039B009311201946FFF788FC029A039B53
:10182000009312201946FFF781FC2F4805900749C5
:10183000FFF752FC049905980902FFF7BBFC0598D5
:101840000349FFF75DFC06B080BDC046F7100000FD
:10185000F711000080B582B000200190FFF7D2FCA4
:101860000198FFF7DBFCFFF7BBFCFFF7C3FC02B0FE
:1018700080BD000080B582B0054971480190FFF736
:1018800019FD01980349FFF7D7FC02B080BDC0469F
:10189000002100000421000080B500F009F8FFF7E6
:1018A0007DFFFFF7D7FFFFF745FFFFF7E3FF80BDA1
:1018B00080B584B00C480190FFF772FC614802903B
:1018C000FFF794FB5E480390FFF7E8FC0198FFF7F1
:1018D00023FC0298FFF73CFB0398FFF7C7FC10209E
:1018E000FFF7CAFB04B080BD00000A4081B001468A
:1018F0006846017000214056002809D4FFE7684679
:1019000001781F2001400120884002490860FFE75C
:1019100001B0704700E100E082B00190FFE701985C
:1019200000280FD0FFE72D20C0000090FFE70098AF
:10193000411E0091002801D0FFE7F8E70198401E02
:101940000190ECE702B0704780B58CB000200890A1
:101950000B90FFF7A1FFFFF7F4FCFFF7BDFC089920
:10196000334A0846FFF764FE0898324A022107917D
:10197000FFF75EFE0799304A6820FFF759FE042002
:10198000FFF7B4FF08982D490870FFE72C48FFF7D0
:1019900079FC002801D1FFE7F8E7FFE72948FFF7C6
:1019A0005FFBFFE725480078C007002802D1FFE76A
:1019B00020BFF7E72348069000210591FFF7D2FAF0
:1019C00001460AA8019001800088FFF7CEF8059A29
:1019D0001D4BFFF7D5F8059A1C4BFEF781FE059AC3
:1019E0001B4BFEF74DFEFEF791FC05990246019850
:1019F000099202881020029000904820049004234D
:101A00000393FFF7ABFD0998FFF7DEF90299039BFB
:101A10000246049800910221FFF7A0FD0D48FFF750
:101A20002BFB05990698054A1170FFF76CFAB5E78C
:101A30001921000010210000222100006000002078
:101A400000000340004000400088A34000FEAF407B
:101A50000088D3BF00A8610083B002AA107001A85B
:101A6000017001200090FFE701AA1078411E11705B
:101A7000002806D0FFE702A80078009948430090AC
:101A8000F2E7009803B0704780807F7E7D7C7B7A90
:101A90007978777676757473727171706F6E6E6D1A
:101AA0006C6C6B6A6A6968686766666564646363C0
:101AB00062616160605F5F5E5E5D5D5C5C5B5B5A46
:101AC0005A595958585757565655555554545353B3
:101AD00052525251515050504F4F4F4E4E4D4D4D0E
:101AE0004C4C4C4B4B4B4A4A4A4949494848484759
:101AF0004747474646464545454444444443434397
:101B000043424242424141410000000000000000C7
:101B10000000000000000000000000F800000000CD
:101B2000000000333000000000100C06100C06000E
:101B3000000000000000000040C07840C078400075
:101B4000043F04043F040400007088FC08300000D7
:101B5000001820FF211E0000F008F000E01800002F
:101B600000211C031E211E0000F0088870000000E8
:101B70001E2123241927211010160E00000000003A
:101B80000000000000000000000000E01804020057
:101B9000000000071820400000020418E0000000C8
:101BA0000040201807000000404080F080404000C6
:101BB0000202010F01020200000000F0000000001C
:101BC0000101011F010101000000000000000000F0
:101BD00080B0700000000000000000000000000065
:101BE00000010101010101010000000000000000EE
:101BF0000030300000000000000000008060180489
:101C0000006018060100000000E010080810E00065
:101C1000000F102020100F00001010F8000000002E
:101C20000020203F20200000007008080888700075
:101C300000302824222130000030088888483000F5
:101C40000018202020110E000000C02010F8000015
:101C500000070424243F240000F8088888080800AE
:101C60000019212020110E0000E0108888180000C3
:101C7000000F112020110E0000380808C838080095
:101C80000000003F00000000007088080888700015
:101C9000001C222121221C0000E010080810E00096
:101CA0000000312222110F00000000C0C00000001F
:101CB0000000003030000000000000800000000044
:101CC000000080600000000000008040201008003C
:101CD0000001020408102000404040404040400005
:101CE00004040404040404000008102040800000E0
:101CF0000020100804020100007048080808F000E5
:101D00000000003036010000C030C828E810E000B4
:101D10000718272423140B000000C038E00000003F
:101D2000203C23020227382008F8888888700000A9
:101D3000203F202020110E00C0300808080838007D
:101D4000071820202010080008F808080810E000F4
:101D5000203F202020100F0008F88888E808100095
:101D6000203F20202320180008F88888E808100069
:101D7000203F200003000000C030080808380000A1
:101D800007182020221E020008F808000008F808A2
:101D9000203F210101213F20000808F80808000029
:101DA0000020203F2020000000000808F80808005C
:101DB000C08080807F00000008F888C028180800D4
:101DC000203F20012638200008F80800000000000D
:101DD000203F20202020300008F8F800F8F8080004
:101DE000203F003F003F200008F830C00008F808FE
:101DF000203F200007183F00E01008080810E0000E
:101E00000F10202020100F0008F808080808F00024
:101E1000203F210101010000E01008080810E00047
:101E20000F18242438504F0008F8888888887000DC
:101E3000203F2000030C302000708808080838007C
:101E40000038202121221C00180808F80808180072
:101E50000000203F2000000008F808000008F808F3
:101E6000001F202020201F000878880000C83808A4
:101E7000000007380E010000F80800F80008F8001C
:101E8000033C0700073C03000818688080681808B6
:101E900020302C03032C30200838C800C838080034
:101EA0000000203F2000000010080808C838080083
:101EB0002038262120201800000000FE0202020027
:101EC0000000007F40404000000C30C000000000D7
:101ED000000000010638C00000020202FE000000FF
:101EE000004040407F0000000000040202020400A5
:101EF00000000000000000000000000000000000E2
:101F000080808080808080800002020400000000C9
:101F100000000000000000000000808080800000C1
:101F20000019242222223F2008F8008080000000AF
:101F3000003F112020110E00000000808080000072
:101F4000000E112020201100000000808088F80081
:101F5000000E112020103F200000808080800000B3
:101F6000001F222222221300008080F08888881817
:101F70000020203F20200000000080808080800022
:101F8000006B94949493600008F8008080800000B7
:101F9000203F210000203F20008098980000000092
:101FA0000020203F202000000000008098980000C2
:101FB00000C08080807F000008F8000080808000E2
:101FC000203F24022D302000000808F80000000007
:101FD0000020203F202000008080808080808000C2
:101FE000203F20003F20003F808000808080000054
:101FF000203F210000203F200000808080800000E2
:10200000001F202020201F00808000808000000012
:1020100080FFA12020110E00000000808080800041
:10202000000E112020A0FF80808080008080800032
:1020300020203F212000010000008080808080005F
:102040000033242424241900008080E080800000D4
:102050000000001F20200000808000000080800021
:10206000001F202020103F20808080000080808082
:1020700000010E3008060100808000800080808012
:102080000F300C030C300F00008080008080800037
:102090000020312E0E312000808080000080808062
:1020A00080818E7018060100008080808080800012
:1020B0000021302C2221300000000000807C020230
:1020C00000000000003F404000000000FF00000052
:1020D00000000000FF0000000002027C8000000001
:1020E0000040403F00000000FFFFFFFFFFFFFFFF39
:1020F000FFFFFFFFFFFFFFFF0105000000000003DF
:1021000008000000010000000000000000000000C6
:10211000766F6C746167653A004144432076616C68
:102120003A006D5600000000382100000000002039
:08213000680100002801000015
:04000005000000C136
:00000001FF
