:020000040000FA
:10000000600100206D01000071010000730100001B
:1000100000000000000000000000000000000000E0
:10002000000000000000000000000000750100005A
:1000300000000000000000007701000079010000CE
:100040007B0100007B0100007B010000000000003C
:100050007B01000000000000000000000000000024
:10006000000000007B010000000000000000000014
:10007000000000007B010000000000007B01000088
:100080007B010000000000007B0100000000000078
:100090007B010000000000000000000000000000E4
:1000A0007B0100007B010000000000000000000058
:1000B0000000000000000000000000007B010000C4
:1000C00000F002F800F042F812A030C808382418F6
:1000D0002D18AC4201D100F039F80FCCA246AB4646
:1000E0000CA730CF2D1B083F3F197C427F1E544484
:1000F0002D090426F441641EAC4201D300F026F819
:100100000126334200D0FB1A3343984754465D46DC
:10011000DFE70000AC020000BC02000000000000AD
:100120007047000000000000002300240025002686
:10013000103A01D378C1FBD8520700D330C100D5A3
:100140000B6070471FB51FBD10B510BD00F027F83C
:100150001146FFF7F7FF00F01FF900F03FF803B476
:10016000FFF7F2FF03BC00F045F800000648004727
:10017000FEE7FEE7FEE7FEE7FEE7FEE70348044989
:10018000024A044B70470000C100000060000020DC
:10019000600100206000002070477047704775467E
:1001A00000F024F8AE46050069465346C008C0007A
:1001B000854618B020B5FFF7E1FF60BCB6460026C3
:1001C0000027C0C5C0C5C0C5C0C5C0C5C0C5C0C565
:1001D000C0C5403D490849008D46704710B50446EA
:1001E000C046C0462046FFF7BAFF10BD0048704722
:1001F0000000002001491820ABBEFEE726000200E7
:10020000704781B00090801E001F00BFFCD201B07B
:10021000704784B0039002910192039800680090A7
:10022000009801998843009000980299019A114022
:1002300008430399086004B0704782B001900091B0
:100240000098019995225201885002B07047000031
:1002500082B00190009100980199024A885002B042
:100260007047C046D012000081B000900099012074
:10027000C2020248885001B07047C0460100002603
:1002800081B0009000988100024A8120885001B01E
:100290007047C0460480424081B000900099024AF5
:1002A0000248885001B0704704080000030000B104
:1002B00082B00190009100980199024A885002B0E2
:1002C0007047C046B01200000349086801221203BB
:1002D000104308607047C04604010B40024908689B
:1002E00010221043086070473C010B4081B001466A
:1002F0006846017000780249086001B07047C04646
:1003000008030B4080B582B0014601A80170017856
:1003100002480322FFF77DFF02B080BD00010B40C1
:1003200080B582B00820FFF7ABFF0920FFF7A8FFD8
:1003300003200102019121480090FFF77EFF009801
:100340000199FFF785FF02B080BDC04680B582B03D
:1003500000200190FFF7CAFF0198FFF7D3FFFFF7D6
:10036000B3FFFFF7BBFF02B080BD80B500F006F819
:10037000FFF7D6FFFFF7EAFF80BD000080B582B02F
:100380000E480190FFF788FF0198FFF76DFF1020DE
:10039000FFF737FF02B080BD80B582B0002001902A
:1003A000FFF7E3FFFFE70448FFF72BFF01200102FF
:1003B0000248FFF77DFFF6E70048E80100000A4029
:1003C000D0030000000000206001000028010000B0
:04000005000000C136
:00000001FF
