:020000040800F2
:10000000B80D0020310200083F020008410200083C
:1000100043020008450200084702000800000000F3
:10002000000000000000000000000000490200087D
:100030004B020008000000004D0200084F020008BB
:100040005102000851020008510200085102000844
:100050005102000851020008510200085102000834
:100060005102000851020008510200085102000824
:100070005102000851020008510200085102000814
:100080005102000851020008510200085102000804
:1000900051020008510200085102000851020008F4
:1000A000F50E0008190F000851020008510200085F
:1000B000C1100008ED1000082111000851020008CD
:1000C00051020008510200085102000851020008C4
:1000D000510200081D130008791300089513000849
:1000E00051020008510200085102000851020008A4
:1000F0005102000851020008510200085102000894
:100100005102000851020008551100085102000870
:100110009D120008011300088911000865120008EB
:100120005102000851020008510200085102000863
:100130005102000851020008510200085102000853
:100140005102000851020008510200085102000843
:100150005102000851020008510200081114000861
:100160005102000851020008510200085102000823
:100170005102000851020008510200085102000813
:10018000510200085102000800F002F800F041F8A6
:100190000AA090E8000C82448344AAF10107DA45E2
:1001A00001D100F036F8AFF2090EBAE80F0013F0F3
:1001B000010F18BFFB1A43F001031847D43A00009F
:1001C000F43A0000103A24BF78C878C1FAD8520730
:1001D00024BF30C830C144BF04680C6070470000C1
:1001E0000023002400250026103A28BF78C1FBD840
:1001F000520728BF30C148BF0B607047642900F028
:100200007B80002070471FB501F01DFF1FBD10B59A
:1002100010BD00F03DF91146FFF7F5FF01F0BEFDFE
:1002200000F05BF903B4FFF7F2FF03BC01F01EF925
:100230000B48016841F4700101600A480047FEE77D
:10024000FEE7FEE7FEE7FEE7FEE7FEE7FEE7FEE786
:10025000FEE7000004480549034A054B70470000CB
:1002600088ED00E089010008B8090020B80D0020E1
:10027000B8090020704700000FB4044910B503AA64
:10028000029800F0D3F810BC5DF814FB08000020C1
:100290002DE9F0410E460446002020622046E16828
:1002A000884730B3252805D0D4E901219047206A3A
:1002B000401CF2E7E168204600278847050018D077
:1002C000A5F14100192802D820354FF400673246C5
:1002D000294620462760FFF791FF40B1012804D04E
:1002E000F61D26F007060836D8E7361DD6E728465D
:1002F000DAE7206ABDE8F0812DE9F04106460024E6
:1003000010687529314616A510D0AFF3008000287B
:1003100002DA404213A507E031688A0701D512A529
:1003200002E0490704D511A5012401E0AFF30080E4
:1003300000210A2206F1240709E0B0FBF2FCB0FB21
:10034000F2F302FB1C00303078541846491C002898
:10035000F3D123462A463046BDE8F04100F00CB800
:10036000000000002D0000002B0000002000000015
:1003700070477047704770472DE9F0470D46994622
:100380009246044600F124080168880604D5E06915
:1003900021F01001216000E00120A84201DD471B8F
:1003A00000E00027A1697A1902EB0900081AA06190
:1003B0002078C00602D42046AFF30080002608E073
:1003C000D4E901211AF806009047206A401C761CE7
:1003D00020624E45F4DB2078C0060AD52046AFF3F4
:1003E000008006E0D4E9012130209047206A401CBB
:1003F0002062381EA7F10107F4DC07E0D4E90121EF
:1004000018F805009047206A401C2062281EA5F1BC
:100410000105F3DC2046AFF300802078000602D50A
:100420000220BDE8F0870120FBE70000074B70B514
:100430000D467B4400F011F80446284600F020F8F1
:1004400010B14FF0FF3070BD204670BD7B1800002A
:1004500001694A1C02610878704700B58FB0CDE988
:1004600001310021059105497944CDE90310114678
:100470006846FFF70DFF0FB000BD0000E5FFFFFF6E
:10048000007B00F08000704700487047580900204A
:100490007546FFF7F9FFAE4605006946534620F062
:1004A0000700854618B020B5FFF7D4FEBDE8204010
:1004B0004FF000064FF000074FF000084FF0000B20
:1004C00021F00701AC46ACE8C009ACE8C009ACE8D3
:1004D000C009ACE8C0098D46704710B50446AFF3BB
:1004E00000802046BDE81040FFF79CBE1FB50022EB
:1004F00000920192029203926A468DF80000012058
:10050000112955D2DFE801F0090E1318541D5422A9
:10051000272C3136543B454D40001F208DF80100FB
:10052000022045E020208DF80100022040E021203B
:100530008DF8010002203BE024208DF8010002200C
:1005400036E027208DF80100022031E031208DF8BF
:10055000010002202CE033208DF80100022027E06A
:1005600035208DF80100022022E036208DF80100B0
:1005700002201DE037208DF80100022018E03A200B
:100580008DF80100022013E03B208DF801000220CD
:100590000EE042208DF801006C208DF8020003204F
:1005A00006E043208DF801007A208DF80200032038
:1005B0006B211154401CC1B2684601F02FFD1FBDD4
:1005C0001FB5002200920192029203928DF8000062
:1005D000FE208DF8010098208DF802008DF80310A0
:1005E0006B208DF804000521684601F017FD1FBD42
:1005F0007FB5089D002400940194029403948DF823
:100600000000F6208DF801008DF80210100A8DF818
:1006100003008DF804208DF805308DF806506B200E
:100620008DF807000821684601F0F8FC7FBD10B581
:10063000CB0800EB8300036A4907C90E0F248C40E6
:10064000A3430362036A8A401343036210BD2DE98A
:10065000F04FDDE9098900244FF0010A4FF0030B48
:100660000AFA04F701EA0705BD4236D1D0F800C006
:1006700065000BFA05F62CEA060CC0F800C0D0F8AD
:1006800000C002FA05FE4CEA0E0CC0F800C0012AB8
:1006900001D0022A19D1D0F808C02CEA060CC0F803
:1006A00008C0D0F808C008FA05FE4CEA0E0CC0F8E5
:1006B00008C0D0F804C02CEA070CC0F804C0476892
:1006C00003FA04FC47EA0C074760C768B743C760F2
:1006D000C66809FA05F52E43C660641C102CBFD30A
:1006E000BDE8F08F1CB50A48016841F001010160C6
:1006F000016841F01001016000210220CDE90010E5
:100700000B460A4631210348FFF7A1FF1CBD00003C
:1007100030380240000002401CB50948016841F031
:100720002001016001240320CDE9000441020023DF
:1007300022460448FFF78BFF0348046044601CBD59
:100740003038024000140240A4824242F0B505460F
:100750000F4614461E46304600F01EF8C6F104004F
:1007600085400F22F2403A402A436009800000F1A0
:10077000E020D0F8001104F01F050123AB4019431D
:10078000C0F8001104F1E02494F8000440EA0210DB
:1007900084F80004F0BD0000072181430902054AE6
:1007A00010684FF6FF031840034B184308431060CE
:1007B000704700000CED00E00000FA056FF308013F
:1007C000014301480160704708ED00E010B57F2843
:1007D00013D83F2911D80723A3EBD103DBB201F0D3
:1007E0000701C1F107040121A140C9B2054C04EB86
:1007F000C0001AB1C25C0A43C25410BDC25C8A4335
:10080000C25410BD3004002070B500250F4E05F114
:10081000B000C0B2002100F0BFF80021084600F08F
:10082000BBF80021102000F0B7F8002406EBC4004C
:100830000121405D00F0B0F8641CE4B2802CF5D3D7
:100840006D1CEDB2082DE2D370BD00003004002015
:100850002DE9F84F83460E461F46B246780701D071
:10086000012000E0002000EBD70079084843C0B227
:100870000090203A02F0FF09002541E00C2F13D030
:10088000102F18D0182F3ED1204909EBC90001EBD9
:100890008000445D4FF00008200611D531465846CF
:1008A0000A9AFFF793FF12E0194909EB490001EB9F
:1008B0008000445DEEE7174800EB0910445DE9E76E
:1008C0000A9890B1002231465846FFF77FFF600634
:1008D000040E761CF6B2A6EB0A00B84207D15646C3
:1008E0000BF1010B0BF0FF0B08E00122EBE708F125
:1008F000010808F0FF08B8F1080FCDD36D1CEDB268
:1009000000988542BAD3BDE8F88F0000342F000864
:10091000D0240008442900082DE9FF4F81B080460B
:10092000DDF838B092461D46002600244FF001093C
:100930004FEA5B071FE0281B401EC1B20A2001F0EE
:10094000AFFABAFBF0F00A21B0FBF1F201FB1200A2
:1009500026B9691E8C4201DA90B101263030C2B24C
:1009600007FB0480C0B25B46CDF800900299FFF708
:100970006FFF641CE4B2AC42DDD305B0BDE8F08F7C
:1009800007FB0480C0B25B462022CDF8009002999C
:10099000FFF75EFFEDE7000030B50F4AC2F8B01276
:1009A0000024C2F8B44200210123C2F8984205068F
:1009B00002D5C2F89C3201E0C2F89C42C2F89832DB
:1009C0004006000E491CC9B20829EED3C2F8B43261
:1009D000C2F8B03230BD00000080414200EE901AF3
:1009E00090ED010AF8EEE00AB4EEE00AF1EE10FA3A
:1009F00006DD00EE101AB8EEC00A80ED010A0FE025
:100A0000494200EE901AF8EEE00AB4EEE00AF1EE88
:100A100010FA05D200EE101AB8EEC00A80ED010AF5
:100A200090ED010ABDEEC00A10EE100A70470000FA
:100A300000EE101AD0ED000AB8EEC00A30EEC00A7F
:100A400080ED060AD0ED030A90ED041AD0ED071AE6
:100A500090ED052A8168002A07D0254A914226DDBB
:100A6000DFED242AC0ED022A28E0B1F1824F04DD37
:100A7000F2EE002AC0ED022A06E0B1F1414F03D99F
:100A8000FAEE002AC0ED022AD0ED022A72EE802A88
:100A9000C0ED022A60EE800A41EE220A30EE611AB1
:100AA00042EE010AC0ED010A80ED070A18E0124A81
:100AB000914203D9DFED112AC0ED022AD0ED022ABE
:100AC00072EE802AC0ED022A60EE800A41EE220A10
:100AD00030EE611A42EE010AC0ED010A80ED070A0C
:100AE00090ED010ABDEEC00A10EE100A704700003A
:100AF0000000FA440000FA440000FAC40000FAC4FE
:100B000010B5174802781749012A25D14278362AAC
:100B100022D14A78082A1FD18279C37842EA036237
:100B2000037944791B0443EA04231A4300EE102A94
:100B3000B8EE400A81ED010ADFED0B0A20EE200A33
:100B4000DFED0A0A20EE200A81ED020A807818B152
:100B5000B1EE400A81ED020A91ED020A10BD0000DB
:100B6000B0030020580000200000B443000080378C
:100B7000224901281ED0022825D003282CD0042881
:100B800033D0088C40F001000884088C40F002004B
:100B90000884088C40F010000884088C40F0200085
:100BA0000884088C40F480700884088C40F400703D
:100BB00008847047088C40F001000884088C40F0DD
:100BC000020008847047088C40F010000884088CEC
:100BD00040F0200008847047088C40F4807008843E
:100BE000088C40F4007008847047088C40F48050F2
:100BF0000884088C40F400500884704700000140CD
:100C00007CB54A48016841F010010160484E022558
:100C100003240023012287213046CDE90045FFF758
:100C200016FD002302224FF4D4413046CDE90045A1
:100C3000FFF70DFD012209213046FFF7F8FC0122E4
:100C40000B213046FFF7F3FC01220D213046FFF760
:100C5000EEFC01220E213046FFF7E9FC3348143048
:100C6000016841F00101016032484FF6FF71C16235
:100C700007210185018841F001010180018841F0CF
:100C800080010180B0F8441041F40041A0F8441004
:100C9000018B41F060010183018B41F00801018368
:100CA000018C41F001010184018C41F002010184B9
:100CB000018B41F4C0410183018B41F40061018348
:100CC000018C41F010010184018C41F0200101846C
:100CD000818B41F060018183818B41F00801818328
:100CE000018C41F480710184018C41F40071018414
:100CF000818B41F4C0418183818B41F40061818308
:100D0000018C41F480510184018C41F40051018433
:100D1000818941F00101818102B00323BDE8704067
:100D2000192201210846FFF711BD000030380240AA
:100D30000010024000000140F0B50F4C256845F05E
:100D4000010525600C4E00250836356026680B4FDE
:100D50003E402660271D0A4E3E60266826F4802607
:100D60002660054C0C34256000F05CF8BDE8F040CE
:100D700000210846FFF722BD00380240FFFFF6FEC3
:100D8000103000242649012826D002282DD003281F
:100D900034D004283BD0088C20F001000884088C53
:100DA00020F002000884088C20F010000884088CD1
:100DB00020F020000884088C20F480700884088CBF
:100DC00020F400700884088C20F480500884088C7B
:100DD00020F4005008847047088C20F0010008843B
:100DE000088C20F0020008847047088C20F0100066
:100DF0000884088C20F0200008847047088C20F4B8
:100E000080700884088C20F4007008847047088C77
:100E100020F480500884088C20F400500884704727
:100E200000000140F0B50746002400202E4D2E683A
:100E300046F480362E6041F6FF7601E0641CA4B2D1
:100E4000D5F800C05FEA8C3C01D4B442F6D3B4427A
:100E500001D10120F0BD244C4034266846F0805674
:100E60002660224C266846F4404626601E4C083414
:100E7000266846F4144626602E6826F080762E609A
:100E80004FF0FF3641EA871106EB520241EA024178
:100E900041EA0361221F41F480011160296841F099
:100EA0008071296029688901FCD511490A6842F4DA
:100EB00080720A600A6842F400720A600A6842F4AA
:100EC00080620A600A6842F005020A60216821F027
:100ED00003012160216841F0020121602168C1F312
:100EE00081010229FAD1F0BD0038024000700040B3
:100EF000003C02400648018AC90703D00104496A40
:100F0000044A1160018A21F001010182704700004A
:100F10000040014040000020F0B5654E308AC00717
:100F200071D0308A20F001003082624BDC69624D62
:100F3000AC609869002866D0D86920B9D87830B1FB
:100F40009868401C9860D869012804D008E0986827
:100F5000401E9860F7E7187940B1D868401CD86007
:100F6000187801210022012804D049E0D868401EE9
:100F7000D860F5E7587850B1186A002823DA9878D5
:100F800001281ED0987803281BD0D96125E0186A63
:100F9000002809DA9878022804D09878042801D02B
:100FA000D9611AE0DA6118E0186A002815DB987830
:100FB000022804D09878042801D0DA610DE0D961C4
:100FC0000BE0DA6109E0186A002806DB987801284E
:100FD0001AD09878032817D0DA61186ADF69DFF829
:100FE000D8C00CF10C0C5CF82770D3F81CC07F0043
:100FF00003EB8C0CDCF808C007FB0C00401C1862EB
:10100000187818B125E04FE0D961E6E7186A0028A2
:1010100005DDDA61186A5969401A186219E0186A20
:10102000002805DAD961186A19690844186210E0C5
:10103000186A70B958691F69B84205DDD961186A24
:1010400019690844186204E0DA61186A5969401A9B
:101050001862D869A04207D0D86958B10220FFF7BA
:1010600087FD0120FFF78EFE9869401E9861986900
:1010700038B10AE00120FFF77BFD0220FFF782FE76
:10108000F2E7304600F001F92A706868401C686099
:1010900040F21721884207DB0849D1F8A40220B1A9
:1010A0000020C1F8A4026A60F0BD0120F9E7000049
:1010B00000000140340900207000002000804242FE
:1010C0004FF08042108AC0070DD010880649C30631
:1010D000486802D5401E486001E0401C4860108A04
:1010E00020F0010010827047100000200A4A10888A
:1010F000C0070FD00848103800880849C30608699F
:1011000002D5401E086101E0401C0861108820F0F3
:101110000100108070470000100400401000002003
:101120000A4A1088C0070FD00848103800880849BC
:10113000C306C86902D5401EC86101E0401CC861F1
:10114000108820F001001080704700001008004057
:10115000100000200A4A1088C0070FD00848103835
:1011600000880849C306886A02D5401E886201E0EB
:10117000401C8862108820F0010010807047000039
:10118000100C004010000020F8B5324D288AC0072E
:101190005AD0314E314896ED010AB8EEC00A80EDC2
:1011A000090A2430012204463168FFF741FC40F669
:1011B000B8312046FFF712FC294C20601827009711
:1011C0000021052308463268FFF7A6FB0097226836
:1011D000002A00DC5242052328210020FFF79CFB57
:1011E000FFF712FBD6E901013268431A934203DA92
:1011F0000144914200DD3060316840F21452914266
:1012000007DD814205DAC8220021206800F051FE86
:1012100011E0814208DDB1F52F6F05DAC822002107
:10122000206800F046FE06E000210120FFF7C8F923
:10123000C82000F0D3FCC82000F0D0FC0A21012017
:10124000FFF754F9FFF75CFC288A20F001002882A0
:10125000F8BD000000100040400000204C010020BC
:101260006C00002003480188018821F00101018001
:101270007047000010140040818941F00101818114
:10128000018841F0010101807047818921F001014D
:101290008181018821F001010180704730B4154837
:1012A000008880061FD51348001D0088C1B2124A6D
:1012B0001088030417D444044FF0000307D50A290B
:1012C00001D013800FE040F4004010800BE00D29A6
:1012D0000CD00A4DC0F30D042955401C80B210807B
:1012E000C72800D9138030BC00F0E2BD40F4804034
:1012F0001080F8E7004C004056000020E802002073
:1013000008B505480188890604D58088009068469C
:1013100000F0C4F808BD00000050004030B513488C
:10132000018889060CD58088C1B2114A108803044F
:1013300006D444044FF0000307D50A2901D01380D6
:1013400030BD40F40040108030BD0D290AD0094D59
:10135000C0F30D042955401C80B21080C728F3D972
:10136000138030BD40F48040108030BD001001403B
:10137000040000208400002004480088800604D572
:101380000248001D00880249087070470044004070
:1013900054000020F8B5002600961A4C40F225575C
:1013A0003946204600F042F8251D48B12888C0B2D1
:1013B00000F050FC39462046BDE8F84000F02EB859
:1013C00040F22441204600F031F8002818D020884F
:1013D000288800F053FC0C4D687000960B4C08E018
:1013E00000F024FCBDF800106054BDF80000401C63
:1013F0000090BDF8000069788842F1D30120287080
:10140000F8BD00000048004058000020B003002054
:1014100001480088704700000014014040F66A123D
:101420000A0A01219140C9430180704770B5002428
:1014300040F66A12C1F3421301F01F05012606FAB5
:1014400005F2012B0CD0022B0DD0838A1340090A20
:101450008E40008830400BB100B10124204670BDA1
:1014600083891340F3E7038A1340F0E770470000D5
:1014700070B5FF23FF22084D05F5807605E010F8D2
:10148000014B54402A5D5A40335D491E89B2F6D261
:1014900042EA032070BD0000502000082DE9F04111
:1014A00086B0CC4D2978112901D30021297001780B
:1014B000C94E2A78B15400785C287CD128780D3048
:1014C0001127B0FBF7F107FB1100305C01ACC52818
:1014D00067D10020297801440D31B1FBF7F207FBF9
:1014E0001211715C2154401CC0B20228F2D30221B7
:1014F00001A8FFF7BDFF29781031B1FBF7F207FB18
:101500001211725C29780F31B1FBF7F307FB13114D
:10151000715C42EA0121884243D128780E30B0FB49
:10152000F7F107FB1100305C19283AD1AA481021C5
:10153000183000F053F9A8481121183000F04EF986
:10154000A5481221183000F049F9A348132118309A
:1015500000F044F9A0481421183000F03FF99E48EB
:101560001521183000F03AF99B481621183000F088
:1015700035F999481721183000F030F996481821AC
:10158000183000F02BF94FF02008934841461830EE
:1015900000F024F908F1010808F0FF08B8F1290F5C
:1015A000F3D328780C30B0FBF7F107FB1100305C67
:1015B000DFF8248200E006E108F1F008C52842D1F6
:1015C0000020297801440C31B1FBF7F207FB12111E
:1015D000715C2154401CC0B20328F2D3032101A83E
:1015E000FFF746FF29781031B1FBF7F207FB121124
:1015F000725C29780F31B1FBF7F307FB1311715CB3
:1016000042EA012188421ED128780D30B0FBF7F163
:1016100007FB1100305C212802D0222813D109E0F9
:1016200028780E30B0FBF7F107FB1100305C88F82A
:10163000000008E028780E30B0FBF7F107FB11003E
:10164000305C88F8010028780B30B0FBF7F107FB1D
:101650001100305CC52861D10020297801440B318C
:10166000B1FBF7F207FB1211715C2154401CC0B2B0
:101670000428F2D3042101A8FFF7FAFE29781031DB
:10168000B1FBF7F207FB1211725C29780F31B1FB45
:10169000F7F307FB1311715C42EA012188423DD147
:1016A00028780C30B0FBF7F107FB1100305C2328E1
:1016B00002D0242832D119E028780E30B0FBF7F19F
:1016C00007FB1100315C28780D30B0FBF7F207FB07
:1016D0001200305C41EA002000B200EE100AD8F897
:1016E0000400B8EEC00A80ED000A17E028780E303A
:1016F000B0FBF7F107FB1100315C28780D30B0FB2F
:10170000F7F207FB1200305C41EA002000EE100AFD
:10171000D8F80800B8EE400A80ED000A2878401C8E
:10172000B0FBF7F107FB1100305CC5284BD100205E
:1017300029780144491CB1FBF7F207FB1211715CD7
:101740002154401CC0B20E28F2D30E2101A8FFF78D
:101750008FFE29781031B1FBF7F207FB1211725C92
:1017600029780F31B1FBF7F307FB1311715C42EAE3
:101770000121884227D12878801CB0FBF7F107FBB4
:101780001100305C313809281DD80020124A183267
:1017900029780144C91CB1FBF7F307FB1311735CF3
:1017A0002978891CB1FBF7F407FB1411715C3139FE
:1017B00001EB410102EB8101014481F84030401C02
:1017C000C0B20C28E4D32878401C287006B0BDE8CD
:1017D000F08100004C000020E001002070B58AB0CC
:1017E000C5228DF800200224A1F11003DFEDE00AEC
:1017F00064229FEDE00A6D46212B7CD2DFE803F0E6
:10180000111823335499B3DFFDFCFB7B7B7B7B7B7F
:10181000FAFAFAFAFAFAFAFAFAFA7B7B7B7B7B7B22
:10182000F9008DF80110007803248DF8020086E19C
:101830008DF801104188090A8DF80210807804247F
:101840008DF803007BE18DF80110017901F00801AA
:101850008DF80210C188090A8DF8031080790524DB
:101860008DF804006BE18DF8011090ED020A6523FC
:10187000BCEEC00A10EE101AC9B2B1FBF3F403FBC0
:1018800014118DF8021090ED020A042420EE200AB3
:10189000BCEEC00A10EE100A80B2B0FBF2F102FBFF
:1018A00011008DF803004AE18DF80110D0ED030A14
:1018B00060EE800AFDEEE00A10EE901A090A8DF83B
:1018C0000210D0ED030A60EE800AFDEEE00A10EE91
:1018D000901A8DF80310D0ED040A60EE800AFDEE38
:1018E000E00A10EE901A090A8DF80410D0ED040AEF
:1018F00060EE800A00E01FE1FDEEE00A10EE901AB3
:101900008DF80510D0ED050A60EE800AFDEEE00AC4
:1019100010EE901A090A8DF80610D0ED050A082479
:1019200020EE800ABDEEC00A10EE100A8DF8070006
:1019300005E18DF8011090ED060ADFED8F0A30EE1B
:10194000200ABCEEC00A10EE101A8DF8021090EDBD
:10195000070A042430EE200ABCEEC00A10EE100A7A
:101960008DF80300EBE08DF8011020304168090E7E
:101970008DF802104168090C8DF803108188090A5E
:101980008DF8041001798DF8051001680279090EAF
:1019900041EA02218DF8061001680279090C41EA3A
:1019A00002418DF8071001880279090A41EA0261B3
:1019B0008DF8081000780A248DF80900BFE08DF832
:1019C000011090ED0A0ABDEEC00A10EE101A8DF853
:1019D000021090ED0A0A20EE200ABDEEC00A10EEB9
:1019E000101A09B291FBF2F302FB13118DF80310E8
:1019F00004E08DE06CE052E038E02FE090ED0B0A5F
:101A0000BDEEC00A10EE101A8DF8041090ED0B0A0E
:101A100020EE200ABDEEC00A10EE101A09B291FBAA
:101A2000F2F302FB13118DF8051090ED0C0ABDEED8
:101A3000C00A10EE101A8DF8061090ED0C0A08245A
:101A400020EE200ABDEEC00A10EE100A00B290FB94
:101A5000F2F102FB11008DF8070070E08DF8011023
:101A600090F8340003248DF8020068E08DF801102E
:101A7000D0ED0E0A60EE800AFDEEE00A10EE901A3C
:101A8000090A8DF80210D0ED0E0A042420EE800A17
:101A9000BDEEC00A10EE100A8DF803004FE08DF87D
:101AA000011090ED0F0A20EE200ABDEEC00A10EEE4
:101AB000101A090A8DF8021090ED0F0A042420EE86
:101AC000200ABDEEC00A10EE100A8DF8030036E0C1
:101AD0008DF801100022203901EB410100EB810655
:101AE00006EB8200611C10F8403FC9B22B554478C8
:101AF0004B1CDBB26C548478591CC9B2EC54C378CB
:101B0000481CC4B26B54521CD2B2032AE8D316E06C
:101B10008DF80110002100EB410333F8B82F160AAD
:101B2000621CD2B22E551B78541CE4B2AB54491C33
:101B3000C9B21029EFD302E0FE208DF801009DF814
:101B40000100FE2811D021466846FFF791FC020AE9
:101B5000611CC9B22A554A1CD2B268545C23501C7D
:101B6000C1B2AB54684600F0C1F90AB070BD0000C4
:101B70000000C84200007A44000048424FF0E021D3
:101B80000A6922F004020A610649C008087000EBE5
:101B90004002C2EBC0104FF6FF7202EAC00048805C
:101BA000704700000000002070B54FF40775B0FBCF
:101BB000F5F1CCB2B0FBF5F105FB110604E02846C7
:101BC00000F020F8641EE4B2002CF8D1002E04D0FE
:101BD0003046BDE8704000F015B870BD084909787E
:101BE00048434FF0E021486100238B6101200861E8
:101BF0000869C20701D0C003FAD50B618B61704739
:101C0000000000200849498848434FF0E02148611E
:101C100000238B61012008610869C20701D0C0035D
:101C2000FAD50B618B61704700000020084991F8DC
:101C3000010131F8100091F80121521C81F80121B5
:101C400091F80121802A02D3002281F801217047F6
:101C500030080020084991F8002121F8120091F87D
:101C60000001401C81F8000191F80001802802D396
:101C7000002081F800017047300800200B4890F8E0
:101C8000011190F80021914206D890F8001190F8C7
:101C90000101081A80B2704790F8011190F8000114
:101CA000C1F18001084480B2704700003008002074
:101CB00003490A885206FCD5C2B28A8070470000E8
:101CC0000010014030B5194B00241C6218615961A5
:101CD0005869196908449861586919690125884249
:101CE00005DDDD61186A19690844186204E0DC61E9
:101CF000186A5969401A18620D4C6263A263510058
:101D0000E162D96959B10220FEF732FF0120FFF7E5
:101D100039F82046FFF7B0FA0648057030BD0120BB
:101D2000FEF726FF0220FFF72DF8F2E73409002026
:101D30000000014070000020F0B4154B1B78002B10
:101D400023D1144B00251D70134C0126002806DA00
:101D5000DD704042676927F00107676104E0DE70CB
:101D6000676947F001076761002906DA1D7149427A
:101D7000636923F00203636104E01E71636943F049
:101D800002036361F0BCFFF79DBFF0BC7047000029
:101D900070000020340900200010024007230222B6
:101DA00008214FF4A870FEF7C7FFA820FFF7E6FE52
:101DB0004FF4E131542000F0ABF8FEF7ADFCFEF734
:101DC00091FCFEF71DFF6420FFF7EEFE294E2A4C22
:101DD0002A4D6420FFF7E8FED6F8A40200B30020E5
:101DE000C6F8A402D4F80002E0B12320FFF7DCFE1D
:101DF00023A0FEF741FA0020C6F8A402C6F8A80204
:101E000001210A202A68FFF797FF1F48017800295F
:101E1000FCD11EA0FEF730FA2320FFF7C5FED8E75D
:101E20000120DDE7D4F8100278B10F20FFF7BCFEE7
:101E3000D4F8100228B129680A31296015A0FEF7EC
:101E40001BFA0F20FFF7B0FEC3E7D4F814020028F6
:101E5000BFD00F20FFF7A8FED4F8140228B12968DC
:101E60000A3929600BA0FEF707FA0F20FFF79CFE46
:101E7000AFE7000000804242000040420C0000201A
:101E80003435360D0A000000700000203132330D69
:101E90000A0000005350454544202025640D0A00E7
:101EA0000346012000E05843491EC9B2FBD27047E7
:101EB000704738B51446002200280BDBCBB20092E5
:101EC00082B201210846FEF793FB2046BDE8384068
:101ED000FFF784BE0092CBB282B200210120FEF750
:101EE00087FB2046BDE83840FFF778BE10B50022DA
:101EF000064B05E01C886406FCD5845C9C80521C63
:101F00008A42F7DB18884006FCD510BD005000401F
:101F10007CB5314A504300EE100A0801F8EE400A41
:101F200000EE100AB8EE401A80EE810AFCEEC00AFC
:101F300010EE900A80B200EE900AF8EE600A30EEE1
:101F4000600AF3EE000A20EE200ABCEEC00A10EE92
:101F5000101A4FF6FF7202EA001045181F48016878
:101F600041F0010101601D481430016841F0100189
:101F7000016002210120CDE90010194C0A4600231E
:101F80004FF4C0612046FEF762FB0722092120467C
:101F9000FEF74DFB07220A212046FEF748FB114CB5
:101FA0002581A08920F40040A081A08940F008008C
:101FB000A081A08940F00400A081A08940F0200009
:101FC000A0810321022325220846FEF7BFFBA0893A
:101FD00040F40050A0817CBD40420F0030380240E8
:101FE000000002400010014008B5002100910A499C
:101FF000C0F3080008804FF4FA52091F07E0BDF84B
:102000000000401C0090BDF80000904202D80888F3
:102010000006F4D508BD00000448004038B5044669
:102020000D4600200090009008E09DF80000205C24
:10203000FFF7DAFF9DF80000401C00909DF80000BB
:10204000A842F2D338BD4FF04070E1EE100A70475D
:1020500000C1814001C0804101C0804100C1814078
:1020600001C0804100C1814000C1814001C0804168
:1020700001C0804100C1814000C1814001C0804158
:1020800000C1814001C0804101C0804100C1814048
:1020900001C0804100C1814000C1814001C0804138
:1020A00000C1814001C0804101C0804100C1814028
:1020B00000C1814001C0804101C0804100C1814018
:1020C00001C0804100C1814000C1814001C0804108
:1020D00001C0804100C1814000C1814001C08041F8
:1020E00000C1814001C0804101C0804100C18140E8
:1020F00000C1814001C0804101C0804100C18140D8
:1021000001C0804100C1814000C1814001C08041C7
:1021100000C1814001C0804101C0804100C18140B7
:1021200001C0804100C1814000C1814001C08041A7
:1021300001C0804100C1814000C1814001C0804197
:1021400000C1814001C0804101C0804100C1814087
:1021500000C0C101C30302C2C60607C705C5C40447
:10216000CC0C0DCD0FCFCE0E0ACACB0BC90908C8B7
:10217000D81819D91BDBDA1A1EDEDF1FDD1D1CDCA7
:1021800014D4D515D71716D6D21213D311D1D01017
:10219000F03031F133F3F23236F6F737F53534F407
:1021A0003CFCFD3DFF3F3EFEFA3A3BFB39F9F83877
:1021B00028E8E929EB2B2AEAEE2E2FEF2DEDEC2C67
:1021C000E42425E527E7E62622E2E323E12120E0D7
:1021D000A06061A163A3A26266A6A767A56564A4C7
:1021E0006CACAD6DAF6F6EAEAA6A6BAB69A9A86837
:1021F00078B8B979BB7B7ABABE7E7FBF7DBDBC7C27
:10220000B47475B577B7B67672B2B373B17170B096
:102210005090915193535292965657975595945486
:102220009C5C5D9D5F9F9E5E5A9A9B5B99595898F6
:10223000884849894B8B8A4A4E8E8F4F8D4D4C8CE6
:102240004484854587474686824243834181804056
:10225000FEFEBEFDBEF3800FBEFFBEFF8000BEFFD0
:10226000BEFFFEFEFBDEF7BDEF7B9EF7F9CFFFFF63
:10227000FFDFEFDFF3BFFF7F0000FBFEFBFDFBF3A3
:10228000FB8F007FFB9FFBE7BBFBCBFDFBFEFFFF54
:10229000FDFFFDFDBDFBCC07FFFBFFF5EFEDEF9D67
:1022A000EE7D01FDEFEDEFF5EFEDE01DFFFDFFFF32
:1022B000FEFFFEFFFEFFFEFF0000FEFDFE7BFAB705
:1022C000F6DFEEEFDEF7BEFBFEFBFEFDFEFDFFFFE1
:1022D000FFDFFFDFBDDFDDDFE5DFFDDFFDDF00006E
:1022E000FDDFFDDFF5DFEDDF9DDFFFDFFFDFFFFF60
:1022F000FFBFF77FEEFFDC0033FFFEFDBEBDBDBDBF
:10230000BBBDB781A7BD9BBDBBBDFDBDFEFDFFFF36
:10231000FFFFFF80FFBD81BDBDBDBD80BDFFBDFF17
:10232000BDFFBD80BDBD81BDFFBDFF80FFFFFFFFC5
:10233000DBEFDB9FDA7F80003B7FBB9FFFFFF01F5F
:10234000F7BFF7BF0000F7BFF7BFF01FFFFFFFFFAA
:10235000FFFB8303BBFBB807BB778377FFFF8001DD
:10236000BBDDBBDDBBDDBBDDBBDDB81DBFFDFFFFE6
:10237000DFFFDF80DFBFD0BFDEB7D4A35A979A3725
:10238000DAB7D4A7DEB3D0BDDFBEDF81DFFFFFFF4A
:10239000FFFDBFFDBFFDBC01BFFDBFFDBFFD800157
:1023A000BEFDBEFDBEFDBEFDBEFDBFFDFFFDFFFFD0
:1023B000EFFFEFFEEFFDEFFBEFE7E01F6EFF8EFF9D
:1023C000EEFDEEFEEEFDEE03EFFFEFFFEFFFFFFF92
:1023D000FFFBDFFBDEFBDEFBDEFBDEFBDEFBDEFB13
:1023E000DEFBDEFBDEFBDEFBDEFBDFFBFFFBFFFFDE
:1023F000FBFEF7F9E807DB6F1B6FDB6FDB6FD801C4
:10240000DB6FD36FCB6DFB6EF801FFFFFFFFFFFFAC
:10241000FFFF8000BFFDBDF5ADCDAC3DADFDADFD19
:10242000AC0DADF5ADF5BDC5BFFD8000FFFFFFFFF5
:10243000DFFDDFFDD841DFDD0FDDD041DFDDDF5D1A
:10244000D0DDDDC10CDDDD5DDDC1DDFDDFFDFFFFCC
:10245000F7BFF7BDF77E0001F6FFEFEFEEEFEEEF0F
:102460000000FFFFFFFF0000EEEFEEEFEFEFFFFFDA
:10247000FFFEFFFDFFF3818FBDF7BDFBBDFDBC017E
:10248000BDDDBDDDBDDD81DDFFDDFFFDFFFDFFFF4E
:10249000DFFBDEF9DEFBC007DEF7DEF7F7F7F5EF6F
:1024A000F65DF7BE0001F67F779F976FF6F7FFFFA7
:1024B000000000000000000000000000000000001C
:1024C000000000000000000000000000000000000C
:1024D00000000000000000000000000000000000FC
:1024E0003F400000000000000000300040003000CD
:1024F0004000000009000BC03D000BC03D0009007A
:1025000018C024407FE0224031800000180024C021
:102510001B000D803240018003801C4027401C803E
:1025200007400040100060000000000000000000B4
:102530000000000000001F802040402000004020DC
:1025400020401F8000000000090006001F800600D8
:1025500009000000040004003F80040004000000A3
:1025600000100060000000000000000004000400F3
:10257000040004000400000000000040000000000F
:1025800000000000002001C00600380040000000EC
:102590001F802040204020401F800000000010408D
:1025A0003FC000400000000018C0214022402440ED
:1025B0001840000010802040244024401B80000070
:1025C00002000D0011003FC0014000003C8024408B
:1025D00024402440238000001F80244024403440B5
:1025E000038000003000200027C0380020000000D9
:1025F0001B802440244024401B8000001C0022C07B
:10260000224022401F80000000000000084000001F
:102610000000000000000000046000000000000056
:10262000000004000A001100208040400900090059
:10263000090009000900000000004040208011004E
:102640000A000400180020002340240018000000A5
:102650001F802040274029401F400000004007C045
:1026600039000F0001C0004020403FC024402440FA
:102670001B8000001F802040204020403080000050
:1026800020403FC0204020401F80000020403FC02D
:1026900024402E4030C0000020403FC024402E0087
:1026A000300000000F0010802040224033800200E4
:1026B00020403FC0040004003FC020402040204094
:1026C0003FC02040204000000060202020203FC06C
:1026D0002000200020403FC024400B0030C020409C
:1026E00020403FC020400040004000C03FC03C00B0
:1026F00003C03C003FC0000020403FC00C4023000E
:102700003FC020001F802040204020401F8000004C
:1027100020403FC024402400180000001F802140BA
:10272000214020E01FA0000020403FC024402600A0
:1027300019C0004018C024402440224031800000CD
:10274000300020403FC020403000000020003F808B
:10275000004000403F80200020003E0001C00700F4
:1027600038002000380007C03C0007C038000000D7
:10277000204039C0060039C0204000002000384009
:1027800007C0384020000000304021C026403840BB
:1027900020C00000000000007FE04020402000003A
:1027A000000070000C00038000400000000040208A
:1027B00040207FE0000000000000200040002000DA
:1027C00000000000001000100010001000100010A9
:1027D0000000000040000000000000000000028037
:1027E0000540054003C0004020003FC004400440B5
:1027F0000380000000000380044004400640000005
:1028000000000380044024403FC0004000000380DB
:102810000540054003400000000004401FC0244064
:1028200024402000000002E005500550065004201E
:1028300020403FC00440040003C0004000000440AA
:1028400027C000400000000000100010041027E026
:102850000000000020403FC00140070004C00440C9
:10286000204020403FC000400040000007C004005E
:1028700007C0040003C00000044007C00440040077
:1028800003C00040000003800440044003800000B7
:10289000041007F00450044003800000000003808F
:1028A0000440045007F00010044007C00240040038
:1028B00004000000000006400540054004C0000080
:1028C000000004001F800440004000000400078056
:1028D0000040044007C000400400070004C001801D
:1028E00006000400060001C0070001C00600000049
:1028F000044006C0010006C0044000000410071098
:1029000004E00180060004000000044005C0064009
:10291000044000000000000004007BE040200000B4
:10292000000000000000FFF0000000000000402058
:102930007BE0040000000000400080004000200018
:102940002000400000000000000000000000000027
:10295000000000000000000000001FCC000C000080
:102960000000000000000800300060000800300097
:1029700060000000022003FC1E20022003FC1E2039
:102980000220000000000E1811043FFF10840C7894
:10299000000000000F0010840F3800C00778188472
:1029A0000078000000780F8410C411240E9800E411
:1029B00000840008080068007000000000000000AB
:1029C0000000000000000000000007E018182004CC
:1029D00040020000000040022004181807E0000038
:1029E000000000000240024001800FF00180024020
:1029F000024000000080008000800FF8008000800E
:102A0000008000000001000D000E0000000000002A
:102A10000000000000000080008000800080008036
:102A2000008000800000000C000C0000000000008E
:102A30000000000000000006001800600180060091
:102A400018002000000007F008081004100408080F
:102A500007F000000000080408041FFC0004000444
:102A60000000000000000E0C10141024104411840B
:102A70000E0C000000000C18100411041104128840
:102A80000C700000000000E00320042408241FFC58
:102A90000024000000001F98108411041104108805
:102AA00010700000000007F0088811041104188855
:102AB0000070000000001C00100010FC13001C003F
:102AC0001000000000000E381144108410841144DE
:102AD0000E38000000000700088C104410440888DD
:102AE00007F00000000000000000030C030C0000D1
:102AF00000000000000000000001010600000000CE
:102B000000000000000000800140022004100808BE
:102B100010040000022002200220022002200220D5
:102B200002200000000010040808041002200140E8
:102B30000080000000000E001200100C106C1080CD
:102B40000F00000003E00C1813E4142417C4082835
:102B500007D000000004003C03C41C40074000E410
:102B6000001C000410041FFC1104110411040E8841
:102B70000070000003E00C1810041004100410088A
:102B80001C10000010041FFC10041004100408089E
:102B900007F0000010041FFC1104110417C41004F6
:102BA0000818000010041FFC1104110017C01000C9
:102BB0000800000003E00C181004100410441C78F6
:102BC0000040000010041FFC10840080008010846E
:102BD0001FFC10040000100410041FFC100410045B
:102BE0000000000000030001100110011FFE100092
:102BF0001000000010041FFC110403801464181C52
:102C00001004000010041FFC100400040004000461
:102C1000000C000010041FFC1F0000FC1F001FFC24
:102C20001004000010041FFC0C04030000E0101846
:102C30001FFC100007F00808100410041004080816
:102C400007F0000010041FFC10841080108010801A
:102C50000F00000007F0081810241024101C080AA8
:102C600007F2000010041FFC1104110011C0113004
:102C70000E0C000400000E1C11041084108410447B
:102C80001C3800001800100010041FFC1004100075
:102C90001800000010001FF81004000400041004C5
:102CA0001FF8100010001E0011E0001C00701380BF
:102CB0001C0010001FC0103C00E01F0000E0103C92
:102CC0001FC000001004180C163401C001C01634D7
:102CD000180C100410001C00130400FC13041C004A
:102CE000100000000804101C1064108413041C045D
:102CF000101800000000000000007FFE40024002AB
:102D000040020000000030000C0003800060001C46
:102D10000003000000004002400240027FFE00006D
:102D200000000000000000002000400040004000C3
:102D3000200000000001000100010001000100016D
:102D400000010001000040004000200000000000E1
:102D500000000000000000980124014401440144E7
:102D600000FC000410001FFC00880104010400881E
:102D700000700000000000700088010401040104DC
:102D800000880000000000700088010401041108A0
:102D90001FFC0004000000F8014401440144014408
:102DA00000C800000000010401040FFC110411041C
:102DB00011001800000000D601290129012901C9CC
:102DC0000106000010041FFC008401000100010442
:102DD00000FC000400000104190419FC00040004B4
:102DE000000000000000000300010101190119FEAC
:102DF0000000000010041FFC0024004001B4010C7E
:102E0000010400000000100410041FFC0004000472
:102E100000000000010401FC0104010001FC0104A8
:102E2000010000FC010401FC008401000100010418
:102E300000FC0004000000F8010401040104010486
:102E400000F80000010101FF008501040104008871
:102E500000700000000000700088010401040105FA
:102E600001FF00010104010401FC008401040100D0
:102E700001800000000000CC012401240124012471
:102E80000198000000000100010007F8010401049E
:102E900000000000010001F8000400040004010823
:102EA00001FC0004010001800170000C00100160B1
:102EB0000180010001F0010C003001C00030010C64
:102EC00001F0010000000104018C00740170018C0C
:102ED00001040000010101810171000E0018016070
:102EE0000180010000000184010C013401440184CF
:102EF000010C0000000000000000000001003EFC8A
:102F0000400240020000000000000000FFFF00003F
:102F1000000000000000400240023EFC01000000F2
:102F200000000000000060008000800040004000C1
:102F30002000200000000000000000000000000051
:102F40000000000000000000000000000000000081
:102F50000000000000000000000000000000000071
:102F6000000000000000000F80380FFE380F80388E
:102F70000000000000000000000000000000000051
:102F800000000100000600000C00003800003100C5
:102F9000000600000C0000380000300000000000B7
:102FA0000000000061800067F807F9800061800080
:102FB00061800061800061800067F807F98000612E
:102FC0008000000000000000000001C0E003E0F00D
:102FD0000630080418081FFFFE040E080787F003D8
:102FE00081E000000000000001F000060C00040475
:102FF00008060C7001F9C0000E00003BE000EC1860
:10300000070808040C180003E00000000001E000BD
:1030100007F003F818041C0804170807E1D003C0E0
:10302000E00023B0003C0800200800001000000071
:103030000000000100003100003200001C00000010
:103040000000000000000000000000000000000080
:103050000000000000000000000000000000000070
:10306000000000007F0001FFC00780F00C00181076
:1030700000042000020000000000002000021000F8
:10308000040C00180780F001FFC0007F0000000062
:103090000000000000000000000000000000000030
:1030A0004200006600006600003C0000180003FFBC
:1030B000C0001800003C00006600006600004200EE
:1030C00000000000080000080000080000080000E0
:1030D000080001FFC0000800000800000800000808
:1030E0000000080000000000000100003100003274
:1030F00000001C00000000000000000000000000B4
:1031000000000000000000000000000008000008AF
:103110000000080000080000080000080000080087
:103120000008000008000008000000000000000087
:1031300000000000380000380000380000000000E7
:10314000000000000000000000000000000000007F
:1031500000000000000600001C000070000180005C
:103160000E0000380000C0000700001C0000300006
:1031700000000000000000007F8001FFE00380707D
:1031800006001804000804000806001803807001F7
:10319000FFE0007F80000000000000000000010050
:1031A0000801000801000803FFF807FFF800000805
:1031B00000000800000800000000000000000001FE
:1031C000C03802C05804009804011804021804040E
:1031D00018061C1803F81801E0F8000000000000B1
:1031E00000000001C0E003C0F00400080408080467
:1031F000080806180803F41801E7F00001E00000D1
:1032000000000000000000000300000D000011009D
:1032100000610000810803010807FFF80FFFF800B4
:1032200001080001080000000000000000E007FCA9
:10323000D0060808061008061008061008061838F8
:10324000060FF00607C000000000000000000000AC
:103250003F8001FFE00384300208180410080410C6
:1032600008041008071810030FF00007C000000042
:1032700000000000000003C0000700000600000678
:1032800000F80607F806180006E000070000060030
:103290000000000000000001E1E003F7F006341038
:1032A000041808041808040C08040C08061618036F
:1032B000F3F001C1E000000000000000F80003FC92
:1032C000300306380402080402080402080404104B
:1032D0000308F001FFC0007F0000000000000000B4
:1032E00000000000000000000000000070380070C6
:1032F00038007038000000000000000000000000EE
:1033000000000000000000000000000000000000BD
:10331000301A00301C000000000000000000000017
:103320000000000000000000000000080000140081
:1033300000220000410000808001004002002004C3
:10334000001008000800000000000000210000211B
:1033500000002100002100002100002100002100C8
:1033600000210000210000210000000000000000FA
:103370000000080008040010020020010040008046
:10338000800041000022000014000008000000003E
:1033900000000003C00004C000040000080038085A
:1033A0000F380808380810000C300007E00003C090
:1033B00000000000000000003F8000FFE00380707C
:1033C000020F1006708804C088048308047F8802F6
:1033D000C09003012000FE4000000800001800011A
:1033E000F8003E0801C20007020007E20000FE00EC
:1033F000001FC80001F8000038000008040008079A
:10340000FFF807FFF804080804080804080804087F
:103410000806180803F41801E7F00001E0000000B6
:10342000000000003F8001FFE003807002001804EC
:1034300000080400080400080400100600200780AB
:10344000C000000004000807FFF807FFF8040008A8
:103450000400080400080400180200100380700132
:10346000FFE0007F8000000004000807FFF807FF6E
:10347000F8040808040808040808040808043E08BA
:10348000040008060018010060000000040008079E
:10349000FFF807FFF80408080408000408000408FF
:1034A00000043E000600000600000180000000004D
:1034B000000000003F8001FFE00380700600180458
:1034C00000080402080402080203F00783F0000267
:1034D0000000020004000807FFF807FFF8040808CE
:1034E00000080000080000080000080004080807A1
:1034F000FFF807FFF80400080000000000000400C7
:103500000804000804000807FFF807FFF804000893
:103510000400080400080000000000000000000093
:10352000000600000700000104000104000104007F
:103530000307FFFE07FFFC04000004000004000076
:1035400004000807FFF807FFF8040C080018000043
:103550003E0004C7800503C80600F80400380400D4
:103560001800000804000807FFF807FFF804000827
:103570000000080000080000080000080000080023
:10358000001800006000000004000807FFF8078032
:103590000807FC00007FC00003F80007C0007800A7
:1035A00007800807FFF807FFF80400080400080771
:1035B000FFF807000803C00000E000003800001E0C
:1035C000000007000001C00400F007FFF80400003D
:1035D000000000007F8001FFE003807006001804F7
:1035E000000804000806001803003001FFE0007F17
:1035F0008000000004000807FFF807FFF804040833
:10360000040400040400040400040400060C000385
:10361000F80001F000000000000000007F8001FFC2
:10362000E00380700600880400880400C806003C9F
:1036300003003E01FFE6007F84000000040008074D
:10364000FFF807FFF8040808040800040C00040F42
:1036500000040BC00610F003F03801E00800000879
:1036600000000001E0F803F03006301004180804F0
:103670001808040C08040C080206180207F0078159
:10368000E0000000018000060000040000040000CB
:1036900004000807FFF807FFF8040008040000040E
:1036A000000006000001800004000007FFE007FFA3
:1036B000F0040018000008000008000008000008DE
:1036C00000000804001007FFE004000004000006EA
:1036D000000007E00007FE00041FE00001F8000002
:1036E000380001E0043E0007C000060000040000AE
:1036F00004000007E00007FFC0041FF80007C00730
:10370000F80007FF80043FF80007C004F800070036
:103710000004000000000004000806001807C0783C
:1037200005F1C8003E00001F800463E80780F8062A
:1037300000180400080000000400000600000780D4
:103740000007E008047C08001FF80007F8001808CC
:1037500004E008070000060000040000000000016B
:1037600000080600380400F80403E8040F08047C8D
:103770000805F00807C008070018040060000000F2
:103780000000000000000000000000000000003FFA
:10379000FFFE200002200002200002200002200084
:1037A0000200000000000000000008000007000008
:1037B00000C0000038000006000001C0000030001A
:1037C000000E0000010000000000000000002000CA
:1037D000022000022000022000022000023FFFFE23
:1037E00000000000000000000000000000000000D9
:1037F0000000000000080000100000300000200061
:103800000030000010000008000000000000000070
:1038100000000100000100000100000100000100A3
:103820000001000001000001000001000001000093
:103830000100000100000000000000000020000066
:103840002000001000001000000000000000000038
:1038500000000000000000000000000000F000195F
:10386000F8001B1800220800260800240800241075
:10387000003FF8001FF800000800001800000004D6
:10388000000007FFF80FFFF00018180010080020D4
:1038900008002008003018001FF0000FC0000000D2
:1038A0000000000007C0001FF000183000200800D2
:1038B0002008002008003C08001C100000600000E8
:1038C000000000000000000007C0001FF0003818D2
:1038D00000200800200800200804101007FFF80F3F
:1038E000FFF00000100000000000000000000007D2
:1038F000C0001FF000123000221800220800220829
:10390000003208001E10000E200000000000000021
:10391000200000200800200801FFF803FFF806201F
:10392000080420080420080720000300000000000D
:1039300000000000000E000E6E001FF30031B10009
:1039400020B10020B1003191001F13002E1E002075
:103950000E00300000000004000807FFF80FFFF819
:10396000001008002000002000002008003FF800A0
:103970001FF8000008000000000000000000002008
:1039800008002008002008063FF8063FF80000085D
:103990000000080000080000000000000000000017
:1039A00000000000030000030020010020010020AF
:1039B00003063FFE063FFC00000000000000000080
:1039C00000000004000807FFF80FFFF8000188005E
:1039D0000300002FC00038F8002038002008000045
:1039E00008000000000000000000040008040008B7
:1039F00004000807FFF80FFFF800000800000800A7
:103A00000008000000000000002008003FF8003F10
:103A1000F8001008002000003FF8003FF8001008F0
:103A2000002000003FF8003FF80000080000000000
:103A30002008003FF8003FF80010080010000020A8
:103A400000002008003FF8001FF8000008000000F8
:103A50000000000007C0000FF00018300030080020
:103A60002008002008003008001830000FF0000780
:103A7000C0000000000000002001003FFF003FFFE9
:103A80000010110020090020080020080030380034
:103A90001FF0000FC00000000000000007C0001F62
:103AA000F00038180020080020080020090010113C
:103AB000001FFF003FFF0000010000000020080081
:103AC0002008002008003FF8003FF8000808001018
:103AD0000800200800200000300000300000000036
:103AE000000000000000000C78001E1800330800E1
:103AF00023080021080021880021980030F00038B8
:103B000060000000000000002000002000002000F5
:103B100000FFF003FFF80020080020080020080044
:103B20000030000000000000000000002000003F06
:103B3000F0007FF8000018000008000008002010C6
:103B4000003FF8007FF000001000000000000000BF
:103B50002000003000003C00003F800023F0000007
:103B600078000070002380003C000030000020003E
:103B7000002000003C00003FE00023F80000E000CF
:103B80002700003E00003FE00021F80001E0003E79
:103B90000000200000000000200800200800383845
:103BA000003E680027800003C8002CF80038380069
:103BB0002018002008000000000000002000003055
:103BC00003003C01003F830023EC000070002380D1
:103BD000003C000020000020000000000000000069
:103BE00000000038080020380020F80023E8002FEB
:103BF00088003E080038080020180000700000000F
:103C000000000000000000000000000000000000B4
:103C100008000014001FF7FC30000620000200001E
:103C20000000000000000000000000000000000094
:103C3000000000000000FFFFFF0000000000000087
:103C40000000000000000000000000000000200054
:103C5000023000061FF7FC001400000800000000FE
:103C6000000000000000000000000000000000183C
:103C70000000600000400000400000200000100034
:103C8000000800000400000400000C000010000008
:103C9000B03C00080000002084000000C4010008BF
:103CA000343D000884000020340D0000E0010008CD
:103CB000000000000000000000000000D00700002D
:103CC00002000000000000000000000003000000EF
:103CD00000000000000000000400000000000000E0
:103CE00000000000050000000000000000000000CF
:103CF000000000000A0800001E0000000000000094
:103D000000000000000000000000000000000000B3
:103D100000000000000000000000000000000000A3
:103D20000000000000000000000000000100000092
:043D3000010000008E
:040000050800018965
:00000001FF
