:020000040000FA
:10000000680100206D010000710100007301000013
:1000100000000000000000000000000000000000E0
:10002000000000000000000000000000750100005A
:1000300000000000000000007701000079010000CE
:100040007B0100007B0100007B010000000000003C
:100050007B01000000000000000000000000000024
:10006000000000007B010000000000000000000014
:10007000000000007B010000000000007B01000088
:100080007B010000000000007B0100000000000078
:100090007B010000000000000000000000000000E4
:1000A0007B0100007B010000000000000000000058
:1000B0000000000000000000000000007B010000C4
:1000C00000F002F800F042F812A030C808382418F6
:1000D0002D18AC4201D100F039F80FCCA246AB4646
:1000E0000CA730CF2D1B083F3F197C427F1E544484
:1000F0002D090426F441641EAC4201D300F026F819
:100100000126334200D0FB1A3343984754465D46DC
:10011000DFE70000D4090000E4090000000000004F
:100120007047000000000000002300240025002686
:10013000103A01D378C1FBD8520700D330C100D5A3
:100140000B6070471FB51FBD10B510BD00F09CF9C6
:100150001146FFF7F7FF00F061FC00F0B4F903B4BB
:10016000FFF7F2FF03BC00F0BBF9000006480047B0
:10017000FEE7FEE7FEE7FEE7FEE7FEE70348044989
:10018000024A044B70470000C100000068000020D4
:100190006801002068000020704770477047000029
:1001A0000346CA02400D10B510430A1504D00124BD
:1001B000E4072043002A05DB0A4CA21A04D4D040ED
:1001C000FF2A00DD002010BD4A00002B01D00120D5
:1001D00000E00020101801225205D042F2D8C817C2
:1001E000C04310BD1E0400001F22030C02D10F22C9
:1001F000000402D0030E03D004E000200146704743
:100200000002083A030F01D10001121F830F01D130
:100210008000921E002801DB4000521E120551187A
:100220004205C012411810467047C10FC90700D0DF
:100230004042012292071143D6E701218907D3E703
:10024000F0B58B4C0F09254689B0BD437BD01D0905
:100250002646AE43FAD00E465E402740F60F3E4398
:10026000254071D024012142FBD0FF24AD19A40404
:100270002D1B039501252D05DB02DB0AC9022B434B
:10028000C90A29431E010901040F130F0501214367
:100290001701880B820391432D098C46A90B1E433D
:1002A0008A039543B30B9A0396433F09BA0B940311
:1002B000A74302962E467E430497B6464E19D71999
:1002C0000C460196544305977E43371B7646BF1B69
:1002D0003601B646BE0B361900967646BC04371971
:1002E000009C01D3641C00946400002F01D00126FF
:1002F0003443029E049F754366467E43049676000F
:1003000034196E0034190094029C019E1C19664336
:10031000751BAE46069465464519059C05956C43CC
:10032000594375460891691A0191049E014651434B
:10033000A41B0491611A009C0791E10605D0610994
:100340000122114302E072E06EE06109089D00277E
:100350002C0A2D066918049D7C412A0A2D0669186D
:10036000019D6241AC0DAD026D185441079A910D8B
:10037000920255196141029A644658435443069BC0
:10038000059A5A43121A131B9A0E9B015B187A4165
:10039000010B0005C3185141220A200644195A4195
:1003A0009A4200D2491C01204002814203D3152306
:1003B0000226F64302E014230326F6432020C51A42
:1003C000A9401746AF40DA400A4320460399D84077
:1003D0000914731819055118039A3843D20751406C
:1003E000AC4009D00122944006D30022401C514168
:1003F000002C01D1400840001E4A934212D3012232
:1004000003989206904207DB0520400709181A4816
:100410000143C012414004E0032040070818C10F07
:10042000C907002009B0F0BD0020F107FAE7051860
:100430000C464C4111486D42A04115D394181A4600
:100440005A410E48644290410ED301204A004005B3
:10045000824209D35A00824206D35940C90F084A42
:10046000C90700201143DDE700200649DAE7000054
:100470000000FF07FE070000FFFFFF7F0000E0FF16
:100480000000F07F0000F87F754600F025F8AE46CA
:10049000050069465346C008C000854618B020B51F
:1004A000FFF76CFE60BCB64600260027C0C5C0C57D
:1004B000C0C5C0C5C0C5C0C5C0C5C0C5403D490850
:1004C00049008D46704710B50446C046C0462046D8
:1004D000FFF745FE10BD00000048704700000020F7
:1004E00001491820ABBEFEE726000200704781B02C
:1004F0000090801E001F00BFFCD201B0704784B086
:10050000039002910192039800680090009801996D
:100510008843009000980299019A1140084303997A
:10052000086004B0704782B0019000910098019972
:1005300095225201885002B07047000082B00190AD
:10054000009100980199024A885002B07047C04655
:10055000D012000081B0009000990120C202024830
:10056000885001B07047C0460100002610B584B025
:10057000069C03900291019200930298019908430E
:1005800000990843069908430349084303998900E1
:10059000074A885004B010BD8100040081B000906B
:1005A00000988100024A8120885001B07047C046FF
:1005B0000480424082B00190009101982721C90136
:1005C00040580099084002B07047000081B0009088
:1005D0000099024A0248885001B0704704080000A0
:1005E000030000B182B00190009100980199074A80
:1005F000885002B07047C04682B0019000910098C8
:100600000199024A885002B07047C046901200001B
:100610000349086801221203104308607047C0466E
:1006200004010B400249086810221043086070471B
:100630003C010B4081B001466846017000780249D8
:10064000086001B07047C04608030B4080B582B017
:10065000014601A80170017802480322FFF74FFF0D
:1006600002B080BD00010B4080B588B007A9002012
:1006700008709F480078002808D0FFE74B208000D2
:1006800000F0BAF99A4900200870FFE7D9480690AF
:1006900001210591FFF747FF06989649FFF7A2FF52
:1006A0000A2000F0A9F9059906984903FFF782FF8F
:1006B000002806D1FFE707A9012008708C490870BF
:1006C0002FE001208103CB48FFF774FF002807D1FA
:1006D000FFE707A9022008708549012008701FE084
:1006E00001204104C348FFF765FF002807D1FFE759
:1006F00007A9032008707E49012008700FE001203F
:100700008104F848FFF756FF002807D1FFE707A943
:1007100004200870764901200870FFE7FFE7FFE733
:10072000FFE7F04804900221FFF7FDFE04987249AC
:10073000FFF758FF0A2000F05FF9049801214903F0
:10074000FFF738FF002807D1FFE707A90520087049
:100750006749012008702FE001208103E148FFF77D
:1007600029FF002807D1FFE707A906200870604984
:10077000012008701FE001204104DA48FFF71AFF4A
:10078000002807D1FFE707A9072008705849012072
:1007900008700FE001208104D248FFF70BFF00280A
:1007A00007D1FFE707A90820087051490120087008
:1007B000FFE7FFE7FFE7FFE7CA4803908021FFF765
:1007C000B2FE03984D49FFF70DFF0A2000F014F91F
:1007D000039801214903FFF7EDFE002807D1FFE749
:1007E00007A9092008704249012008702FE0012064
:1007F0008103BC48FFF7DEFE002807D1FFE707A909
:100800000A2008703A49012008701FE001204104C5
:10081000B448FFF7CFFE002807D1FFE707A90B2058
:1008200008703349012008700FE001208104AD48B1
:10083000FFF7C0FE002807D1FFE707A90C200870CA
:100840002B4901200870FFE7FFE7FFE7FFE70120E2
:1008500001900103A3480290FFF765FE02988321EF
:10086000FFF7C0FE0A2000F0C7F80199029849037B
:10087000FFF7A0FE002807D1FFE707A90D200870A9
:100880001B49012008702FE0012081039548FFF7E4
:1008900091FE002807D1FFE707A90E200870144930
:1008A000012008701FE0012041048E48FFF782FEFE
:1008B000002807D1FFE707A90F2008700C49012085
:1008C00008700FE0012081048648FFF773FE0028BE
:1008D00007D1FFE707A9102008700549012008701B
:1008E000FFE7FFE7FFE7FFE707A8007808B080BD54
:1008F0006000002082100000811000000310000042
:1009000080B586B00820FFF749FE0920FFF746FEB4
:100910000A20FFF743FE0B20FFF740FE0220FFF7FF
:100920003DFE0320FFF73AFE0F20FFF737FE0420BD
:10093000FFF734FE00200390FFF730FE0120019006
:10094000FFF72CFE0720FFF729FE0C20FFF726FEFD
:100950000198039B0093420402920D201946FFF771
:1009600005FE029A039B00930E201946FFF7FEFD39
:10097000029A039B009311201946FFF7F7FD029A94
:10098000039B009312201946FFF7F0FD5548049091
:1009900004490591FFF730FE04980599FFF7CEFD55
:1009A00006B080BD9F9F000080B582B000200190FE
:1009B000FFF740FE0198FFF749FEFFF729FEFFF71A
:1009C00031FE02B080BD80B500F006F8FFF798FF59
:1009D000FFF7EAFF80BD000080B582B0414801907A
:1009E000FFF7F4FD0198FFF7B5FD1020FFF77FFD3D
:1009F00002B080BD00000A4080B582B0019001982D
:100A0000FFF713FC0022044BFFF71AFCFFF7C8FBAB
:100A1000FFF76DFD02B080BD0040DF4080B582B0C1
:100A200000200190FFF7CFFFFFE7FFF71DFE014613
:100A30002B4801700078002850D0FFE72848007844
:100A4000401EC007002806D0FFE70120C10225484C
:100A5000FFF769FD05E00120C1022248FFF7C2FD52
:100A6000FFE71F480078401E8007002806D5FFE7F3
:100A7000012081021B48FFF756FD05E0012081029D
:100A80001848FFF7AFFDFFE715480078401E400704
:100A9000002806D5FFE7012041021248FFF743FD79
:100AA00005E0012041020F48FFF79CFDFFE70C48DD
:100AB0000078401E0007002806D5FFE7012001024C
:100AC0000848FFF730FD05E0012001020548FFF767
:100AD00089FDFFE7024900200870FFE7A5E7C0464F
:100AE0006100002000000A40F80A00000000002019
:080AF00068010000280100006C
:04000005000000C136
:00000001FF
