:020000040000FA
:10000000680100206D010000710100007301000013
:1000100000000000000000000000000000000000E0
:10002000000000000000000000000000750100005A
:1000300000000000000000007701000079010000CE
:100040007B0100007B0100007B010000000000003C
:100050007B01000000000000000000000000000024
:10006000000000007B010000000000000000000014
:100070000000000065050000000000007B0100009A
:100080007B010000000000007B0100000000000078
:100090007B010000000000000000000000000000E4
:1000A0007B0100007B010000000000000000000058
:1000B0000000000000000000000000007B010000C4
:1000C00000F002F800F042F812A030C808382418F6
:1000D0002D18AC4201D100F039F80FCCA246AB4646
:1000E0000CA730CF2D1B083F3F197C427F1E544484
:1000F0002D090426F441641EAC4201D300F026F819
:100100000126334200D0FB1A3343984754465D46DC
:10011000DFE700000C0500001C05000000000000E7
:100120007047000000000000002300240025002686
:10013000103A01D378C1FBD8520700D330C100D5A3
:100140000B6070471FB51FBD10B510BD00F027F83C
:100150001146FFF7F7FF00F04DFA00F03FF803B447
:10016000FFF7F2FF03BC00F045F800000648004727
:10017000FEE7FEE7FEE7FEE7FEE7FEE70348044989
:10018000024A044B70470000C100000068000020D4
:10019000680100206800002070477047704775466E
:1001A00000F024F8AE46050069465346C008C0007A
:1001B000854618B020B5FFF7E1FF60BCB6460026C3
:1001C0000027C0C5C0C5C0C5C0C5C0C5C0C5C0C565
:1001D000C0C5403D490849008D46704710B50446EA
:1001E000C046C0462046FFF7BAFF10BD0048704722
:1001F0000000002001491820ABBEFEE726000200E7
:10020000704781B00090801E001F00BFFCD201B07B
:10021000704784B0039002910192039800680090A7
:10022000009801998843009000980299019A114022
:1002300008430399086004B0704784B003900291AA
:1002400001920398006800900098019988430090FB
:1002500000980299019A114008430399086004B07C
:100260007047000081B0009000990120C20241480F
:10027000885001B07047C04682B00190009100984C
:100280000349084301998900084A885002B0704721
:100290008000040082B00190009100988021084302
:1002A00001998900014A885002B070470480424099
:1002B00081B000900099504A5048885001B0704772
:1002C0000349086801221203104308607047C046C2
:1002D00004010B400249086810221043086070476F
:1002E0003C010B4081B0014668460170007802492C
:1002F000086001B07047C04608030B4080B582B06B
:10030000014601A80170017802480322FFF781FF2E
:1003100002B080BD00010B4081B000900099112017
:100320000202885801239843885001B0704781B079
:100330000090009911200202885801231843885028
:1003400001B0704782B001900091009B0199034A6F
:1003500088581843885002B07047C04628100000E3
:1003600081B0009000990120C2020248885001B07B
:100370007047C0460100002681B00090009881219E
:1003800049014058C0B201B07047000080B582B04A
:10039000019000910198FFF7BFFF01981121090218
:1003A0004018009A11889378194392881143084A9B
:1003B000FFF743FF019824494018009A9179D379B7
:1003C0001943127A11437E22FFF737FF02B080BD36
:1003D0001867020081B00090009802494058C0B2EE
:1003E00001B070472411000081B000900099024ACA
:1003F0000248885001B0704704080000030000B1B3
:1004000080B584B003900291019203980B49401883
:1004100002990B4AFFF7FDFE03980A49401801991B
:100420003F22FFF7F6FE0399074A881889580122F0
:100430001140FFF7EEFE04B080BDC0461011000071
:10044000FFFF0000141100000411000082B00190B1
:100450000091009800780199044A885000984078EB
:10046000019901221203885002B070470810000061
:1004700080B582B0019000910198112109024018C5
:1004800000990322D203FFF7C4FE02B080BD82B000
:1004900001906846017000780199892252018850C4
:1004A00002B0704780B582B00A2002210191FFF7A7
:1004B000F1FE01990B20FFF7DFFE02B080BD80B591
:1004C00082B000200190FFF70DFF0198FFF716FFA3
:1004D000FFF7F6FEFFF7FEFE02B080BD80B582B0EA
:1004E0000D492C480190FFF7B1FF01980B49FFF728
:1004F0004DFF01980021FFF7BBFF019802210B225D
:10050000FFF77EFF019801218902FFF71BFF019889
:10051000FFF70DFF02B080BD1206000014060000B8
:1005200080B500F007F8FFF7BDFFFFF7C8FFFFF742
:10053000D5FF80BD80B582B009480090FFF7B8FEB6
:1005400014480190FFF750FF0098FFF78BFE0198C9
:10055000FFF706FF1020FFF754FE02B080BDC04633
:1005600000000A4080B582B00A48FFF705FF0B285B
:100570000CD1FFE707480190FFF72CFF02460198D6
:1005800005490A700978FFF782FF00E0FFE702B033
:1005900080BDC046000010406000002081B00146D0
:1005A0006846017000214056002809D4FFE76846DC
:1005B00001781F2001400120884002490860FFE7C0
:1005C00001B0704780E200E081B0014668460170EA
:1005D00000214056002809D4FFE7684601781F2013
:1005E00001400120884002490860FFE701B07047E0
:1005F00000E100E080B582B000200190FFF790FF9D
:100600000D200090FFF7CAFF0098FFF7DDFFFFE71E
:10061000FEE70400000018000000003000000000A9
:1006200030060000000000206801000028010000E2
:04000005000000C136
:00000001FF
