:020000040000FA
:10000000C80100208D010000910100009301000053
:1000100000000000000000000000000000000000E0
:10002000000000000000000000000000950100003A
:10003000000000000000000097010000990100008E
:100040009B0100009B0100009B01000000000000DC
:100050009B01000000000000000000000000000004
:10006000000000009B0100000000000000000000F4
:10007000000000009B010000000000009B01000048
:100080009B010000000000009B0100000000000038
:100090009B010000000000000000000000000000C4
:1000A0009B0100009B010000000000000000000018
:1000B0000000000000000000000000009B010000A4
:1000C00000F002F800F052F812A030C808382418E6
:1000D0002D18AC4201D100F049F80FCCA246AB4636
:1000E0000CA730CF2D1B083F3F197C427F1E544484
:1000F0002D090426F441641EAC4201D300F036F809
:100100000126334200D0FB1A3343984754465D46DC
:10011000DFE70000CC140000FC1400000000000029
:10012000103A02D378C878C1FAD8520701D330C840
:1001300030C101D504680C60704700000000000069
:100140007047000000000000002300240025002666
:10015000103A01D378C1FBD8520700D330C100D583
:100160000B6070471FB51FBD10B510BD00F0DDF866
:100170001146FFF7F7FF00F059FE00F0F5F803B461
:10018000FFF7F2FF03BC00F0FBF800000648004751
:10019000FEE7FEE7FEE7FEE7FEE7FEE70348044969
:1001A000024A044B70470000C1000000C800002054
:1001B000C8010020C8000020002203098B422CD374
:1001C000030A8B4211D300239C464EE003460B43A7
:1001D0003CD4002243088B4231D303098B421CD309
:1001E000030A8B4201D394463FE0C3098B4201D3FB
:1001F000CB01C01A524183098B4201D38B01C01A33
:10020000524143098B4201D34B01C01A52410309A9
:100210008B4201D30B01C01A5241C3088B4201D358
:10022000CB00C01A524183088B4201D38B00C01A05
:10023000524143088B4201D34B00C01A5241411A2C
:1002400000D201465241104670475DE0CA0F00D00F
:100250004942031000D3404253409C460022030908
:100260008B422DD3030A8B4212D38901FC2212BA8E
:10027000030A8B420CD3890192118B4208D3890166
:1002800092118B4204D389013AD0921100E089097E
:10029000C3098B4201D3CB01C01A524183098B425F
:1002A00001D38B01C01A524143098B4201D34B0148
:1002B000C01A524103098B4201D30B01C01A5241AB
:1002C000C3088B4201D3CB00C01A524183088B4232
:1002D00001D38B00C01A5241D9D243088B4201D3BB
:1002E0004B00C01A5241411A00D2014652411046F9
:1002F00063465B1001D34042002B00D54942704752
:1003000063465B1000D3404201B50549002802DC7A
:10031000491C084000E00846C046C04602BD00BF78
:10032000FFFFFF7F704770477047754600F024F865
:10033000AE46050069465346C008C000854618B061
:1003400020B5FFF72BFF60BCB64600260027C0C5CE
:10035000C0C5C0C5C0C5C0C5C0C5C0C5C0C5403D7D
:10036000490849008D46704710B50446C046C0464E
:100370002046FFF704FF10BD0048704760000020D2
:1003800001491820ABBEFEE72600020070470000BE
:1003900083B002900191009202980199084300995C
:1003A00008432D49086003B07047C0462A480068DA
:1003B000072108407047C04681B00090801E001F92
:1003C00000BFFCD201B0704784B00390029101924B
:1003D0000398006800900098019988430090009865
:1003E0000299019A114008430399086004B07047CC
:1003F00080B582B0FFF7DAFF0190012000210422CE
:10040000FFF7C6FF134801680448014068460180B1
:100410000199114A1160008802B080BDFF0F0000F1
:1004200080B582B0FFF7C2FF0190012000210422B5
:10043000FFF7AEFF07480068032109030840000BDF
:10044000411C684601700199034A1160007802B0AE
:1004500080BDC0461800C4410013404080B584B040
:100460000390029101A802700078022108430399C9
:10047000314A88500398029900F072F8039800F00E
:1004800095FD04B080BDC04682B0019000910098F7
:10049000800A02B0704780B588B007900691FFF7D8
:1004A000BFFF05A900910870FFF7A2FF049007980D
:1004B0000699FFF7E9FF01460098039100780228AA
:1004C0000CDBFFE7049805A90978FFF775FE029099
:1004D00003980299FFF770FE019102E003980190E2
:1004E000FFE7019808B080BD80B584B00390029109
:1004F0000192009303980299019A00F009F800987C
:1005000000780399014A885004B080BD3011000082
:1005100080B584B00390029101920399064A0120AC
:10052000885001980399054A88500398029900F071
:1005300017F804B080BDC04604110000241100006B
:1005400080B584B003900291019203980299019BB7
:100550000122FFF7C9FF039800F028FD04B080BD19
:1005600082B001900091009801998922520188502F
:1005700002B0704780B58AB00990089107A8009032
:10058000028009980899FFF77FFF0690099808995B
:10059000FFF781FF0590FFF743FF04A90870FFF7FD
:1005A00027FF014600980391002102910088012154
:1005B000490288426BD1FFE700F044F9002818D0C7
:1005C000FFE704A80078022813DBFFE706980399E9
:1005D0004908884206D9FFE7069803994908401A56
:1005E000029005E006980399490840180290FFE739
:1005F00002E006980290FFE702981F280BD8FFE759
:100600000299012088400190019B09992F4A88583E
:10061000984388503AE00598FF281FD8FFE7FFF776
:10062000FFFE01280DD1FFE705982038C108012001
:1006300088400190019B0999234A88589843885023
:100640000BE00598C108012088400190019B0999A1
:100650001D4A885898438850FFE716E00598FF2107
:10066000490088420FD8FFE70598FF21C943401889
:10067000C108012088400190019B0999114A8858BE
:100680009843885000E0FFE7FFE7FFE715E007A881
:1006900000880121890288420DD1FFE706991F20B9
:1006A0000140012088400190019B0999044A885823
:1006B0009843885000E0FFE7FFE70AB080BDC046DE
:1006C00010120000D8110000D4110000D011000059
:1006D00082B00190009100980199952252018850B2
:1006E00002B0704782B00190009100980199952264
:1006F0005201885002B0704782B00190009100987A
:10070000019995225201885002B0704782B0019041
:10071000009100980199024A885002B07047C04683
:10072000D012000081B0009000990120C20202485E
:10073000885001B07047C0460100002610B584B053
:10074000069C03900291019200930298019908433C
:10075000009908430699084303490843039989000F
:10076000124A885004B010BD8100040081B000908E
:10077000009881000D4A8120885001B07047C04622
:1007800010B584B0069C03900291019200930298E8
:1007900001990843009908430699084381210843B9
:1007A00003998900014A885004B010BD048042407A
:1007B00082B00190009101982721C9014058009909
:1007C000084002B07047000081B000900099024AD2
:1007D0000248885001B0704704080000030000B1CF
:1007E00082B001900091009801990C4A885002B0A3
:1007F0007047C04682B00190009100980199074A65
:10080000885002B07047C04682B0019000910098B5
:100810000199024A885002B07047C0469012000009
:100820000349086801221203104308607047C0465C
:1008300004010B4002490868102210430860704709
:100840003C010B400020704781B0014668460170B2
:1008500000780249086001B07047C04608030B40A9
:1008600080B582B0014601A80170017802480322D8
:10087000FFF7AAFD02B080BD00010B4080B584B037
:1008800003A900200870FFE703A80078072828DCE8
:10089000FFE70398B030C0B20021019100F064F985
:1008A0000199022000F060F90199102000F05CF934
:1008B000019802A90870FFE702A800787F280ADCE7
:1008C000FFE70020012100F04FF9FFE70298401CEC
:1008D00002A90870F0E7FFE70398401C03A908701D
:1008E000D2E704B080BD80B586B06420009000F0EF
:1008F0000BFA009800F008FAAE200021059100F0F4
:1009000033F905990220029000F02EF90599102084
:1009100000F02AF905994020019000F025F9059989
:10092000812000F021F90599CF2000F01DF90599EB
:10093000A12000F019F90599C82000F015F90599D2
:10094000A620039000F010F90599A82000F00CF9FA
:1009500005993F2000F008F90599D32000F004F92B
:100960000599084600F000F90599D52000F0FCF83B
:100970000599802000F0F8F80599D92000F0F4F8E6
:100980000599F12000F0F0F80599DA2000F0ECF874
:100990000599122000F0E8F80599DB2000F0E4F852
:1009A0000198059900F0E0F80599202000F0DCF8A6
:1009B0000298059900F0D8F805998D2000F0D4F838
:1009C0000599142000F0D0F80599A42000F0CCF887
:1009D0000398059900F0C8F80599AF20049000F03D
:1009E000C3F80498059900F0BFF8FFF747FF059991
:1009F000084600F002F806B080BD80B584B003AAB6
:100A00000092107002A801700298B030C0B20021AC
:100A1000019100F0A9F800980199007800091030C0
:100A200000F0A2F801990398012210430F22104010
:100A300000F09AF804B080BD80B586B0034605A8E2
:100A4000037004AB197003A90A7002AA0021117087
:100A500001AB19700399203911700078802808DBE8
:100A6000FFE705A9002008700498801C04A90870FD
:100A7000FFE705A8007804A90978FFF7BEFF01A9E0
:100A800000200870FFE701A80078072811DCFFE7C5
:100A900002A80078000101A9097841181748405CB4
:100AA000012100F061F8FFE70198401C01A90870DE
:100AB000E9E705A800780499491CC9B2FFF79DFF32
:100AC00001A900200870FFE701A80078072812DCC0
:100AD000FFE702A80078000101A90978401807493A
:100AE0004018007A012100F03FF8FFE70198401C10
:100AF00001A90870E8E706B080BDC046B80F000045
:100B000080B586B005AB187004A80170039202A9E5
:100B100000200870FFE7039802A90978405C0028CC
:100B200020D0FFE705A80190007804A90978039A6E
:100B300002AB1B78D25CFFF77FFF01980599083163
:100B400001700078792808DBFFE705A9002008700C
:100B50000498801C04A90870FFE70298401C02A9B1
:100B60000870D8E706B080BD80B584B003AA1070C5
:100B700002A801700078002805D0FFE7A8481021DE
:100B8000FFF742FE04E0A6481021FFF7B5FDFFE79E
:100B9000A3480421FFF7B0FD01A900200870FFE77A
:100BA00001A80078072822DCFFE79D484021FFF7D5
:100BB000A3FD03A800780006002805D5FFE79848A4
:100BC0002021FFF721FE04E095482021FFF794FD46
:100BD000FFE793484021FFF717FE0398400003A961
:100BE0000870FFE70198401C01A90870D8E78C48FD
:100BF00000900421FFF708FE00981021FFF704FE83
:100C000004B080BD80B586B00820FFF7AFFD02209C
:100C1000FFF7ACFD0420FFF7A9FD0620FFF7A6FDB6
:100C20000520FFF7A3FD0023039300930120049008
:100C30004204019218461946FFF7A2FD019A039B50
:100C4000049800931946FFF79BFD0720FFF78EFDE0
:100C50000C20FFF78BFD039B049800930204029283
:100C60000D201946FFF76AFD029A039B00930E20A0
:100C70001946FFF763FD029A039B00931120194662
:100C8000FFF75CFD029A039B009312201946FFF7C1
:100C900055FD634805900749FFF71AFD049905982B
:100CA0000902FFF79DFD05980349FFF72FFD06B0E8
:100CB00080BDC046F7100000F711000080B582B07B
:100CC00000200190FFF7C0FD0198FFF7C9FDFFF775
:100CD000A7FDFFF7AFFD02B080BD80B500F006F8BC
:100CE000FFF790FFFFF7EAFF80BD000080B582B0FC
:100CF0004B480190FFF768FD0198FFF713FD1020A6
:100D0000FFF75AFB02B080BD82B00190FFE7019867
:100D100000280FD0FFE72D20C0000090FFE70098CB
:100D2000411E0091002801D0FFE7F8E70198401E1E
:100D30000190ECE702B0704710B586B00020049037
:100D400003900590FFE70598032863DCFFE77D200B
:100D5000C000FFF731FB05988100304801904158F1
:100D60002F480290FFF746FD01990298059A521C00
:100D7000D3179B0FD3180324E4432340D21A9200C5
:100D80008958FFF7AFFC01990298059A921CD31776
:100D90009B0FD3182340D21A92008958FFF7A2FC68
:100DA00001990298059AD21CD3179B0FD3182340A0
:100DB000D21A92008958FFF795FC1A48FFF7FCFAFF
:100DC00000200490FFE7049803281ADCFFE704984A
:100DD0008100154841581248FFF7EAFC002807D067
:100DE000FFE70498800005994018401C0390FFE736
:100DF0007D20C000FFF7E0FAFFE70498401C049054
:100E0000E1E77D20C000FFF7D7FAFFE70598401C17
:100E1000059098E7039806B010BDC046400000203A
:100E200000000A40A08601005000002080B58AB072
:100E3000002007900990FFF750FFFFF754FDFFF7E0
:100E40001DFD07994F4A02200890FFF759FE0899A7
:100E50004D4A0846FFF754FEFFE7FFE7FFF76CFF38
:100E60004A490860FFE7494800680028F6D0FFE7D4
:100E7000FFE7FFF761FF002802D0FFE700BFF8E7B8
:100E800042480068401E06900F287AD806988100D4
:100E900001A040588746C0464D0F00005F0F00007C
:100EA000710F0000830F0000830F0000830F00000C
:100EB000830F0000830F0000830F0000830F0000EA
:100EC000830F0000830F0000830F0000830F0000DA
:100ED000D90E0000310F00002D4800782D490491F3
:100EE00008700120C1030391420201922B48029035
:100EF000FFF740FB029803994022FFF7AFFA019AEF
:100F000003990298FFF736FB02980399049AFFF7BA
:100F100017FB234A022004210591FFF7F1FD214828
:100F2000FFF74AFA0599204A0020FFF7E9FD28E07B
:100F30000120C0030178174801700178164801703C
:100F4000027860200221FFF777FD1AE01048412166
:100F50000170027860200021FFF76EFD11E00C485F
:100F600042210170027860200021FFF765FD08E052
:100F7000074843210170027860200021FFF75CFDE3
:100F8000FFE76AE7D0150000C5150000C00000208B
:100F9000C6000020C5000020C400002000D00C4086
:100FA000BB1500000024F400A815000003B401489C
:100FB000019001BD010000200000000000000000C1
:100FC0000000000000000000000000F80000000029
:100FD000000000333000000000100C06100C06006A
:100FE000000000000000000040C07840C0784000D1
:100FF000043F04043F040400007088FC0830000033
:10100000001820FF211E0000F008F000E01800008A
:1010100000211C031E211E0000F008887000000043
:101020001E2123241927211010160E000000000095
:101030000000000000000000000000E018040200B2
:10104000000000071820400000020418E000000023
:101050000040201807000000404080F08040400021
:101060000202010F01020200000000F00000000077
:101070000101011F0101010000000000000000004B
:1010800080B07000000000000000000000000000C0
:101090000001010101010101000000000000000049
:1010A00000303000000000000000000080601804E4
:1010B000006018060100000000E010080810E000C1
:1010C000000F102020100F00001010F8000000008A
:1010D0000020203F202000000070080808887000D1
:1010E0000030282422213000003008888848300051
:1010F0000018202020110E000000C02010F8000071
:1011000000070424243F240000F808888808080009
:101110000019212020110E0000E01088881800001E
:10112000000F112020110E0000380808C8380800F0
:101130000000003F00000000007088080888700070
:10114000001C222121221C0000E010080810E000F1
:101150000000312222110F00000000C0C00000007A
:10116000000000303000000000000080000000009F
:101170000000806000000000000080402010080097
:101180000001020408102000404040404040400060
:10119000040404040404040000081020408000003B
:1011A0000020100804020100007048080808F00040
:1011B0000000003036010000C030C828E810E00010
:1011C0000718272423140B000000C038E00000009B
:1011D000203C23020227382008F888888870000005
:1011E000203F202020110E00C030080808083800D9
:1011F000071820202010080008F808080810E00050
:10120000203F202020100F0008F88888E8081000F0
:10121000203F20202320180008F88888E8081000C4
:10122000203F200003000000C030080808380000FC
:1012300007182020221E020008F808000008F808FD
:10124000203F210101213F20000808F80808000084
:101250000020203F2020000000000808F8080800B7
:10126000C08080807F00000008F888C0281808002F
:10127000203F20012638200008F808000000000068
:10128000203F20202020300008F8F800F8F808005F
:10129000203F003F003F200008F830C00008F80859
:1012A000203F200007183F00E01008080810E00069
:1012B0000F10202020100F0008F808080808F00080
:1012C000203F210101010000E01008080810E000A3
:1012D0000F18242438504F0008F888888888700038
:1012E000203F2000030C30200070880808083800D8
:1012F0000038202121221C00180808F808081800CE
:101300000000203F2000000008F808000008F8084E
:10131000001F202020201F000878880000C83808FF
:10132000000007380E010000F80800F80008F80077
:10133000033C0700073C0300081868808068180811
:1013400020302C03032C30200838C800C83808008F
:101350000000203F2000000010080808C8380800DE
:101360002038262120201800000000FE0202020082
:101370000000007F40404000000C30C00000000032
:10138000000000010638C00000020202FE0000005A
:10139000004040407F000000000004020202040000
:1013A000000000000000000000000000000000003D
:1013B0008080808080808080000202040000000025
:1013C000000000000000000000008080808000001D
:1013D0000019242222223F2008F80080800000000B
:1013E000003F112020110E000000008080800000CE
:1013F000000E112020201100000000808088F800DD
:10140000000E112020103F2000008080808000000E
:10141000001F222222221300008080F08888881872
:101420000020203F2020000000008080808080007D
:10143000006B94949493600008F800808080000012
:10144000203F210000203F200080989800000000ED
:101450000020203F2020000000000080989800001D
:1014600000C08080807F000008F80000808080003D
:10147000203F24022D302000000808F80000000062
:101480000020203F2020000080808080808080001D
:10149000203F20003F20003F8080008080800000AF
:1014A000203F210000203F2000008080808000003D
:1014B000001F202020201F0080800080800000006E
:1014C00080FFA12020110E0000000080808080009D
:1014D000000E112020A0FF8080808000808080008E
:1014E00020203F21200001000000808080808000BB
:1014F0000033242424241900008080E08080000030
:101500000000001F2020000080800000008080007C
:10151000001F202020103F208080800000808080DD
:1015200000010E300806010080800080008080806D
:101530000F300C030C300F00008080008080800092
:101540000020312E0E3120008080800000808080BD
:1015500080818E701806010000808080808080006D
:101560000021302C2221300000000000807C02028B
:1015700000000000003F404000000000FF000000AD
:1015800000000000FF0000000002027C800000005C
:101590000040403F00000000FFFFFFFFFFFFFFFF94
:1015A000FFFFFFFFFFFFFFFF202020202020202043
:1015B00020202020202020202020007772697465C0
:1015C000206F6B21007265616420636861723A006C
:1015D000777269746520636861723A0000000000E8
:1015E0001016000000000020400000002001000054
:1015F00050160000400000202000000020010000E4
:101600007016000060000020680100004801000022
:1016100082B00190019911200202012088500198A6
:101620000A494058072108400090FFE768460078C3
:10163000042807D1FFE701980449405807210840D2
:101640000090F3E76846007802B07047D0130000BE
:1016500001000000020000008000000000100000F7
:101660000020000000400000000002000000040014
:04000005000000C136
:00000001FF
