:020000040000FA
:10000000800100208D01000091010000930100009B
:1000100000000000000000000000000000000000E0
:10002000000000000000000000000000950100003A
:10003000000000000000000097010000990100008E
:100040009B0100009B0100009B01000000000000DC
:100050009B01000000000000000000000000000004
:10006000000000009B0100000000000000000000F4
:10007000000000009B010000000000009B01000048
:100080009B010000000000009B0100000000000038
:100090009B010000000000000000000000000000C4
:1000A0009B0100009B010000000000000000000018
:1000B0000000000000000000000000009B010000A4
:1000C00000F002F800F052F812A030C808382418E6
:1000D0002D18AC4201D100F049F80FCCA246AB4636
:1000E0000CA730CF2D1B083F3F197C427F1E544484
:1000F0002D090426F441641EAC4201D300F036F809
:100100000126334200D0FB1A3343984754465D46DC
:10011000DFE700009C060000BC06000000000000B5
:10012000103A02D378C878C1FAD8520701D330C840
:1001300030C101D504680C60704700000000000069
:100140007047000000000000002300240025002666
:10015000103A01D378C1FBD8520700D330C100D583
:100160000B6070471FB51FBD10B510BD00F09CF9A6
:100170001146FFF7F7FF00F0C3FA00F0B4F903B43B
:10018000FFF7F2FF03BC00F0BBF900000648004790
:10019000FEE7FEE7FEE7FEE7FEE7FEE70348044969
:1001A000024A044B70470000C1000000800000209C
:1001B00080010020800000207047704770470000D9
:1001C0000346CA02400D10B510430A1504D001249D
:1001D000E4072043002A05DB0A4CA21A04D4D040CD
:1001E000FF2A00DD002010BD4A00002B01D00120B5
:1001F00000E00020101801225205D042F2D8C817A2
:10020000C04310BD1E0400001F22030C02D10F22A8
:10021000000402D0030E03D004E000200146704722
:100220000002083A030F01D10001121F830F01D110
:100230008000921E002801DB4000521E120551185A
:100240004205C012411810467047C10FC90700D0BF
:100250004042012292071143D6E701218907D3E7E3
:10026000F0B58B4C0F09254689B0BD437BD01D09E5
:100270002646AE43FAD00E465E402740F60F3E4378
:10028000254071D024012142FBD0FF24AD19A404E4
:100290002D1B039501252D05DB02DB0AC9022B432B
:1002A000C90A29431E010901040F130F0501214347
:1002B0001701880B820391432D098C46A90B1E431D
:1002C0008A039543B30B9A0396433F09BA0B9403F1
:1002D000A74302962E467E430497B6464E19D71979
:1002E0000C460196544305977E43371B7646BF1B49
:1002F0003601B646BE0B361900967646BC04371951
:10030000009C01D3641C00946400002F01D00126DE
:100310003443029E049F754366467E4304967600EE
:1003200034196E0034190094029C019E1C19664316
:10033000751BAE46069465464519059C05956C43AC
:10034000594375460891691A0191049E014651432B
:10035000A41B0491611A009C0791E10605D0610974
:100360000122114302E072E06EE06109089D00275E
:100370002C0A2D066918049D7C412A0A2D0669184D
:10038000019D6241AC0DAD026D185441079A910D6B
:10039000920255196141029A644658435443069BA0
:1003A000059A5A43121A131B9A0E9B015B187A4145
:1003B000010B0005C3185141220A200644195A4175
:1003C0009A4200D2491C01204002814203D31523E6
:1003D0000226F64302E014230326F6432020C51A22
:1003E000A9401746AF40DA400A4320460399D84057
:1003F0000914731819055118039A3843D20751404C
:10040000AC4009D00122944006D30022401C514147
:10041000002C01D1400840001E4A934212D3012211
:1004200003989206904207DB0520400709181A48F6
:100430000143C012414004E0032040070818C10FE7
:10044000C907002009B0F0BD0020F107FAE7051840
:100450000C464C4111486D42A04115D394181A46E0
:100460005A410E48644290410ED301204A00400593
:10047000824209D35A00824206D35940C90F084A22
:10048000C90700201143DDE700200649DAE7000034
:100490000000FF07FE070000FFFFFF7F0000E0FFF6
:1004A0000000F07F0000F87F754600F025F8AE46AA
:1004B000050069465346C008C000854618B020B5FF
:1004C000FFF76CFE60BCB64600260027C0C5C0C55D
:1004D000C0C5C0C5C0C5C0C5C0C5C0C5403D490830
:1004E00049008D46704710B50446C046C0462046B8
:1004F000FFF745FE10BD00000048704720000020B7
:1005000001491820ABBEFEE726000200704781B00B
:100510000090801E001F00BFFCD201B0704784B065
:10052000039002910192039800680090009801994D
:100530008843009000980299019A1140084303995A
:10054000086004B0704782B0019000910098019952
:1005500095225201885002B07047000082B001908D
:10056000009100980199024A885002B07047C04635
:10057000D012000081B0009000990120C202024810
:10058000885001B07047C0460100002681B000903D
:1005900000988100024A8120885001B07047C0460F
:1005A0000480424081B000900099024A024888507D
:1005B00001B0704704080000030000B182B0019050
:1005C000009100980199074A885002B07047C046D0
:1005D00082B00190009100980199024A885002B0BF
:1005E0007047C046901200000349086801221203B8
:1005F000104308607047C04604010B400249086878
:1006000010221043086070473C010B4081B0014646
:100610006846017000780249086001B07047C04622
:1006200008030B4080B582B0014601A80170017833
:1006300002480322FFF773FF02B080BD00010B40A8
:1006400080B582B00820FFF7A1FF0920FFF79EFFC9
:100650000A20FFF79BFF0B20FFF798FF0220FFF710
:1006600095FF0320FFF792FF0F20FFF78FFF042075
:10067000FFF78CFF4C48009004490191FFF7A8FF59
:1006800000980199FFF76AFF02B080BD1C8F00003F
:1006900080B582B000200190FFF7B8FF0198FFF706
:1006A000C1FFFFF7A1FFFFF7A9FF02B080BD80B532
:1006B00000F006F8FFF7C4FFFFF7EAFF80BD000077
:1006C00080B582B038480190FFF76CFF0198FFF7C2
:1006D00051FF1020FFF71BFF02B080BD80B582B034
:1006E00001900198FFF7B1FD0022044BFFF7B8FD20
:1006F000FFF766FDFFF70BFF02B080BD0040DF4053
:1007000080B588B000200790FFF7D1FF2548016829
:100710002548FFF718FF3220FFF7E0FFFFE7002032
:100720000690FFE70698062819DCFFE70698810087
:100730001C48039041581C480490FFF73FFF039A60
:1007400004980699890089184968FFF7FCFE322051
:10075000FFF7C4FFFFE70698401C0690E2E707207A
:100760000590FFE7059801281ADBFFE7059881004F
:100770000C48019041580C480290FFF71FFF019A66
:100780000298059989008918091F0968FFF7DBFE9F
:100790003220FFF7A3FFFFE70598401E0590E1E731
:1007A000BDE7C0460000002000000A400000000035
:1007B000D007000000000020200000002001000001
:1007C000F007000020000020600100004801000048
:1007D000000100000002000000040000000800000A
:1007E000040000000800000000800000100000006D
:04000005000000C136
:00000001FF
