:020000040000FA
:10000000E80300206D010000710100007301000091
:1000100000000000000000000000000000000000E0
:10002000000000000000000000000000750100005A
:1000300000000000000000007701000079010000CE
:100040007B010000390400007B010000000000007B
:100050007B01000000000000000000000000000024
:10006000000000007B010000000000000000000014
:10007000000000007B01000000000000C91100002A
:100080007B010000000000007B0100000000000078
:100090007B010000000000000000000000000000E4
:1000A0007B0100007B010000000000000000000058
:1000B0000000000000000000000000007B010000C4
:1000C00000F002F800F042F812A030C808382418F6
:1000D0002D18AC4201D100F039F80FCCA246AB4646
:1000E0000CA730CF2D1B083F3F197C427F1E544484
:1000F0002D090426F441641EAC4201D300F026F819
:100100000126334200D0FB1A3343984754465D46DC
:10011000DFE700003C1700005C1700000000000053
:100120007047000000000000002300240025002686
:10013000103A01D378C1FBD8520700D330C100D5A3
:100140000B6070471FB51FBD10B510BD00F027F83C
:100150001146FFF7F7FF01F05DF800F03FF803B438
:10016000FFF7F2FF03BC01F04DF80000064800471E
:10017000FEE7FEE7FEE7FEE7FEE7FEE70348044989
:10018000024A044B70470000C1000000E802002052
:10019000E8030020E802002070477047704775466A
:1001A00000F024F8AE46050069465346C008C0007A
:1001B000854618B020B5FFF7E1FF60BCB6460026C3
:1001C0000027C0C5C0C5C0C5C0C5C0C5C0C5C0C565
:1001D000C0C5403D490849008D46704710B50446EA
:1001E000C046C0462046FFF7BAFF10BD0048704722
:1001F0008002002030B58C180278401C13071B0FBA
:1002000001D10378401C120906D10278401C03E09A
:100210000578401C0D70491C5B1EF9D101E00B7084
:10022000491C521EFBD1A142E6D3002030BD000084
:10023000F0B581B00546774F0024012638462146A7
:10024000324600F0F1F838462146224600F0ECF83C
:100250006F4F38462946324600F0E6F838462946C0
:10026000224600F0E1F86C4F38462946324600F04D
:10027000DBF838462146224600F0D6F801B0F0BD42
:10028000F0B581B00546644F00240126384621466A
:10029000324600F0C9F838462146224600F0C4F83C
:1002A0005B4F38462946324600F0BEF838462946AC
:1002B000224600F0B9F8574F38462946324600F03A
:1002C000B3F838462146224600F0AEF801B0F0BD42
:1002D000F0B581B005464F4F00240126384621462F
:1002E000324600F0A1F838462146224600F09CF83C
:1002F000494F38462946324600F096F83846294696
:10030000224600F091F8424F38462946324600F026
:100310008BF838462146224600F086F801B0F0BD41
:10032000F0B581B005463A4F0024012638462146F3
:10033000324600F079F838462146224600F074F83B
:10034000354F38462946324600F06EF83846294681
:10035000224600F069F82F4F38462946324600F011
:1003600063F838462146224600F05EF801B0F0BD41
:10037000F0B581B00546284F0024012638462146B5
:10038000324600F051F838462146224600F04CF83B
:10039000204F38462946324600F046F8384629466E
:1003A000224600F041F81A4F38462946324600F0FE
:1003B0003BF838462146224600F036F801B0F0BD41
:1003C000F0B581B00546124F00240126384621467B
:1003D000324600F029F838462146224600F024F83B
:1003E0000C4F38462946324600F01EF8384629465A
:1003F000224600F019F8084F38462946324600F0E8
:1004000013F838462146224600F00EF801B0F0BD40
:10041000004008400080084000C00840811E091FBD
:1004200000BFFCD27047000092008018014A815042
:100430007047C04610180000F0B581B00127BE0318
:100440002949084610380568AF20C200E804274B48
:1004500015D53C031868204207D1186820420BD1FB
:1004600010460092FFF7E4FE03E010460092FFF70B
:100470002FFF1E4B009A1C490868204308602C4639
:100480003440A80403D4002C19D101B0F0BD7D0381
:100490001868284207D1186828420BD11046174621
:1004A000FFF78EFF03E010461746FFF739FF0F4BAB
:1004B0003A460D49086828430860002CE5D01868C2
:1004C000304207D11868304209D110460C46FFF778
:1004D0004FFF03E010460C46FFF7D2FE21460868A6
:1004E0003043086001B0F0BD48100A4080130A4054
:1004F000F0B581B00026614D009630465038C0B24C
:10050000009C214600F0CEFD1020286004212960C7
:1005100040222A6020232B602F46103F3A602A6039
:100520002B603A602A602B603A602A602B603A6048
:100530002A602B603A602A602B603A602A603B6038
:100540003A602A602B603A60396038602860296020
:100550002A602B603A602A602B603A602A602B6028
:100560003A602A603B603A602A602B603A602A60F9
:100570002B603A602A602B603A602A602B603A60F8
:1005800039603860386029602A602B603A602A60E0
:100590002B603A602A602B603A602A602B603A60D8
:1005A0002A602B603A602A602B603A602A602B60D8
:1005B0003A602A602B603A603960386038602960A0
:1005C0002A602B603A602A602B603A602A602B60B8
:1005D0003A602A602B603A602A602B603A602A6099
:1005E0002B603A602A602B603A602A602B603A6088
:1005F00039603860386029602A602B603A602A6070
:100600002B603A602A602B603A602A602B603A6067
:100610002A602B603A602A602B603A602A602B6067
:100620003A602A602B603A6039603860386029602F
:100630002A602B603A602A602B603A602A602B6047
:100640003A602A602B603A602A602B603A602A6028
:100650002B603A602A602B603A602A602B603A6017
:1006600039603860241D64B2002C8BD5701CF1B247
:100670000729064600D240E701B0F0BDA0120A40AB
:10068000F0B583B0FC48FD49016081214160C16043
:1006900041610161C161FA4E742030603546103D00
:1006A00001200002286074303063F6480168082297
:1006B0000A430260F448016A0222114301620168A0
:1006C000114301606424204600F09DFD204600F0A7
:1006D0009AFD1020306001460420306040243460D0
:1006E00020272F602C60346037602C6034602F60CE
:1006F0002C60346037602C6034602F602C60346074
:100700002F602C6034602F602C60346037602C6068
:100710002860296031603060346037602C6034605C
:1007200037602C60346037602C60346037602C6038
:10073000346037602C60346037602C6034602F6028
:100740002C60346037602C60286029603160306034
:10075000346037602C60346037602C603460376000
:100760002C6034602F602C60346037602C60346003
:1007700037602C60346037602C60346037602C60E8
:100780002860296031603060346037602C603460EC
:100790002F602C60346037602C60346037602C60D0
:1007A000346037602C60346037602C6034603760B0
:1007B0002C60346037602C602860296031603060C4
:1007C00034602F602C60346037602C603460376098
:1007D0002C60346037602C60346037602C6034608B
:1007E00037602C60346037602C6034602F602C6080
:1007F000286029603160306034602F602C60346084
:100800002F602C60346037602C60346037602C605F
:1008100034602F602C6034602F602C6034602F6057
:100820002C6034602F602C6028602960316030605B
:1008300034602F602C60346037602C6034602F602F
:100840002C60346037602C60346037602C6034601A
:1008500037602C60346037602C6034602F602C600F
:10086000286029603160306034602F602C60346013
:100870002F602C60346037602C60346037602C60EF
:1008800034602F602C60346037602C6034603760D7
:100890002C60346037602C602860296031603060E3
:1008A00034602F602C60346037602C6034602F60BF
:1008B0002C60346037602C60346037602C603460AA
:1008C0002F602C6034602F602C60346037602C60A7
:1008D000286029603160306034602F602C603460A3
:1008E00037602C6034602F602C60346037602C607F
:1008F00034602F602C60346037602C603460376067
:100900002C60346037602C60286029603160306072
:10091000346037602C60346037602C6034602F6046
:100920002C6034602F602C6034602F602C60346049
:100930002F602C6034602F602C6034602F602C603E
:10094000286029603160306034602F602C60346032
:100950002F602C60346037602C6034602F602C6016
:10096000346037602C60346037602C6034602F60F6
:100970002C6034602F602C6028602960316030600A
:10098000346037602C60346037602C6034603760CE
:100990002C60346037602C60346037602C603460C9
:1009A00037602C60346037602C60346037602C60B6
:1009B000286029603160306034602F602C603460C2
:1009C0002F602C60346037602C6034602F602C60A6
:1009D000346037602C6034602F602C603460376086
:1009E0002C6034602F602C6028602960316030609A
:1009F00034602F602C60346037602C603460376066
:100A00002C60346037602C60346037602C60346058
:100A100037602C60346037602C60346037602C6045
:100A2000286029603160306034602F602C60346051
:100A30002F602C60346037602C6034602F602C6035
:100A400034602F602C60346037602C603460376015
:100A50002C6034602F602C60286029603160306029
:100A600034602F602C6034602F602C6034602F6005
:100A70002C6034600AE0C0460880424081000400D7
:100A8000A0120A4090130A4028100A402F602C60E0
:100A9000346037602C60346037602C6034603760BD
:100AA0002C6034602F602C602860296031603060D9
:100AB00034602F602C6034602F602C6034603760AD
:100AC0002C6034602F602C6034602F602C603460A8
:100AD00037602C6034602F602C60346037602C608D
:100AE0002860296031603060346037602C60346089
:100AF00037602C60346037602C6034602F602C606D
:100B0000346037602C60346037602C6034602F6054
:100B10002C60346037602C60286029603160306060
:100B200034602F602C6034602F602C60346037603C
:100B30002C6034602F602C6034602F602C60346037
:100B400037602C6034602F602C6034602F602C6024
:100B50002860296031603060346037602C60346018
:100B60002F602C60346037602C60346037602C60FC
:100B7000346037602C60346037602C6034603760DC
:100B80002C60346037602C602860296031603060F0
:100B9000346037602C60346037602C6034602F60C4
:100BA0002C60346037602C60346037602C603460B7
:100BB00037602C60346037602C60346037602C60A4
:100BC0002860296031603060346037602C603460A8
:100BD00037602C60346037602C60346037602C6084
:100BE000346037602C60346037602C6034602F6074
:100BF0002C60346037602C60286029603160306080
:100C000034602F602C60346037602C603460376053
:100C10002C60346037602C6034602F602C6034604E
:100C20002F602C60346037602C6034602F602C6043
:100C30002860296031603060346037602C60346037
:100C400037602C60346037602C6034602F602C601B
:100C5000346037602C6034602F602C603460376003
:100C60002C60346037602C6028602960316030600F
:100C700034602F602C60346037602C6034602F60EB
:100C80002C60346037602C60346037602C603460D6
:100C90002F602C60346037602C60346037602C60CB
:100CA000286029603160306034602F602C603460CF
:100CB00037602C6034602F602C60346037602C60AB
:100CC000346037602C6034602F602C6034602F609B
:100CD0002C60346037602C6028602960316030609F
:100CE00034602F602C60346037602C6034602F607B
:100CF0002C60346037602C6034602F602C6034606E
:100D00002F602C6034602F602C6034602F602C606A
:100D100028602960316001913060029034602F605A
:100D20002C60346037602C6034602F602C6034603D
:100D300037602C6034602F602C6034602F602C6032
:100D400034602F602C6034602F602C602860296034
:100D5000FFF7CEFB019830600299316034602F605C
:100D60002C60346037602C6034602F602C603460FD
:100D70002F602C60346037602C60346037602C60EA
:100D8000346037602C60346037602C6029602860E4
:100D900030603160346037602C60346037602C60C4
:100DA000346037602C6034602F602C6034603760B2
:100DB0002C60346037602C60346037602C603460A5
:100DC00037602C60296028603060316034603760A3
:100DD0002C60346037602C60346037602C60346085
:100DE00037602C60346037602C60346037602C6072
:100DF000346037602C6034602F602C60296028607C
:100E000003B0F0BDF0B583B0144602910646084623
:100E10005038C0B20025294600F044F9300910309E
:100E20000190294600F03EF90E203040401C009011
:100E3000294600F037F9A6014A4FB85D0124214642
:100E400000F030F9BE197078214600F02BF9B07827
:100E5000214600F027F9F078214600F023F9307997
:100E6000214600F01FF97079214600F01BF9B07996
:100E7000214600F017F9F079214600F013F9307A95
:100E8000214600F00FF9707A214600F00BF9B07A94
:100E9000214600F007F9F07A214600F003F9307B93
:100EA000214600F0FFF8707B214600F0FBF8B07B94
:100EB000214600F0F7F8F07B214600F0F3F80298A5
:100EC0004F38C0B2294600F0EDF80198294600F0ED
:100ED000E9F80098294600F0E5F82020305C21462A
:100EE00000F0E0F820367078214600F0DBF8B078AA
:100EF000214600F0D7F8F078214600F0D3F8307999
:100F0000214600F0CFF87079214600F0CBF8B07997
:100F1000214600F0C7F8F079214600F0C3F8307A96
:100F2000214600F0BFF8707A214600F0BBF8B07A95
:100F3000214600F0B7F8F07A214600F0B3F8307B94
:100F4000214600F0AFF8707B214600F0ABF8B07B93
:100F5000214600F0A7F8F07B214600F0A3F803B08B
:100F6000F0BDC04600000020F0B583B01446064630
:100F7000800902220240501802905038C0B2002569
:100F8000294600F08FF877B2F81787433809102602
:100F900006433046294600F085F80E203840401CB4
:100FA0000190294600F07EF8203CE0B207012A4873
:100FB000C05D0124214600F075F82748C7197878EC
:100FC000214600F06FF8B878214600F06BF8F87809
:100FD000214600F067F83879214600F063F8787907
:100FE000214600F05FF8B879214600F05BF8F87907
:100FF000214600F057F802984F38C0B2294600F059
:1010000051F83046294600F04DF80198294600F085
:1010100049F8387A214600F045F8787A214600F000
:1010200041F8B87A214600F03DF8F87A214600F000
:1010300039F8387B214600F035F8787B214600F0FE
:1010400031F8B87B214600F02DF8F87B214600F0FE
:1010500029F803B0F0BDC0465C120000F0B581B0C5
:1010600000921278002A1AD00D4606460024274620
:1010700006E07F1CF9B2009A525C002A06460ED0A8
:10108000F0B2E9B2D2B2FFF76FFF0836F1B27829B9
:10109000204600D830467829EBD9AD1CE9E701B0ED
:1010A000F0BD000010B52C4A002902D010211160BB
:1010B00001E010211161042111614023136144B248
:1010C000002C02D42024146101E020241460136059
:1010D0001361440602D42024146101E0202414602A
:1010E00013601361840602D42024146101E02024DB
:1010F000146013601361C40602D42024146101E05B
:101100002024146013601361040702D420241461A6
:1011100001E02024146013601361440702D42024EA
:10112000146101E02024146013601361840702D469
:101130002024146101E02024146013601361C007AF
:1011400002D12020106101E02020106013601160A6
:101150001020106010BDC04690120A407047000079
:101160000B48002101600320C1430A48021F136895
:101170000B40136001680F229143016001210903B4
:1011800002680A430260816B10220A43826370473F
:1011900008030B4004010B4080B500F005F8FFF791
:1011A000DDFFFFF7DDFF80BD80B5044804494160E5
:1011B000044901601020FFF731F980BD00080A40A2
:1011C000030000B1010000260B480068C0B20B28E4
:1011D00011D10A48C1690A4A117011780268D20710
:1011E00008D00268D20705D00268D20702D0026890
:1011F000D207F3D1816170472090104008911040D0
:10120000E0020020704780B57D2109024843FFF7C6
:1012100005F980BDFFF7C0FFFFF732FAFFF768F965
:101220000A20002107A2FFF719FF02240E2107A2BE
:101230002046FFF713FF0C2003222146FFF7E2FDB3
:10124000FEE7C04648656C6C6F00000057452041C2
:1012500052452057494E4E455221000000000000E3
:10126000000000000000000000000000000000F886
:1012700000000000000000333000000000100C06E9
:10128000100C0600000000000000000040C0784084
:10129000C0784000043F04043F040400007088FC50
:1012A00008300000001820FF211E0000F008F000A8
:1012B000E018000000211C031E211E0000F0088819
:1012C000700000001E2123241927211010160E0083
:1012D000000000000000000000000000000000E02E
:1012E0001804020000000007182040000002041843
:1012F000E00000000040201807000000404080F09F
:10130000804040000202010F01020200000000F0D4
:10131000000000000101011F0101010000000000A8
:101320000000000080B0700000000000000000001D
:1013300000000000000101010101010100000000A6
:10134000000000000030300000000000000000003D
:1013500080601804006018060100000000E010081A
:101360000810E000000F102020100F00001010F8EF
:10137000000000000020203F20200000007008082E
:1013800008887000003028242221300000300888AE
:10139000884830000018202020110E000000C020D6
:1013A00010F8000000070424243F240000F80888F7
:1013B000880808000019212020110E0000E0108884
:1013C00088180000000F112020110E0000380808B6
:1013D000C83808000000003F0000000000708808C6
:1013E00008887000001C222121221C0000E0100847
:1013F0000810E0000000312222110F00000000C0A0
:10140000C00000000000003030000000000000803C
:10141000000000000000806000000000000080402C
:101420002010080000010204081020004040404045
:101430004040400004040404040404000008102098
:1014400040800000002010080402010000704808DD
:101450000808F0000000003036010000C030C82845
:10146000E810E0000718272423140B000000C03800
:10147000E0000000203C23020227382008F888887A
:1014800088700000203F202020110E00C030080886
:1014900008083800071820202010080008F808085D
:1014A0000810E000203F202020100F0008F8888856
:1014B000E8081000203F20202320180008F8888822
:1014C000E8081000203F200003000000C03008089A
:1014D0000838000007182020221E020008F8080023
:1014E0000008F808203F210101213F20000808F8EA
:1014F000080800000020203F20200000000008080D
:10150000F8080800C08080807F00000008F888C0CC
:1015100028180800203F20012638200008F808007D
:1015200000000000203F20202020300008F8F800B4
:10153000F8F80800203F003F003F200008F830C0C6
:101540000008F808203F200007183F00E0100808B6
:101550000810E0000F10202020100F0008F80808E5
:101560000808F000203F210101010000E0100808F8
:101570000810E0000F18242438504F0008F888881D
:1015800088887000203F2000030C302000708808FD
:10159000080838000038202121221C00180808F80B
:1015A000080818000000203F2000000008F808008C
:1015B0000008F808001F202020201F00087888005D
:1015C00000C83808000007380E010000F80800F8CD
:1015D0000008F800033C0700073C03000818688077
:1015E0008068180820302C03032C30200838C800ED
:1015F000C83808000000203F20000000100808083C
:10160000C83808002038262120201800000000FEDD
:10161000020202000000007F40404000000C30C089
:1016200000000000000000010638C00000020202B5
:10163000FE000000004040407F0000000000040267
:101640000202040000000000000000000000000092
:101650000000000080808080808080800002020482
:10166000000000000000000000000000000080807A
:10167000808000000019242222223F2008F80080E8
:1016800080000000003F112020110E0000000080AB
:1016900080800000000E112020201100000000803A
:1016A0008088F800000E112020103F20000080806C
:1016B00080800000001F222222221300008080F080
:1016C000888888180020203F2020000000008080AB
:1016D00080808000006B94949493600008F80080F0
:1016E00080800000203F210000203F20008098984B
:1016F000000000000020203F2020000000000080AB
:101700009898000000C08080807F000008F80000EA
:1017100080808000203F24022D302000000808F83F
:10172000000000000020203F2020000080808080FA
:1017300080808000203F20003F20003F808000808C
:1017400080800000203F210000203F20000080809A
:1017500080800000001F202020201F00808000804B
:101760008000000080FFA12020110E0000000080FA
:1017700080808000000E112020A0FF8080808000EB
:101780008080800020203F21200001000000808018
:10179000808080000033242424241900008080E00D
:1017A000808000000000001F2020000080800000DA
:1017B00000808000001F202020103F2080808000BB
:1017C0000080808000010E300806010080800080CB
:1017D000008080800F300C030C300F0000808000F0
:1017E000808080000020312E0E312000808080001B
:1017F0000080808080818E701806010000808080CB
:10180000808080000021302C222130000000000068
:10181000807C020200000000003F40400000000009
:10182000FF00000000000000FF0000000002027C3A
:10183000800000000040403F00000000FFFFFFFF6D
:10184000FFFFFFFFFFFFFFFFFFFFFFFF00000000A4
:10185000701800000000002080020000F401000069
:10186000B01900008002002068010000280100007B
:10187000001012404048484CCA794848CA4C584069
:1018800060400010130808444249494949494D49FC
:1018900062440C040F13FE0222DA0680888888FF57
:1018A000888CC8800E13FF0810080700FE40407F98
:1018B0004040FE00101280622AAAAAAAAAAFAAAAD1
:1018C000AAAA2BA2600010134040405E52725252EE
:1018D0005272525E4060400D15F848484848FF4833
:1018E000484848FC080E1307020202023F424242E7
:1018F0004247407000101780808282828282E2A27A
:10190000928A8680C080041940807F0F132424248B
:10191000A4FEA32200244800FF0080261008060130
:10192000FF0A120102020202FF0101010F1310104F
:1019300010FF1010888888FF88888C080010140415
:1019400044827F018081462810282641C0400C1423
:10195000FE82929292FE92929282FE3480601F09E1
:10196000151E1212121E40807F0F1298FCFC7C7C08
:101970007C7E7E7C7C7CFCFC9C001013849CDDFDCA
:10198000FF9FFFFDEDFDFF9F9DFDFC0F12989898B6
:10199000F8FCFC868680FCFEFC8080001111018131
:1019A000C1E17F1F03010101FFFFFF0101010000F1
:04000005000000C136
:00000001FF
