:020000040000FA
:10000000780100208D0100009101000093010000A3
:1000100000000000000000000000000000000000E0
:10002000000000000000000000000000950100003A
:10003000000000000000000097010000990100008E
:100040009B010000D10500009B01000000000000A2
:100050009B01000000000000000000000000000004
:10006000000000009B0100000000000000000000F4
:10007000000000009B01000000000000E9060000F5
:100080009B010000000000009B0100000000000038
:100090009B010000000000000000000000000000C4
:1000A0009B0100009B010000000000000000000018
:1000B0000000000000000000000000009B010000A4
:1000C00000F002F800F052F812A030C808382418E6
:1000D0002D18AC4201D100F049F80FCCA246AB4636
:1000E0000CA730CF2D1B083F3F197C427F1E544484
:1000F0002D090426F441641EAC4201D300F036F809
:100100000126334200D0FB1A3343984754465D46DC
:10011000DFE70000CC0B0000EC0B0000000000004B
:10012000103A02D378C878C1FAD8520701D330C840
:1001300030C101D504680C60704700000000000069
:100140007047000000000000002300240025002666
:10015000103A01D378C1FBD8520700D330C100D583
:100160000B6070471FB51FBD10B510BD00F027F81C
:100170001146FFF7F7FF00F0DBFA00F03FF803B499
:10018000FFF7F2FF03BC00F0CDFA0000064800477D
:10019000FEE7FEE7FEE7FEE7FEE7FEE70348044969
:1001A000024A044B70470000C100000078000020A4
:1001B000780100207800002070477047704775462E
:1001C00000F024F8AE46050069465346C008C0005A
:1001D000854618B020B5FFF7E1FF60BCB6460026A3
:1001E0000027C0C5C0C5C0C5C0C5C0C5C0C5C0C545
:1001F000C0C5403D490849008D46704710B50446CA
:10020000C046C0462046FFF7BAFF10BD0048704701
:1002100008000020F0B581B00546774F0024012684
:1002200038462146324600F093F9384621462246A8
:1002300000F08EF96F4F38462946324600F088F9B3
:1002400038462946224600F083F96C4F3846294645
:10025000324600F07DF938462146224600F078F912
:1002600001B0F0BDF0B581B00546644F0024012611
:1002700038462146324600F06BF938462146224680
:1002800000F066F95B4F38462946324600F060F9C7
:1002900038462946224600F05BF9574F3846294632
:1002A000324600F055F938462146224600F050F912
:1002B00001B0F0BDF0B581B005464F4F00240126D6
:1002C00038462146324600F043F938462146224658
:1002D00000F03EF9494F38462946324600F038F9D9
:1002E00038462946224600F033F9424F384629461F
:1002F000324600F02DF938462146224600F028F912
:1003000001B0F0BDF0B581B005463A4F002401269A
:1003100038462146324600F01BF93846214622462F
:1003200000F016F9354F38462946324600F010F9EC
:1003300038462946224600F00BF92F4F3846294609
:10034000324600F005F938462146224600F000F911
:1003500001B0F0BDF0B581B00546284F002401265C
:1003600038462146324600F0F3F838462146224608
:1003700000F0EEF8204F38462946324600F0E8F803
:1003800038462946224600F0E3F81A4F38462946F7
:10039000324600F0DDF838462146224600F0D8F813
:1003A00001B0F0BDF0B581B00546124F0024012622
:1003B00038462146324600F0CBF8384621462246E0
:1003C00000F0C6F80C4F38462946324600F0C0F817
:1003D00038462946224600F0BBF8084F38462946E1
:1003E000324600F0B5F838462146224600F0B0F813
:1003F00001B0F0BD004008400080084000C0084047
:10040000811E091F00BFFCD270470000F0B53C4AB6
:1004100082183C4BC31808794E793B4D3B4C002E5B
:1004200023D0202804D00526F601002803D003E0BD
:10043000374E002800D18826576F2F403743576723
:10044000976F2F4037439767566B26405663966BDE
:10045000264096630026566596658F26F6435F68AC
:1004600037405F609F6837409F608E790968202819
:100470000BD0002819D1491E5160D76E2F4088211A
:100480000F43D7661746703719E0491E5160D16E89
:1004900029401F4F3943D166116F294039431167F5
:1004A000012149071B4D174609E049085160D76EE5
:1004B0002F400521C9010F43D766174670373C68A6
:1004C0002C400C433C60D16A104C2140D162116B2E
:1004D000214011630021D16411658F21C943D46F7C
:1004E0000C40D4671C680C401C600643BD203040A3
:1004F0001168094B0B40C018801C1060F0BDC0464D
:10050000041800008418000024493E008888FDFF7C
:1005100001040000FFFFFFCF4000FFCF10B507230D
:100520009B04194092008018024A84589C43611829
:10053000815010BD3018000010B5029CA4000019B5
:1005400011431943014A815010BDC04650180000A4
:1005500092008018014A81507047C0461018000070
:1005600010B50122120383180C789C604B788350DD
:100570008978014A815010BD0C110000D648D74936
:100580004160DA4901600C480C49016041600C4946
:1005900081600C4801683F220A4302600720000383
:1005A00009490A6A02430A620A6802430A60074864
:1005B000022101607047C04634804240810005003E
:1005C00081000D0090130A4028100A4000E100E06D
:1005D000F0B581B00127BE032949084610380568E7
:1005E000AF20C200E804274B15D53C031868204211
:1005F00007D1186820420BD110460092FFF70AFE7F
:1006000003E010460092FFF755FE1E4B009A1C496E
:100610000868204308602C463440A80403D4002C0A
:1006200019D101B0F0BD7D031868284207D11868C0
:1006300028420BD110461746FFF7B4FE03E01046E0
:100640001746FFF75FFE0F4B3A460D4908682843EF
:100650000860002CE5D01868304207D11868304295
:1006600009D110460C46FFF775FE03E010460C4614
:10067000FFF7F8FD214608683043086001B0F0BD7F
:1006800048100A4080130A40704700000B480021C0
:1006900001600320C1430A48021F13680B40136026
:1006A00001680F22914301600121090302680A4396
:1006B0000260816B10220A438263704708030B407B
:1006C00004010B4080B500F005F8FFF7DDFFFFF7F0
:1006D000DDFF80BD80B5E748E7494160EA49016038
:1006E0001020FFF78DFE80BD0B480068C0B20B28BC
:1006F00011D10A48C1690A4A117011780268D207FB
:1007000008D00268D20705D00268D20702D002687A
:10071000D207F3D1816170472090104008911040BA
:1007200070000020704780B54001FFF769FE80BD72
:10073000FFF7C8FF00F0EEF800F088F8FFF71EFFA3
:1007400000F002F8FEE70000F0B583B0FF24F634B5
:100750004B2000010090CF4D394E3A4F04E0FFF797
:10076000E2FF641E022C66D9306805284FD8019438
:10077000800004A10858CB490F462E46C74A1346AD
:100780008746C046C30700009D070000A50700007C
:10079000AD070000B5070000BD07000017462E4654
:1007A0000B460EE02F4616460B460AE00F4616464D
:1007B0002B4606E017460E462B4602E02F460E4615
:1007C0001346029300240125384621462A46FFF7A6
:1007D000BFFE384621462246FFF7BAFE3046009F4C
:1007E00039462A46FFF7B4FE304639462246FFF71F
:1007F000AFFE029839462A46A64DFFF7A9FE029899
:1008000021462246FFF7A4FE019C0D4E0D4F306895
:10081000052801DB002000E0401C306038687D21A5
:10082000890188429BDB0E2242430F21104600F0D3
:100830006BF9386093E704480121016003B0F0BD13
:1008400068000020000000206C000020B0B589483E
:1008500089494160224A5160224B5960224C6160B3
:10086000894901601160196021601020FFF7C8FDFF
:100870001F482049C16381644164C1624162816251
:10088000822101601C4881681C4A11408C318160C2
:100890001B498B6813408C338B601A4A131F1C68EA
:1008A000194D2540194C2C191C601368E224A343F0
:1008B00013605368164C1C405460136808241C4392
:1008C0001460036801242343036008682043086020
:1008D000106820431060B0BD00080A40030000B15A
:1008E0000008024000280240008800400100002665
:1008F0002080424001000400001102400000FFFF80
:100900000031024004910040F87FF87F00800080B1
:1009100046FFFCFFF0B581B0564857494160574A41
:100920005160574B5960574C6160574901601160E5
:1009300019602160554882218160554A2023136047
:10094000C160402313608523C3610124A5021560A3
:100950000362E3021360016008231360416010200A
:1009600010604C4F4C493846FFF7FAFD4B4E4C494E
:100970003046FFF7F5FD4B4D4B492846FFF7F0FD9C
:100980004A493846FFF742FD49493046FFF73EFDE8
:1009900048492846FFF73AFD002500953846294684
:1009A0002A462B46FFF7C8FD0094384629462A46BA
:1009B0002B46FFF7C1FD0095304629462A462B46B7
:1009C000FFF7BAFD0094304629462A462B46FFF72A
:1009D000B3FD0095334829462A462B46FFF7ACFD68
:1009E00000943048064629462A462B46FFF7A4FDC8
:1009F000384629462246FFF791FD284829462246D7
:100A0000FFF78CFD304629462246FFF787FD384622
:100A100029462A46FFF79CFD384629462246FFF71D
:100A200097FD1E4829462A46FFF792FD1B48294696
:100A30002246FFF78DFD304629462A46FFF788FDFE
:100A4000304629462246FFF783FD1B4804600146D5
:100A5000083903220A6019490C600B46083B1A60EA
:100A6000174B1C601D46083D2A6004600C601C602A
:100A700001B0F0BD00080A40030000B10048084082
:100A800000C808400088084001000026108042404D
:100A9000D0120A4000400840BA0C000000C00840D4
:100AA000C80C000000800840D40C0000C00C0000FE
:100AB000CC0C0000D80C00000851084008D10840B8
:100AC0000891084043088B421AD3002203098B4245
:100AD00079D3030A8B425ED3030B8B4242D3030CC0
:100AE0008B4227D30902FF2212BA030C8B4202D396
:100AF0001212090203D0030B8B4233D31AE0D3E066
:100B0000411A8041401C704703460B4371D443088F
:100B10008B42F5D3002203098B4254D3030A8B4244
:100B200039D3030B8B421DD3030C8B4202D3944663
:100B30006EE0090AC30B8B4201D3CB03C01A5241AA
:100B4000830B8B4201D38B03C01A5241430B8B4260
:100B500001D34B03C01A5241030B8B4201D30B0349
:100B6000C01A5241C30A8B4201D3CB02C01A524170
:100B7000830A8B4201D38B02C01A5241430A8B4233
:100B800001D34B02C01A5241030A8B4201D30B021C
:100B9000C01A5241CDD2C3098B4201D3CB01C01A36
:100BA000524183098B4201D38B01C01A5241430940
:100BB0008B4201D34B01C01A524103098B4201D32E
:100BC0000B01C01A5241C3088B4201D3CB00C01A9B
:100BD000524183088B4201D38B00C01A5241430813
:100BE0008B4201D34B00C01A5241411A52411000AE
:100BF0007047CA0F00D04942031000D3404253400F
:100C000000229C4603098B422DD3030A8B4212D348
:100C10008901FC2212BA030A8B420CD3890192117A
:100C20008B4208D3890192118B4204D3890137D0BA
:100C3000921100E08909C3098B4201D3CB01C01A8C
:100C4000524183098B4201D38B01C01A524143099F
:100C50008B4201D34B01C01A524103098B4201D38D
:100C60000B01C01A5241C3088B4201D3CB00C01AFA
:100C7000524183088B4201D38B00C01A5241D9D212
:100C800043088B4201D34B00C01A5241411A00D293
:100C900001465241104663465B1000D34042704704
:100CA00063465B1000D3404201B50021004201D0F1
:100CB000C9430846C046C04602BD08000000000007
:100CC000D00700002000010008000000D00700004D
:100CD0002000010008000000D007000020000100F3
:100CE000000D0000000000200800000020010000AE
:100CF000080D0000080000207001000048010000FD
:080D0000401F0000000000008C
:04000005000000C136
:00000001FF
