:020000040000FA
:10000000680100206D010000710100007301000013
:1000100000000000000000000000000000000000E0
:10002000000000000000000000000000750100005A
:1000300000000000000000007701000079010000CE
:100040007B010000D90700007B01000000000000D8
:100050007B01000000000000000000000000000024
:10006000000000007B010000000000000000000014
:10007000000000007B010000000000007B01000088
:10008000710D0000000000007B0100000000000076
:100090007B010000000000000000000000000000E4
:1000A0007B0100007B010000000000000000000058
:1000B0000000000000000000000000007B010000C4
:1000C00000F002F800F042F812A030C808382418F6
:1000D0002D18AC4201D100F039F80FCCA246AB4646
:1000E0000CA730CF2D1B083F3F197C427F1E544484
:1000F0002D090426F441641EAC4201D300F026F819
:100100000126334200D0FB1A3343984754465D46DC
:10011000DFE70000741300008413000000000000FB
:100120007047000000000000002300240025002686
:10013000103A01D378C1FBD8520700D330C100D5A3
:100140000B6070471FB51FBD10B510BD00F0DDF886
:100150001146FFF7F7FF00F055FE00F0F5F803B485
:10016000FFF7F2FF03BC00F0FBF800000648004771
:10017000FEE7FEE7FEE7FEE7FEE7FEE70348044989
:10018000024A044B70470000C100000068000020D4
:100190006801002068000020002203098B422CD354
:1001A000030A8B4211D300239C464EE003460B43C7
:1001B0003CD4002243088B4231D303098B421CD329
:1001C000030A8B4201D394463FE0C3098B4201D31B
:1001D000CB01C01A524183098B4201D38B01C01A53
:1001E000524143098B4201D34B01C01A52410309CA
:1001F0008B4201D30B01C01A5241C3088B4201D379
:10020000CB00C01A524183088B4201D38B00C01A25
:10021000524143088B4201D34B00C01A5241411A4C
:1002200000D201465241104670475DE0CA0F00D02F
:100230004942031000D3404253409C460022030928
:100240008B422DD3030A8B4212D38901FC2212BAAE
:10025000030A8B420CD3890192118B4208D3890186
:1002600092118B4204D389013AD0921100E089099E
:10027000C3098B4201D3CB01C01A524183098B427F
:1002800001D38B01C01A524143098B4201D34B0168
:10029000C01A524103098B4201D30B01C01A5241CB
:1002A000C3088B4201D3CB00C01A524183088B4252
:1002B00001D38B00C01A5241D9D243088B4201D3DB
:1002C0004B00C01A5241411A00D201465241104619
:1002D00063465B1001D34042002B00D54942704772
:1002E00063465B1000D3404201B50549002802DC9B
:1002F000491C084000E00846C046C04602BD00BF99
:10030000FFFFFF7F704770477047754600F024F885
:10031000AE46050069465346C008C000854618B081
:1003200020B5FFF72BFF60BCB64600260027C0C5EE
:10033000C0C5C0C5C0C5C0C5C0C5C0C5C0C5403D9D
:10034000490849008D46704710B50446C046C0466E
:100350002046FFF704FF10BD004870470000002052
:1003600001491820ABBEFEE726000200704781B0AD
:100370000090801E001F00BFFCD201B0704784B007
:1003800003900291019203980068009000980199EF
:100390008843009000980299019A114008430399FC
:1003A000086004B0704784B00390029101920398F2
:1003B0000068009000980199884300900098029985
:1003C000019A114008430399086004B07047000087
:1003D00082B001900091009B0199034A885818430C
:1003E000885002B07047C0464810000082B00190AB
:1003F00000910098019995225201885002B07047EF
:1004000082B0019000910098019995225201885084
:1004100002B0704782B00190009100980199952236
:100420005201885002B0704782B001900091009B49
:100430000199634A88581843885002B07047C046F3
:1004400082B00190009100980199024A885002B050
:100450007047C046D012000081B000900099012082
:10046000C2025D48885001B07047C04681B000901C
:1004700000988100084A0248885001B07047C04681
:100480008100040081B0009000988100024A812020
:10049000885001B07047C0460480424082B001904D
:1004A000009101982721C90140580099084002B0E5
:1004B0007047000081B0009000998B4A8B488850AB
:1004C00001B0704782B001900091009B0199034AEE
:1004D00088581843885002B07047C04690130000F7
:1004E00082B001900091009801990C4A885002B0A6
:1004F0007047C04682B00190009100980199074A68
:10050000885002B07047C04682B0019000910098B8
:100510000199024A885002B07047C046901200000C
:1005200081B0014668460170017830204843024995
:10053000405801B07047C046001140400349086868
:1005400001221203104308607047C04604010B40AB
:100550000249086810221043086070473C010B40B4
:1005600081B001466846017000780249086001B018
:100570007047C04608030B4080B582B0014601A811
:100580000170017802480322FFF7F9FE02B080BD36
:1005900000010B4081B000900099024A0120885070
:1005A00001B070470811000082B001900091009BDB
:1005B0000199034A88581843885002B07047C046D2
:1005C0002810000081B0009000990120C20202486A
:1005D000885001B07047C0460100002680B584B045
:1005E0000390029103980299496800F0DDF802989F
:1005F00000780190222856D80198810001A0405827
:100600008746C0469D060000A70600009D06000024
:10061000A7060000A7060000A7060000A706000026
:10062000A7060000A7060000A7060000A706000016
:10063000A7060000A7060000A7060000A706000006
:10064000A706000091060000A70600009106000022
:10065000A7060000A7060000A7060000A7060000E6
:10066000A7060000A7060000A7060000A7060000D6
:10067000A7060000A7060000A7060000A7060000C6
:10068000A706000091060000A706000091060000E2
:1006900003980121490700F079F805E0039800214B
:1006A00000F074F800E0FFE703980299098A00223D
:1006B000009200F03BF8009B03980299C9681A4623
:1006C00000F016F802990878097A08430399414A1C
:1006D000885004B080BDC04681B000900099024AA5
:1006E0000248885001B0704704080000030000B1C0
:1006F00010B586B005900491039202A80370059985
:10070000084A8918019101780198890040180190E0
:1007100001980499039A1143034AFFF744FE06B077
:1007200010BDC046301800007777020084B00390F7
:10073000029101A802700399064A89180091017874
:10074000009889004018009002980099086004B051
:100750007047C0461018000082B0019000910098C8
:1007600000780199074A8850009840780199012241
:1007700012038850009880780199034A885002B08B
:100780007047C046081000000C11000080B582B010
:100790000190009101980F49401800990322120717
:1007A000FFF701FE02B080BD82B001900091009879
:1007B0000199024A885002B07047C04608180000EC
:1007C00081B000900099034A88580123184388504B
:1007D00001B070470418000080B50120FFF7A0FEAB
:1007E000012814D1FFE7012001020A48FFF7FEFDAE
:1007F000FFE708480221FFF751FE002801D1FFE77B
:10080000F7E7012001020348FFF76AFE00E0FFE777
:1008100080BDC04600000A4080B584B003A9002016
:100820000870FFE703A80078072828DCFFE7039893
:10083000B030C0B20021019100F0CEF90199022040
:1008400000F0CAF90199102000F0C6F9019802A938
:100850000870FFE702A800787F280ADCFFE7002085
:10086000012100F0B9F9FFE70298401C02A90870C5
:10087000F0E7FFE70398401C03A90870D2E704B033
:1008800080BD80B586B06420009000F0A3FA009887
:1008900000F0A0FAAE200021059100F09DF9059925
:1008A0000220029000F098F90599102000F094F9C8
:1008B00005994020019000F08FF90599812000F002
:1008C0008BF90599CF2000F087F90599A12000F058
:1008D00083F90599C82000F07FF90599A6200390B7
:1008E00000F07AF90599A82000F076F905993F20E3
:1008F00000F072F90599D32000F06EF905990846C9
:1009000000F06AF90599D52000F066F90599802074
:1009100000F062F90599D92000F05EF90599F120FF
:1009200000F05AF90599DA2000F056F905991220DD
:1009300000F052F90599DB2000F04EF90198059975
:1009400000F04AF90599202000F046F9029805992F
:1009500000F042F905998D2000F03EF90599142028
:1009600000F03AF90599A42000F036F903980599AA
:1009700000F032F90599AF20049000F02DF90498A9
:10098000059900F029F9FFF747FF0599084600F09F
:1009900002F806B080BD80B584B003AA0092107042
:1009A00002A801700298B030C0B20021019100F09D
:1009B00013F90098019900780009103000F00CF943
:1009C00001990398012210430F22104000F004F90E
:1009D00004B080BD80B586B0034605A8037004ABA3
:1009E000197003A90A7002AA0021117001AB1970D5
:1009F0000399203911700078802808DBFFE705A9EA
:100A0000002008700498801C04A90870FFE705A85E
:100A1000007804A90978FFF7BEFF01A9002008703B
:100A2000FFE701A80078072811DCFFE702A800789B
:100A3000000101A9097841181748405C012100F024
:100A4000CBF8FFE70198401C01A90870E9E705A869
:100A500000780499491CC9B2FFF79DFF01A9002045
:100A60000870FFE701A80078072812DCFFE702A85A
:100A70000078000101A90978401807494018007A58
:100A8000012100F0A9F8FFE70198401C01A90870B6
:100A9000E8E706B080BDC046740E0000B0B58AB06D
:100AA00004460E9809AD2C7008AC2170079206A977
:100AB0000B7005A9087002A90020087004A908702D
:100AC000FFE704A8007806A9097888424EDAFFE714
:100AD0000798009006990498C0434018C1B20A20B4
:100AE000019000F0AFF901460098FFF755FB01991E
:100AF000FFF752FB03A8017002A80078002820D15C
:100B0000FFE704A8007806A90978491E884218DA88
:100B1000FFE703A8007800280ED1FFE7099805A990
:100B200009784A0804995143401808A90978C0B2C5
:100B30002022FFF74FFF14E002A901200870FFE711
:100B4000FFE7099805A909784A0804995143401814
:100B500008A90978039A3032C0B2D2B2FFF73AFF3F
:100B6000FFE70498401C04A90870AAE70AB0B0BDCA
:100B700080B586B005AB187004A80170039202A975
:100B800000200870FFE7039802A90978405C00285C
:100B900020D0FFE705A80190007804A90978039AFE
:100BA00002AB1B78D25CFFF715FF0198059908315D
:100BB00001700078792808DBFFE705A9002008709C
:100BC0000498801C04A90870FFE70298401C02A941
:100BD0000870D8E706B080BD80B584B003AA107055
:100BE00002A801700078002805D0FFE75F481021B7
:100BF000FFF78AFC04E05D481021FFF70BFCFFE7DC
:100C00005A480421FFF706FC01A900200870FFE7FD
:100C100001A80078072822DCFFE754484021FFF7AD
:100C2000F9FB03A800780006002805D5FFE74F4828
:100C30002021FFF769FC04E04C482021FFF7EAFB84
:100C4000FFE74A484021FFF75FFC0398400003A9F3
:100C50000870FFE70198401C01A90870D8E74348D5
:100C600000900421FFF750FC00981021FFF74CFC86
:100C700004B080BD80B584B001200090FFF7F6FB82
:100C800002200390FFF7FEFB0420FFF7FBFB06208A
:100C9000FFF7F8FB0520FFF7F5FB08200190FFF7B1
:100CA000F1FB324802907421FFF7AAFB00990298E9
:100CB0000902FFF71FFC02985D218900FFF7C0FBC6
:100CC00001990298FFF7FEFB02980399FFF780FB5A
:100CD00002980399FFF7A8FB04B080BD80B582B0ED
:100CE00000200190FFF73CFC0198FFF745FCFFF75F
:100CF00025FCFFF72DFC02B080BD000080B582B05E
:100D000008494F480190FFF727FD01980649FFF772
:100D100065FC01980121FFF747FC0198FFF73AFCB9
:100D200002B080BD641400006814000080B500F0BB
:100D300007F8FFF79FFFFFF7D1FFFFF7DFFF80BD49
:100D400080B582B009480090FFF7B4FB3C480190A1
:100D5000FFF7C2FC0098FFF77FFB0198FFF732FC1A
:100D60001020FFF704FB02B080BDC04600000A401F
:100D700080B582B00B4901910A68501C08601020B0
:100D800000900A2002231946FFF788FE01980068A8
:100D9000642804D1FFE7034900200860FFE702B0A0
:100DA00080BDC0466000002081B0014668460170E9
:100DB00000214056002809D4FFE7684601781F202B
:100DC00001400120884002490860FFE701B07047F8
:100DD00000E100E082B00190FFE7019800280FD009
:100DE000FFE72D20C0000090FFE70098411E009112
:100DF000002801D0FFE7F8E70198401E0190ECE7DA
:100E000002B0704780B582B0002000900190FFF7DB
:100E10008DFFFFF736FDFFF7FFFC0099074A0A2018
:100E2000FFF7A6FE0648FFF7CBFC1020FFF7BCFF3C
:100E30000120FFF7B9FFFFE730BFFDE77C1400009A
:100E40000040084083B002AA107001A80170012080
:100E50000090FFE701AA1078411E1170002806D00B
:100E6000FFE702A80078009948430090F2E7009855
:100E700003B0704700000000000000000000000008
:100E800000000000000000F8000000000000003337
:100E90003000000000100C06100C060000000000DE
:100EA0000000000040C07840C0784000043F0404C7
:100EB0003F040400007088FC08300000001820FF88
:100EC000211E0000F008F000E018000000211C03C3
:100ED0001E211E0000F00888700000001E2123243F
:100EE0001927211010160E0000000000000000005D
:100EF00000000000000000E01804020000000007ED
:100F00001820400000020418E000000000402018F3
:100F100007000000404080F0804040000202010FC6
:100F200001020200000000F0000000000101011FAA
:100F300001010100000000000000000080B070000E
:100F4000000000000000000000000000000101019E
:100F5000010101010000000000000000003030002D
:100F60000000000000000000806018040060180607
:100F70000100000000E010080810E000000F102041
:100F800020100F00001010F8000000000020203F8B
:100F90002020000000700808088870000030282415
:100FA00022213000003008888848300000182020B6
:100FB00020110E000000C02010F8000000070424DB
:100FC000243F240000F80888880808000019212020
:100FD00020110E0000E0108888180000000F11207A
:100FE00020110E0000380808C83808000000003F33
:100FF000000000000070880808887000001C222192
:1010000021221C0000E010080810E000000031223E
:1010100022110F00000000C0C000000000000030DE
:101020003000000000000080000000000000806030
:1010300000000000000080402010080000010204B1
:101040000810200040404040404040000404040498
:101050000404040000081020408000000020100854
:1010600004020100007048080808F0000000003089
:1010700036010000C030C828E810E0000718272417
:1010800023140B000000C038E0000000203C2302C5
:101090000227382008F8888888700000203F202028
:1010A00020110E00C030080808083800071820205A
:1010B0002010080008F808080810E000203F202051
:1010C00020100F0008F88888E8081000203F202032
:1010D0002320180008F88888E8081000203F200026
:1010E00003000000C030080808380000071820205E
:1010F000221E020008F808000008F808203F21011D
:1011000001213F20000808F8080800000020203FC7
:101110002020000000000808F8080800C080808037
:101120007F00000008F888C028180800203F200130
:101130002638200008F8080000000000203F20208A
:101140002020300008F8F800F8F80800203F003FA1
:10115000003F200008F830C00008F808203F2000B9
:1011600007183F00E01008080810E0000F102020CA
:1011700020100F0008F808080808F000203F21019F
:1011800001010000E01008080810E0000F182424F6
:1011900038504F0008F8888888887000203F200069
:1011A000030C30200070880808083800003820211F
:1011B00021221C00180808F8080818000000203F29
:1011C0002000000008F808000008F808001F202090
:1011D00020201F000878880000C838080000073861
:1011E0000E010000F80800F80008F800033C0700B2
:1011F000073C0300081868808068180820302C031A
:10120000032C30200838C800C83808000000203FF0
:101210002000000010080808C838080020382621DF
:1012200020201800000000FE020202000000007FE3
:1012300040404000000C30C00000000000000001F1
:101240000638C00000020202FE00000000404040DC
:101250007F00000000000402020204000000000001
:10126000000000000000000000000000808080807E
:101270008080808000020204000000000000000066
:1012800000000000000080808080000000192422FF
:1012900022223F2008F8008080000000003F11203B
:1012A00020110E000000008080800000000E112040
:1012B00020201100000000808088F800000E11201E
:1012C00020103F200000808080800000001F22222C
:1012D00022221300008080F0888888180020203F98
:1012E000202000000000808080808000006B9494AB
:1012F0009493600008F8008080800000203F210067
:1013000000203F2000809898000000000020203F2F
:1013100020200000000000809898000000C080801D
:10132000807F000008F8000080808000203F2402B9
:101330002D302000000808F8000000000020203FA9
:10134000202000008080808080808000203F20005E
:101350003F20003F8080008080800000203F2100EF
:1013600000203F200000808080800000001F20209F
:1013700020201F00808000808000000080FFA120CE
:1013800020110E000000008080808000000E1120DF
:1013900020A0FF80808080008080800020203F216E
:1013A0002000010000008080808080000033242421
:1013B00024241900008080E0808000000000001FCD
:1013C000202000008080000000808000001F20207E
:1013D00020103F20808080000080808000010E303F
:1013E0000806010080800080008080800F300C03A0
:1013F0000C300F0000808000808080000020312EA3
:101400000E312000808080000080808080818E707E
:101410001806010000808080808080000021302C30
:101420002221300000000000807C02020000000049
:10143000003F404000000000FF00000000000000EE
:10144000FF0000000002027C800000000040403FDE
:1014500000000000FFFFFFFFFFFFFFFFFFFFFFFF98
:10146000FFFFFFFF08006300020000007F0C000088
:1014700000000000000000000000000048656C6CE7
:101480006F00000000000000981400000000002021
:081490006801000028010000C2
:04000005000000C136
:00000001FF
