:020000040000FA
:10000000680100206D010000710100007301000013
:1000100000000000000000000000000000000000E0
:10002000000000000000000000000000750100005A
:1000300000000000000000007701000079010000CE
:100040007B0100007B0100007B010000000000003C
:100050007B01000000000000000000000000000024
:10006000000000007B010000000000000000000014
:10007000000000007B010000000000007B01000088
:100080003D0B0000000000007B01000000000000AC
:100090007B010000000000000000000000000000E4
:1000A0007B0100007B010000000000000000000058
:1000B0000000000000000000000000007B010000C4
:1000C00000F002F800F042F812A030C808382418F6
:1000D0002D18AC4201D100F039F80FCCA246AB4646
:1000E0000CA730CF2D1B083F3F197C427F1E544484
:1000F0002D090426F441641EAC4201D300F026F819
:100100000126334200D0FB1A3343984754465D46DC
:10011000DFE70000440B0000540B0000000000006B
:100120007047000000000000002300240025002686
:10013000103A01D378C1FBD8520700D330C100D5A3
:100140000B6070471FB51FBD10B510BD00F09CF9C6
:100150001146FFF7F7FF00F043FD00F0B4F903B4D8
:10016000FFF7F2FF03BC00F0BBF9000006480047B0
:10017000FEE7FEE7FEE7FEE7FEE7FEE70348044989
:10018000024A044B70470000C100000068000020D4
:100190006801002068000020704770477047000029
:1001A0000346CA02400D10B510430A1504D00124BD
:1001B000E4072043002A05DB0A4CA21A04D4D040ED
:1001C000FF2A00DD002010BD4A00002B01D00120D5
:1001D00000E00020101801225205D042F2D8C817C2
:1001E000C04310BD1E0400001F22030C02D10F22C9
:1001F000000402D0030E03D004E000200146704743
:100200000002083A030F01D10001121F830F01D130
:100210008000921E002801DB4000521E120551187A
:100220004205C012411810467047C10FC90700D0DF
:100230004042012292071143D6E701218907D3E703
:10024000F0B58B4C0F09254689B0BD437BD01D0905
:100250002646AE43FAD00E465E402740F60F3E4398
:10026000254071D024012142FBD0FF24AD19A40404
:100270002D1B039501252D05DB02DB0AC9022B434B
:10028000C90A29431E010901040F130F0501214367
:100290001701880B820391432D098C46A90B1E433D
:1002A0008A039543B30B9A0396433F09BA0B940311
:1002B000A74302962E467E430497B6464E19D71999
:1002C0000C460196544305977E43371B7646BF1B69
:1002D0003601B646BE0B361900967646BC04371971
:1002E000009C01D3641C00946400002F01D00126FF
:1002F0003443029E049F754366467E43049676000F
:1003000034196E0034190094029C019E1C19664336
:10031000751BAE46069465464519059C05956C43CC
:10032000594375460891691A0191049E014651434B
:10033000A41B0491611A009C0791E10605D0610994
:100340000122114302E072E06EE06109089D00277E
:100350002C0A2D066918049D7C412A0A2D0669186D
:10036000019D6241AC0DAD026D185441079A910D8B
:10037000920255196141029A644658435443069BC0
:10038000059A5A43121A131B9A0E9B015B187A4165
:10039000010B0005C3185141220A200644195A4195
:1003A0009A4200D2491C01204002814203D3152306
:1003B0000226F64302E014230326F6432020C51A42
:1003C000A9401746AF40DA400A4320460399D84077
:1003D0000914731819055118039A3843D20751406C
:1003E000AC4009D00122944006D30022401C514168
:1003F000002C01D1400840001E4A934212D3012232
:1004000003989206904207DB0520400709181A4816
:100410000143C012414004E0032040070818C10F07
:10042000C907002009B0F0BD0020F107FAE7051860
:100430000C464C4111486D42A04115D394181A4600
:100440005A410E48644290410ED301204A004005B3
:10045000824209D35A00824206D35940C90F084A42
:10046000C90700201143DDE700200649DAE7000054
:100470000000FF07FE070000FFFFFF7F0000E0FF16
:100480000000F07F0000F87F754600F025F8AE46CA
:10049000050069465346C008C000854618B020B51F
:1004A000FFF76CFE60BCB64600260027C0C5C0C57D
:1004B000C0C5C0C5C0C5C0C5C0C5C0C5403D490850
:1004C00049008D46704710B50446C046C0462046D8
:1004D000FFF745FE10BD00000048704700000020F7
:1004E00001491820ABBEFEE726000200704781B02C
:1004F0000090801E001F00BFFCD201B0704784B086
:10050000039002910192039800680090009801996D
:100510008843009000980299019A1140084303997A
:10052000086004B0704784B0039002910192039870
:100530000068009000980199884300900098029903
:10054000019A114008430399086004B07047000005
:1005500082B00190009100980199024A885002B03F
:100560007047C046D012000081B000900099012071
:10057000C2023448885001B07047C04682B0019032
:10058000009100988021084301998900014A885010
:1005900002B070470480424081B000900099B04A98
:1005A000B048885001B0704703490868012212031F
:1005B000104308607047C04604010B4002490868B8
:1005C00010221043086070473C010B4081B0014687
:1005D0006846017000780249086001B07047C04663
:1005E00008030B4080B582B0014601A80170017874
:1005F00002480322FFF783FF02B080BD00010B40D9
:1006000081B000900099024A0120885001B07047E3
:100610000811000082B001900091009B0199034AEB
:1006200088581843885002B07047C0462810000010
:1006300081B0009000990120C2020248885001B0A8
:100640007047C0460100002680B58AB00990089125
:10065000089800790790002804D0FFE70798202821
:1006600012D029E0099808990968491E00F0D0F9CC
:10067000099888210691002200F018F90699099836
:10068000012200F013F92AE0099808990968491E27
:1006900000F0BEF909982D490491002200F006F9F6
:1006A000049909980122059200F000F9059909982A
:1006B000490700F09DF912E009980899096849086E
:1006C00000F0A6F909980521C9010391002200F064
:1006D000EDF803990998012200F0E8F8FFE709987E
:1006E0000023019319461A4600F0FAF8019A099876
:1006F00001230293114600F0F3F8019B099800933F
:1007000019461A4600F024F9019B029909980091B4
:1007100019461A4600F01CF9019B099819461A4619
:1007200000F0FCF8019A029B0998114600F0F6F8D7
:100730000998B6494018089A117952791143022252
:100740001143034AFFF7EFFE0AB080BD0104000029
:10075000BFFF003080B584B00390029103980299E6
:10076000496800F055F9029800780190222856D87F
:100770000198810001A040588746C0461508000036
:100780001F080000150800001F0800001F080000D7
:100790001F0800001F0800001F0800001F080000BD
:1007A0001F0800001F0800001F0800001F080000AD
:1007B0001F0800001F0800001F08000009080000B3
:1007C0001F080000090800001F0800001F080000A3
:1007D0001F0800001F0800001F0800001F0800007D
:1007E0001F0800001F0800001F0800001F0800006D
:1007F0001F0800001F0800001F0800000908000073
:100800001F0800000908000003980121490700F0B3
:10081000EFF805E00398002100F0EAF800E0FFE7B8
:1008200003980299098A0022009200F0B1F8009B17
:1008300003980299C9681A4600F052F8029908789C
:10084000097A08430399714A885004B080BDC046B4
:1008500081B000900099024A0248885001B0704768
:1008600004080000030000B182B0019000910098DC
:10087000019911221202885002B0704780B584B0ED
:100880000390029101A802700399224A89180091ED
:10089000017800988900401800900098029907227A
:1008A0009204FFF740FE04B080BDC04680B584B01E
:1008B0000390029101A802700399074A89180091D8
:1008C0000178009889004018009000980299034A26
:1008D000FFF729FE04B080BD70180000DB06C00FD2
:1008E00010B586B005900491039202A80370059993
:1008F000084A8918019101780198890040180190EF
:1009000001980499039A1143034AFFF70CFE06B0BD
:1009100010BDC046301800007777020010B586B0D1
:1009200005900491039202A8037005993122D20127
:100930008918019101780198890040180190019867
:100940000499039A11438F22FFF7EDFD06B010BD05
:1009500010B587B000910446009809990694059057
:100960000492039302A801700699084A891801911C
:10097000017801988900401801900598049908436E
:10098000039908430199086007B010BD5018000092
:1009900084B00390029101A802700399064A891855
:1009A0000091017800988900401800900298009901
:1009B000086004B07047C0461018000082B0019073
:1009C0000091009800780199074A88500098407873
:1009D0000199012212038850009880780199034AF6
:1009E000885002B07047C046081000000C1100008B
:1009F00080B582B001900091019804494018009997
:100A000003221207FFF78FFD02B080BD041800001B
:100A100082B00190009100980199024A885002B07A
:100A20007047C0460818000080B508200521FFF770
:100A3000A5FD012001023F48FFF78AFD80BDC046A9
:100A400080B584B011497A480390FFF7B7FF039847
:100A50000F49FFF7F9FD0398002202921146FFF7B4
:100A600097FF029B0398009310221946FFF770FF2F
:100A7000029A03981146FFF701FF0398FFF7C0FDA4
:100A800003980121FFF7F0FE04B080BD340C000094
:100A9000380C000080B582B000200190FFF796FD71
:100AA0000198FFF79FFDFFF77FFDFFF787FD02B07D
:100AB00080BD000080B582B008491F480190FFF753
:100AC0007DFF01980649FFF745FE01980121FFF7D8
:100AD000A1FD0198FFF794FD02B080BD400C00001D
:100AE000440C000080B500F009F8FFF79DFFFFF708
:100AF000D1FFFFF7A5FFFFF7DDFF80BD80B584B014
:100B00000C480190FFF748FD49480290FFF7A0FE0E
:100B100009480390FFF79CFE0198FFF725FD029816
:100B2000FFF786FD0398FFF783FD1020FFF7DFFC3A
:100B300004B080BD00000A400040084080B5124863
:100B40000178491C01700078002806D1FFE70F49A1
:100B50000878424250410870FFE70C4800780028AE
:100B600007D0FFE70848017831480022FFF710FF5F
:100B700009E00548017801200002411A2C480022B2
:100B8000FFF706FFFFE780BD610000206000002046
:100B900081B001466846017000214056002809D402
:100BA000FFE7684601781F20014001208840024984
:100BB0000860FFE701B0704700E100E080B582B057
:100BC00001900198FFF731FB0022044BFFF738FB3F
:100BD000FFF7E6FAFFF78BFC02B080BD0040DF4074
:100BE00080B584B0002001900390FFF77BFF019A4D
:100BF0000F480090FF21FFF7CBFE7D208000029080
:100C0000FFF7DCFF0098019A1146FFF7C1FE02983A
:100C1000FFF7D4FF0098019A01210902FFF7B8FEFF
:100C20000298FFF7CBFF1020FFF7B2FFFFE7FEE7C8
:100C300000800840040000000001000020010000C6
:100C400002000000220000007F0000000100000000
:100C50000000000000000000680C00000000002000
:080C60006801000028010000FA
:04000005000000C136
:00000001FF
